{
  "contractName": "Devoleum",
  "abi": [
    {
      "anonymous": false,
      "inputs": [
        {
          "indexed": false,
          "internalType": "address",
          "name": "_owner",
          "type": "address"
        },
        {
          "indexed": false,
          "internalType": "uint256",
          "name": "_id",
          "type": "uint256"
        }
      ],
      "name": "HistoryCreated",
      "type": "event"
    },
    {
      "anonymous": false,
      "inputs": [
        {
          "indexed": false,
          "internalType": "address",
          "name": "_owner",
          "type": "address"
        }
      ],
      "name": "MerchantCreated",
      "type": "event"
    },
    {
      "anonymous": false,
      "inputs": [
        {
          "indexed": false,
          "internalType": "address",
          "name": "_owner",
          "type": "address"
        },
        {
          "indexed": false,
          "internalType": "uint256",
          "name": "_historyID",
          "type": "uint256"
        },
        {
          "indexed": false,
          "internalType": "address",
          "name": "_target",
          "type": "address"
        },
        {
          "indexed": false,
          "internalType": "bool",
          "name": "_isEnabled",
          "type": "bool"
        }
      ],
      "name": "MerchantToggled",
      "type": "event"
    },
    {
      "anonymous": false,
      "inputs": [
        {
          "indexed": true,
          "internalType": "address",
          "name": "previousOwner",
          "type": "address"
        },
        {
          "indexed": true,
          "internalType": "address",
          "name": "newOwner",
          "type": "address"
        }
      ],
      "name": "OwnershipTransferred",
      "type": "event"
    },
    {
      "anonymous": false,
      "inputs": [
        {
          "indexed": false,
          "internalType": "address",
          "name": "account",
          "type": "address"
        }
      ],
      "name": "Paused",
      "type": "event"
    },
    {
      "anonymous": false,
      "inputs": [
        {
          "indexed": true,
          "internalType": "address",
          "name": "account",
          "type": "address"
        }
      ],
      "name": "PauserAdded",
      "type": "event"
    },
    {
      "anonymous": false,
      "inputs": [
        {
          "indexed": true,
          "internalType": "address",
          "name": "account",
          "type": "address"
        }
      ],
      "name": "PauserRemoved",
      "type": "event"
    },
    {
      "anonymous": false,
      "inputs": [
        {
          "indexed": false,
          "internalType": "address",
          "name": "_owner",
          "type": "address"
        },
        {
          "indexed": false,
          "internalType": "uint256",
          "name": "_id",
          "type": "uint256"
        }
      ],
      "name": "StepCreated",
      "type": "event"
    },
    {
      "anonymous": false,
      "inputs": [
        {
          "indexed": false,
          "internalType": "address",
          "name": "account",
          "type": "address"
        }
      ],
      "name": "Unpaused",
      "type": "event"
    },
    {
      "anonymous": false,
      "inputs": [
        {
          "indexed": false,
          "internalType": "bool",
          "name": "_permissioned",
          "type": "bool"
        }
      ],
      "name": "changePermissioned",
      "type": "event"
    },
    {
      "constant": false,
      "inputs": [
        {
          "internalType": "address",
          "name": "account",
          "type": "address"
        }
      ],
      "name": "addPauser",
      "outputs": [],
      "payable": false,
      "stateMutability": "nonpayable",
      "type": "function"
    },
    {
      "constant": true,
      "inputs": [
        {
          "internalType": "address",
          "name": "",
          "type": "address"
        }
      ],
      "name": "addressToMerchant",
      "outputs": [
        {
          "internalType": "uint256",
          "name": "createdAt",
          "type": "uint256"
        },
        {
          "internalType": "string",
          "name": "URI",
          "type": "string"
        },
        {
          "internalType": "address",
          "name": "owner",
          "type": "address"
        }
      ],
      "payable": false,
      "stateMutability": "view",
      "type": "function"
    },
    {
      "constant": true,
      "inputs": [],
      "name": "historiesCounter",
      "outputs": [
        {
          "internalType": "uint256",
          "name": "",
          "type": "uint256"
        }
      ],
      "payable": false,
      "stateMutability": "view",
      "type": "function"
    },
    {
      "constant": true,
      "inputs": [
        {
          "internalType": "uint256",
          "name": "",
          "type": "uint256"
        }
      ],
      "name": "historyIdToHistoryInfo",
      "outputs": [
        {
          "internalType": "uint256",
          "name": "createdAt",
          "type": "uint256"
        },
        {
          "internalType": "address",
          "name": "merchantAdr",
          "type": "address"
        },
        {
          "internalType": "bool",
          "name": "enabled",
          "type": "bool"
        },
        {
          "internalType": "string",
          "name": "hashOfJson",
          "type": "string"
        },
        {
          "internalType": "string",
          "name": "URI",
          "type": "string"
        }
      ],
      "payable": false,
      "stateMutability": "view",
      "type": "function"
    },
    {
      "constant": true,
      "inputs": [
        {
          "internalType": "uint256",
          "name": "",
          "type": "uint256"
        },
        {
          "internalType": "address",
          "name": "",
          "type": "address"
        }
      ],
      "name": "historyIdToPermissionedMerchants",
      "outputs": [
        {
          "internalType": "bool",
          "name": "",
          "type": "bool"
        }
      ],
      "payable": false,
      "stateMutability": "view",
      "type": "function"
    },
    {
      "constant": true,
      "inputs": [],
      "name": "isOwner",
      "outputs": [
        {
          "internalType": "bool",
          "name": "",
          "type": "bool"
        }
      ],
      "payable": false,
      "stateMutability": "view",
      "type": "function"
    },
    {
      "constant": true,
      "inputs": [
        {
          "internalType": "address",
          "name": "account",
          "type": "address"
        }
      ],
      "name": "isPauser",
      "outputs": [
        {
          "internalType": "bool",
          "name": "",
          "type": "bool"
        }
      ],
      "payable": false,
      "stateMutability": "view",
      "type": "function"
    },
    {
      "constant": true,
      "inputs": [
        {
          "internalType": "address",
          "name": "",
          "type": "address"
        }
      ],
      "name": "merchantAddressToHistoriesCounter",
      "outputs": [
        {
          "internalType": "uint256",
          "name": "",
          "type": "uint256"
        }
      ],
      "payable": false,
      "stateMutability": "view",
      "type": "function"
    },
    {
      "constant": true,
      "inputs": [
        {
          "internalType": "address",
          "name": "",
          "type": "address"
        }
      ],
      "name": "merchantPermission",
      "outputs": [
        {
          "internalType": "bool",
          "name": "",
          "type": "bool"
        }
      ],
      "payable": false,
      "stateMutability": "view",
      "type": "function"
    },
    {
      "constant": true,
      "inputs": [
        {
          "internalType": "uint256",
          "name": "",
          "type": "uint256"
        }
      ],
      "name": "merchantsList",
      "outputs": [
        {
          "internalType": "address",
          "name": "",
          "type": "address"
        }
      ],
      "payable": false,
      "stateMutability": "view",
      "type": "function"
    },
    {
      "constant": true,
      "inputs": [],
      "name": "owner",
      "outputs": [
        {
          "internalType": "address",
          "name": "",
          "type": "address"
        }
      ],
      "payable": false,
      "stateMutability": "view",
      "type": "function"
    },
    {
      "constant": false,
      "inputs": [],
      "name": "pause",
      "outputs": [],
      "payable": false,
      "stateMutability": "nonpayable",
      "type": "function"
    },
    {
      "constant": true,
      "inputs": [],
      "name": "paused",
      "outputs": [
        {
          "internalType": "bool",
          "name": "",
          "type": "bool"
        }
      ],
      "payable": false,
      "stateMutability": "view",
      "type": "function"
    },
    {
      "constant": false,
      "inputs": [],
      "name": "renounceOwnership",
      "outputs": [],
      "payable": false,
      "stateMutability": "nonpayable",
      "type": "function"
    },
    {
      "constant": false,
      "inputs": [],
      "name": "renouncePauser",
      "outputs": [],
      "payable": false,
      "stateMutability": "nonpayable",
      "type": "function"
    },
    {
      "constant": true,
      "inputs": [],
      "name": "signupPermissioned",
      "outputs": [
        {
          "internalType": "bool",
          "name": "",
          "type": "bool"
        }
      ],
      "payable": false,
      "stateMutability": "view",
      "type": "function"
    },
    {
      "constant": true,
      "inputs": [
        {
          "internalType": "uint256",
          "name": "",
          "type": "uint256"
        }
      ],
      "name": "stepIdToStepInfo",
      "outputs": [
        {
          "internalType": "uint256",
          "name": "createdAt",
          "type": "uint256"
        },
        {
          "internalType": "address",
          "name": "merchantAdr",
          "type": "address"
        },
        {
          "internalType": "bool",
          "name": "enabled",
          "type": "bool"
        },
        {
          "internalType": "uint256",
          "name": "historyID",
          "type": "uint256"
        },
        {
          "internalType": "string",
          "name": "hashOfJson",
          "type": "string"
        },
        {
          "internalType": "string",
          "name": "URI",
          "type": "string"
        }
      ],
      "payable": false,
      "stateMutability": "view",
      "type": "function"
    },
    {
      "constant": false,
      "inputs": [
        {
          "internalType": "address",
          "name": "newOwner",
          "type": "address"
        }
      ],
      "name": "transferOwnership",
      "outputs": [],
      "payable": false,
      "stateMutability": "nonpayable",
      "type": "function"
    },
    {
      "constant": false,
      "inputs": [],
      "name": "unpause",
      "outputs": [],
      "payable": false,
      "stateMutability": "nonpayable",
      "type": "function"
    },
    {
      "constant": true,
      "inputs": [],
      "name": "getMerchantsList",
      "outputs": [
        {
          "internalType": "address[]",
          "name": "",
          "type": "address[]"
        }
      ],
      "payable": false,
      "stateMutability": "view",
      "type": "function"
    },
    {
      "constant": false,
      "inputs": [
        {
          "internalType": "string",
          "name": "_URI",
          "type": "string"
        }
      ],
      "name": "createMerchant",
      "outputs": [],
      "payable": false,
      "stateMutability": "nonpayable",
      "type": "function"
    },
    {
      "constant": false,
      "inputs": [
        {
          "internalType": "string",
          "name": "_hashOfJson",
          "type": "string"
        },
        {
          "internalType": "string",
          "name": "_URI",
          "type": "string"
        }
      ],
      "name": "createHistory",
      "outputs": [
        {
          "internalType": "uint256",
          "name": "historyID",
          "type": "uint256"
        }
      ],
      "payable": false,
      "stateMutability": "nonpayable",
      "type": "function"
    },
    {
      "constant": false,
      "inputs": [
        {
          "internalType": "uint256",
          "name": "_historyID",
          "type": "uint256"
        },
        {
          "internalType": "string",
          "name": "_hashOfJson",
          "type": "string"
        },
        {
          "internalType": "string",
          "name": "_URI",
          "type": "string"
        }
      ],
      "name": "createStep",
      "outputs": [
        {
          "internalType": "uint256",
          "name": "stepID",
          "type": "uint256"
        }
      ],
      "payable": false,
      "stateMutability": "nonpayable",
      "type": "function"
    },
    {
      "constant": false,
      "inputs": [
        {
          "internalType": "uint256",
          "name": "_historyID",
          "type": "uint256"
        },
        {
          "internalType": "address",
          "name": "_target",
          "type": "address"
        },
        {
          "internalType": "bool",
          "name": "_toggle",
          "type": "bool"
        }
      ],
      "name": "toggleHistoryMerchant",
      "outputs": [],
      "payable": false,
      "stateMutability": "nonpayable",
      "type": "function"
    },
    {
      "constant": true,
      "inputs": [
        {
          "internalType": "address",
          "name": "_merchantAdr",
          "type": "address"
        }
      ],
      "name": "getMerchantInfo",
      "outputs": [
        {
          "internalType": "uint256",
          "name": "createdAt",
          "type": "uint256"
        },
        {
          "internalType": "string",
          "name": "URI",
          "type": "string"
        },
        {
          "internalType": "address",
          "name": "owner",
          "type": "address"
        }
      ],
      "payable": false,
      "stateMutability": "view",
      "type": "function"
    },
    {
      "constant": true,
      "inputs": [
        {
          "internalType": "uint256",
          "name": "_id",
          "type": "uint256"
        }
      ],
      "name": "getHistoryInfo",
      "outputs": [
        {
          "internalType": "uint256",
          "name": "createdAt",
          "type": "uint256"
        },
        {
          "internalType": "address",
          "name": "merchantAdr",
          "type": "address"
        },
        {
          "internalType": "bool",
          "name": "enabled",
          "type": "bool"
        },
        {
          "internalType": "string",
          "name": "hashOfJson",
          "type": "string"
        },
        {
          "internalType": "string",
          "name": "URI",
          "type": "string"
        }
      ],
      "payable": false,
      "stateMutability": "view",
      "type": "function"
    },
    {
      "constant": true,
      "inputs": [
        {
          "internalType": "uint256",
          "name": "_id",
          "type": "uint256"
        }
      ],
      "name": "getStepInfo",
      "outputs": [
        {
          "internalType": "uint256",
          "name": "createdAt",
          "type": "uint256"
        },
        {
          "internalType": "address",
          "name": "merchantAdr",
          "type": "address"
        },
        {
          "internalType": "bool",
          "name": "enabled",
          "type": "bool"
        },
        {
          "internalType": "uint256",
          "name": "historyID",
          "type": "uint256"
        },
        {
          "internalType": "string",
          "name": "hashOfJson",
          "type": "string"
        },
        {
          "internalType": "string",
          "name": "URI",
          "type": "string"
        }
      ],
      "payable": false,
      "stateMutability": "view",
      "type": "function"
    },
    {
      "constant": true,
      "inputs": [
        {
          "internalType": "address",
          "name": "_owner",
          "type": "address"
        }
      ],
      "name": "historiesOfMerchant",
      "outputs": [
        {
          "internalType": "uint256[]",
          "name": "ownerHistories",
          "type": "uint256[]"
        }
      ],
      "payable": false,
      "stateMutability": "view",
      "type": "function"
    },
    {
      "constant": true,
      "inputs": [
        {
          "internalType": "uint256",
          "name": "_historyID",
          "type": "uint256"
        }
      ],
      "name": "stepsOfHistory",
      "outputs": [
        {
          "internalType": "uint256[]",
          "name": "ownerHistories",
          "type": "uint256[]"
        }
      ],
      "payable": false,
      "stateMutability": "view",
      "type": "function"
    },
    {
      "constant": true,
      "inputs": [],
      "name": "getPermissionedStatus",
      "outputs": [
        {
          "internalType": "bool",
          "name": "_signupPermissioned",
          "type": "bool"
        }
      ],
      "payable": false,
      "stateMutability": "view",
      "type": "function"
    },
    {
      "constant": false,
      "inputs": [
        {
          "internalType": "bool",
          "name": "_permissioned",
          "type": "bool"
        }
      ],
      "name": "toggleSignupPermissioned",
      "outputs": [],
      "payable": false,
      "stateMutability": "nonpayable",
      "type": "function"
    },
    {
      "constant": false,
      "inputs": [
        {
          "internalType": "bool",
          "name": "_permission",
          "type": "bool"
        },
        {
          "internalType": "address",
          "name": "_target",
          "type": "address"
        }
      ],
      "name": "toggleMerchantPermission",
      "outputs": [],
      "payable": false,
      "stateMutability": "nonpayable",
      "type": "function"
    },
    {
      "constant": false,
      "inputs": [
        {
          "internalType": "bool",
          "name": "_permission",
          "type": "bool"
        },
        {
          "internalType": "bool",
          "name": "_isStep",
          "type": "bool"
        },
        {
          "internalType": "uint256",
          "name": "_id",
          "type": "uint256"
        }
      ],
      "name": "toggleAsset",
      "outputs": [],
      "payable": false,
      "stateMutability": "nonpayable",
      "type": "function"
    },
    {
      "constant": false,
      "inputs": [
        {
          "internalType": "string",
          "name": "_URI",
          "type": "string"
        }
      ],
      "name": "editMerchURI",
      "outputs": [],
      "payable": false,
      "stateMutability": "nonpayable",
      "type": "function"
    },
    {
      "constant": false,
      "inputs": [
        {
          "internalType": "string",
          "name": "_URI",
          "type": "string"
        },
        {
          "internalType": "uint256",
          "name": "_id",
          "type": "uint256"
        }
      ],
      "name": "editHistoryURI",
      "outputs": [],
      "payable": false,
      "stateMutability": "nonpayable",
      "type": "function"
    },
    {
      "constant": false,
      "inputs": [
        {
          "internalType": "string",
          "name": "_URI",
          "type": "string"
        },
        {
          "internalType": "uint256",
          "name": "_id",
          "type": "uint256"
        }
      ],
      "name": "editStepURI",
      "outputs": [],
      "payable": false,
      "stateMutability": "nonpayable",
      "type": "function"
    }
  ],
  "bytecode": "0x60806040526001600660006101000a81548160ff02191690831515021790555060006009556000600a5560006200003b6200011a60201b60201c565b9050806000806101000a81548173ffffffffffffffffffffffffffffffffffffffff021916908373ffffffffffffffffffffffffffffffffffffffff1602179055508073ffffffffffffffffffffffffffffffffffffffff16600073ffffffffffffffffffffffffffffffffffffffff167f8be0079c531659141344cd1fd0a4f28419497f9722a3daafe3b4186f6b6457e060405160405180910390a350620000f9620000ed6200011a60201b60201c565b6200012260201b60201c565b6000600260006101000a81548160ff02191690831515021790555062000347565b600033905090565b6200013d8160016200018360201b620048491790919060201c565b8073ffffffffffffffffffffffffffffffffffffffff167f6719d08c1888103bea251a4ed56406bd0c3e69723c8a1686e017e7bbe159b6f860405160405180910390a250565b6200019582826200026760201b60201c565b1562000209576040517f08c379a000000000000000000000000000000000000000000000000000000000815260040180806020018281038252601f8152602001807f526f6c65733a206163636f756e7420616c72656164792068617320726f6c650081525060200191505060405180910390fd5b60018260000160008373ffffffffffffffffffffffffffffffffffffffff1673ffffffffffffffffffffffffffffffffffffffff16815260200190815260200160002060006101000a81548160ff0219169083151502179055505050565b60008073ffffffffffffffffffffffffffffffffffffffff168273ffffffffffffffffffffffffffffffffffffffff161415620002f0576040517f08c379a0000000000000000000000000000000000000000000000000000000008152600401808060200182810382526022815260200180620050086022913960400191505060405180910390fd5b8260000160008373ffffffffffffffffffffffffffffffffffffffff1673ffffffffffffffffffffffffffffffffffffffff16815260200190815260200160002060009054906101000a900460ff16905092915050565b614cb180620003576000396000f3fe608060405234801561001057600080fd5b506004361061021c5760003560e01c80638ecd588d11610125578063c50ebea5116100ad578063ee614f4e1161007c578063ee614f4e14610f14578063f2fde38b14611073578063f426dc09146110b7578063f95e38ed1461120f578063fce173751461126b5761021c565b8063c50ebea514610de7578063c602ab0e14610e17578063db1b5a6a14610e6f578063ee19161114610ef25761021c565b8063ad7189d3116100f4578063ad7189d314610b5d578063af0e6b0e14610be0578063b5d5530514610cc2578063be82d04e14610d28578063c106d6fb14610d6e5761021c565b80638ecd588d146109ff5780638f32d59b14610a595780639205946814610a7b57806392781ef614610ada5761021c565b806367ad7d81116101a8578063820cb10211610177578063820cb102146107bf57806382dc1ec4146109175780638456cb591461095b5780638aa2ebe7146109655780638da5cb5b146109b55761021c565b806367ad7d811461071b5780636ef8d66d1461073d578063715018a61461074757806375fb3cbc146107515761021c565b806320c2e13a116101ef57806320c2e13a1461058157806334f558311461061a5780633f4ba83a1461069357806346fbf68e1461069d5780635c975abb146106f95761021c565b806301ca1592146102215780630e733ef1146103805780630fe1e1ef146104775780631acf2eab14610563575b600080fd5b61024d6004803603602081101561023757600080fd5b8101908080359060200190929190505050611362565b604051808781526020018673ffffffffffffffffffffffffffffffffffffffff1673ffffffffffffffffffffffffffffffffffffffff168152602001851515151581526020018481526020018060200180602001838103835285818151815260200191508051906020019080838360005b838110156102d95780820151818401526020810190506102be565b50505050905090810190601f1680156103065780820380516001836020036101000a031916815260200191505b50838103825284818151815260200191508051906020019080838360005b8381101561033f578082015181840152602081019050610324565b50505050905090810190601f16801561036c5780820380516001836020036101000a031916815260200191505b509850505050505050505060405180910390f35b6103c26004803603602081101561039657600080fd5b81019080803573ffffffffffffffffffffffffffffffffffffffff1690602001909291905050506114fb565b60405180848152602001806020018373ffffffffffffffffffffffffffffffffffffffff1673ffffffffffffffffffffffffffffffffffffffff168152602001828103825284818151815260200191508051906020019080838360005b8381101561043a57808201518184015260208101905061041f565b50505050905090810190601f1680156104675780820380516001836020036101000a031916815260200191505b5094505050505060405180910390f35b61054d6004803603606081101561048d57600080fd5b8101908080359060200190929190803590602001906401000000008111156104b457600080fd5b8201836020820111156104c657600080fd5b803590602001918460018302840111640100000000831117156104e857600080fd5b90919293919293908035906020019064010000000081111561050957600080fd5b82018360208201111561051b57600080fd5b8035906020019184600183028401116401000000008311171561053d57600080fd5b9091929391929390505050611692565b6040518082815260200191505060405180910390f35b61056b611c2d565b6040518082815260200191505060405180910390f35b6105c36004803603602081101561059757600080fd5b81019080803573ffffffffffffffffffffffffffffffffffffffff169060200190929190505050611c33565b6040518080602001828103825283818151815260200191508051906020019060200280838360005b838110156106065780820151818401526020810190506105eb565b505050509050019250505060405180910390f35b6106916004803603602081101561063057600080fd5b810190808035906020019064010000000081111561064d57600080fd5b82018360208201111561065f57600080fd5b8035906020019184600183028401116401000000008311171561068157600080fd5b9091929391929390505050611d68565b005b61069b611fc0565b005b6106df600480360360208110156106b357600080fd5b81019080803573ffffffffffffffffffffffffffffffffffffffff16906020019092919050505061212e565b604051808215151515815260200191505060405180910390f35b61070161214b565b604051808215151515815260200191505060405180910390f35b610723612162565b604051808215151515815260200191505060405180910390f35b610745612175565b005b61074f612187565b005b61077d6004803603602081101561076757600080fd5b81019080803590602001909291905050506122c0565b604051808273ffffffffffffffffffffffffffffffffffffffff1673ffffffffffffffffffffffffffffffffffffffff16815260200191505060405180910390f35b6107eb600480360360208110156107d557600080fd5b81019080803590602001909291905050506122fc565b604051808681526020018573ffffffffffffffffffffffffffffffffffffffff1673ffffffffffffffffffffffffffffffffffffffff168152602001841515151581526020018060200180602001838103835285818151815260200191508051906020019080838360005b83811015610871578082015181840152602081019050610856565b50505050905090810190601f16801561089e5780820380516001836020036101000a031916815260200191505b50838103825284818151815260200191508051906020019080838360005b838110156108d75780820151818401526020810190506108bc565b50505050905090810190601f1680156109045780820380516001836020036101000a031916815260200191505b5097505050505050505060405180910390f35b6109596004803603602081101561092d57600080fd5b81019080803573ffffffffffffffffffffffffffffffffffffffff16906020019092919050505061248f565b005b610963612500565b005b6109b36004803603604081101561097b57600080fd5b81019080803515159060200190929190803573ffffffffffffffffffffffffffffffffffffffff16906020019092919050505061266f565b005b6109bd612744565b604051808273ffffffffffffffffffffffffffffffffffffffff1673ffffffffffffffffffffffffffffffffffffffff16815260200191505060405180910390f35b610a5760048036036060811015610a1557600080fd5b8101908080359060200190929190803573ffffffffffffffffffffffffffffffffffffffff16906020019092919080351515906020019092919050505061276d565b005b610a61612b41565b604051808215151515815260200191505060405180910390f35b610a83612b9f565b6040518080602001828103825283818151815260200191508051906020019060200280838360005b83811015610ac6578082015181840152602081019050610aab565b505050509050019250505060405180910390f35b610b0660048036036020811015610af057600080fd5b8101908080359060200190929190505050612c2d565b6040518080602001828103825283818151815260200191508051906020019060200280838360005b83811015610b49578082015181840152602081019050610b2e565b505050509050019250505060405180910390f35b610bde60048036036040811015610b7357600080fd5b8101908080359060200190640100000000811115610b9057600080fd5b820183602082011115610ba257600080fd5b80359060200191846001830284011164010000000083111715610bc457600080fd5b909192939192939080359060200190929190505050612d16565b005b610cac60048036036040811015610bf657600080fd5b8101908080359060200190640100000000811115610c1357600080fd5b820183602082011115610c2557600080fd5b80359060200191846001830284011164010000000083111715610c4757600080fd5b909192939192939080359060200190640100000000811115610c6857600080fd5b820183602082011115610c7a57600080fd5b80359060200191846001830284011164010000000083111715610c9c57600080fd5b909192939192939050505061300c565b6040518082815260200191505060405180910390f35b610d0e60048036036040811015610cd857600080fd5b8101908080359060200190929190803573ffffffffffffffffffffffffffffffffffffffff16906020019092919050505061353e565b604051808215151515815260200191505060405180910390f35b610d6c60048036036060811015610d3e57600080fd5b810190808035151590602001909291908035151590602001909291908035906020019092919050505061356d565b005b610de560048036036020811015610d8457600080fd5b8101908080359060200190640100000000811115610da157600080fd5b820183602082011115610db357600080fd5b80359060200191846001830284011164010000000083111715610dd557600080fd5b9091929391929390505050613654565b005b610e1560048036036020811015610dfd57600080fd5b81019080803515159060200190929190505050613aab565b005b610e5960048036036020811015610e2d57600080fd5b81019080803573ffffffffffffffffffffffffffffffffffffffff169060200190929190505050613b7d565b6040518082815260200191505060405180910390f35b610ef060048036036040811015610e8557600080fd5b8101908080359060200190640100000000811115610ea257600080fd5b820183602082011115610eb457600080fd5b80359060200191846001830284011164010000000083111715610ed657600080fd5b909192939192939080359060200190929190505050613b95565b005b610efa613e8b565b604051808215151515815260200191505060405180910390f35b610f4060048036036020811015610f2a57600080fd5b8101908080359060200190929190505050613ea2565b604051808781526020018673ffffffffffffffffffffffffffffffffffffffff1673ffffffffffffffffffffffffffffffffffffffff168152602001851515151581526020018481526020018060200180602001838103835285818151815260200191508051906020019080838360005b83811015610fcc578082015181840152602081019050610fb1565b50505050905090810190601f168015610ff95780820380516001836020036101000a031916815260200191505b50838103825284818151815260200191508051906020019080838360005b83811015611032578082015181840152602081019050611017565b50505050905090810190601f16801561105f5780820380516001836020036101000a031916815260200191505b509850505050505050505060405180910390f35b6110b56004803603602081101561108957600080fd5b81019080803573ffffffffffffffffffffffffffffffffffffffff1690602001909291905050506140ad565b005b6110e3600480360360208110156110cd57600080fd5b8101908080359060200190929190505050614133565b604051808681526020018573ffffffffffffffffffffffffffffffffffffffff1673ffffffffffffffffffffffffffffffffffffffff168152602001841515151581526020018060200180602001838103835285818151815260200191508051906020019080838360005b8381101561116957808201518184015260208101905061114e565b50505050905090810190601f1680156111965780820380516001836020036101000a031916815260200191505b50838103825284818151815260200191508051906020019080838360005b838110156111cf5780820151818401526020810190506111b4565b50505050905090810190601f1680156111fc5780820380516001836020036101000a031916815260200191505b5097505050505050505060405180910390f35b6112516004803603602081101561122557600080fd5b81019080803573ffffffffffffffffffffffffffffffffffffffff169060200190929190505050614324565b604051808215151515815260200191505060405180910390f35b6112ad6004803603602081101561128157600080fd5b81019080803573ffffffffffffffffffffffffffffffffffffffff169060200190929190505050614344565b60405180848152602001806020018373ffffffffffffffffffffffffffffffffffffffff1673ffffffffffffffffffffffffffffffffffffffff168152602001828103825284818151815260200191508051906020019080838360005b8381101561132557808201518184015260208101905061130a565b50505050905090810190601f1680156113525780820380516001836020036101000a031916815260200191505b5094505050505060405180910390f35b60046020528060005260406000206000915090508060000154908060010160009054906101000a900473ffffffffffffffffffffffffffffffffffffffff16908060010160149054906101000a900460ff1690806002015490806003018054600181600116156101000203166002900480601f0160208091040260200160405190810160405280929190818152602001828054600181600116156101000203166002900480156114535780601f1061142857610100808354040283529160200191611453565b820191906000526020600020905b81548152906001019060200180831161143657829003601f168201915b505050505090806004018054600181600116156101000203166002900480601f0160208091040260200160405190810160405280929190818152602001828054600181600116156101000203166002900480156114f15780601f106114c6576101008083540402835291602001916114f1565b820191906000526020600020905b8154815290600101906020018083116114d457829003601f168201915b5050505050905086565b600060606000600560008573ffffffffffffffffffffffffffffffffffffffff1673ffffffffffffffffffffffffffffffffffffffff16815260200190815260200160002060000154600560008673ffffffffffffffffffffffffffffffffffffffff1673ffffffffffffffffffffffffffffffffffffffff168152602001908152602001600020600101600560008773ffffffffffffffffffffffffffffffffffffffff1673ffffffffffffffffffffffffffffffffffffffff16815260200190815260200160002060020160009054906101000a900473ffffffffffffffffffffffffffffffffffffffff16818054600181600116156101000203166002900480601f01602080910402602001604051908101604052809291908181526020018280546001816001161561010002031660029004801561167e5780601f106116535761010080835404028352916020019161167e565b820191906000526020600020905b81548152906001019060200180831161166157829003601f168201915b505050505091509250925092509193909250565b600060011515600760003373ffffffffffffffffffffffffffffffffffffffff1673ffffffffffffffffffffffffffffffffffffffff16815260200190815260200160002060009054906101000a900460ff1615151461175a576040517f08c379a00000000000000000000000000000000000000000000000000000000081526004018080602001828103825260148152602001807f6d65726368616e74206e6f7420616c6c6f77656400000000000000000000000081525060200191505060405180910390fd5b6000600560003373ffffffffffffffffffffffffffffffffffffffff1673ffffffffffffffffffffffffffffffffffffffff168152602001908152602001600020600001541415611813576040517f08c379a00000000000000000000000000000000000000000000000000000000081526004018080602001828103825260158152602001807f6d65726368616e74206e6f74206578697374656e74000000000000000000000081525060200191505060405180910390fd5b600260009054906101000a900460ff1615611896576040517f08c379a00000000000000000000000000000000000000000000000000000000081526004018080602001828103825260108152602001807f5061757361626c653a207061757365640000000000000000000000000000000081525060200191505060405180910390fd5b85600115156003600083815260200190815260200160002060010160149054906101000a900460ff16151514611934576040517f08c379a00000000000000000000000000000000000000000000000000000000081526004018080602001828103825260168152602001807f686973746f7279206973206e6f7420656e61626c65640000000000000000000081525060200191505060405180910390fd5b600115156008600083815260200190815260200160002060003373ffffffffffffffffffffffffffffffffffffffff1673ffffffffffffffffffffffffffffffffffffffff16815260200190815260200160002060009054906101000a900460ff161515146119ee576040517f08c379a0000000000000000000000000000000000000000000000000000000008152600401808060200182810382526027815260200180614b936027913960400191505060405180910390fd5b6119f6614924565b6040518060c001604052804281526020013373ffffffffffffffffffffffffffffffffffffffff16815260200160011515815260200189815260200188888080601f016020809104026020016040519081016040528093929190818152602001838380828437600081840152601f19601f82011690508083019250505050505050815260200186868080601f016020809104026020016040519081016040528093929190818152602001838380828437600081840152601f19601f820116905080830192505050505050508152509050611adc6001600a5461442690919063ffffffff16565b600a819055508060046000600a5481526020019081526020016000206000820151816000015560208201518160010160006101000a81548173ffffffffffffffffffffffffffffffffffffffff021916908373ffffffffffffffffffffffffffffffffffffffff16021790555060408201518160010160146101000a81548160ff021916908315150217905550606082015181600201556080820151816003019080519060200190611b8f929190614972565b5060a0820151816004019080519060200190611bac929190614972565b509050507fc9531abec1b2971850822fd66011263a07e4c59fb393fe0a6d63a84e886c8f6733600a54604051808373ffffffffffffffffffffffffffffffffffffffff1673ffffffffffffffffffffffffffffffffffffffff1681526020018281526020019250505060405180910390a1600a549250505095945050505050565b60095481565b606060006009541415611c78576000604051908082528060200260200182016040528015611c705781602001602082028038833980820191505090505b509050611d63565b6060600954604051908082528060200260200182016040528015611cab5781602001602082028038833980820191505090505b50905060008090506000600190505b6009548111611d5c578473ffffffffffffffffffffffffffffffffffffffff166003600083815260200190815260200160002060010160009054906101000a900473ffffffffffffffffffffffffffffffffffffffff1673ffffffffffffffffffffffffffffffffffffffff161415611d4f5780838381518110611d3a57fe5b60200260200101818152505081806001019250505b8080600101915050611cba565b8293505050505b919050565b60011515600760003373ffffffffffffffffffffffffffffffffffffffff1673ffffffffffffffffffffffffffffffffffffffff16815260200190815260200160002060009054906101000a900460ff16151514611e2e576040517f08c379a00000000000000000000000000000000000000000000000000000000081526004018080602001828103825260148152602001807f6d65726368616e74206e6f7420616c6c6f77656400000000000000000000000081525060200191505060405180910390fd5b6000600560003373ffffffffffffffffffffffffffffffffffffffff1673ffffffffffffffffffffffffffffffffffffffff168152602001908152602001600020600001541415611ee7576040517f08c379a00000000000000000000000000000000000000000000000000000000081526004018080602001828103825260158152602001807f6d65726368616e74206e6f74206578697374656e74000000000000000000000081525060200191505060405180910390fd5b600260009054906101000a900460ff1615611f6a576040517f08c379a00000000000000000000000000000000000000000000000000000000081526004018080602001828103825260108152602001807f5061757361626c653a207061757365640000000000000000000000000000000081525060200191505060405180910390fd5b8181600560003373ffffffffffffffffffffffffffffffffffffffff1673ffffffffffffffffffffffffffffffffffffffff1681526020019081526020016000206001019190611fbb9291906149f2565b505050565b611fd0611fcb6144ae565b61212e565b612025576040517f08c379a0000000000000000000000000000000000000000000000000000000008152600401808060200182810382526030815260200180614b166030913960400191505060405180910390fd5b600260009054906101000a900460ff166120a7576040517f08c379a00000000000000000000000000000000000000000000000000000000081526004018080602001828103825260148152602001807f5061757361626c653a206e6f742070617573656400000000000000000000000081525060200191505060405180910390fd5b6000600260006101000a81548160ff0219169083151502179055507f5db9ee0a495bf2e6ff9c91a7834c1ba4fdd244a5e8aa4e537bd38aeae4b073aa6120eb6144ae565b604051808273ffffffffffffffffffffffffffffffffffffffff1673ffffffffffffffffffffffffffffffffffffffff16815260200191505060405180910390a1565b60006121448260016144b690919063ffffffff16565b9050919050565b6000600260009054906101000a900460ff16905090565b600660009054906101000a900460ff1681565b6121856121806144ae565b614594565b565b61218f612b41565b612201576040517f08c379a00000000000000000000000000000000000000000000000000000000081526004018080602001828103825260208152602001807f4f776e61626c653a2063616c6c6572206973206e6f7420746865206f776e657281525060200191505060405180910390fd5b600073ffffffffffffffffffffffffffffffffffffffff166000809054906101000a900473ffffffffffffffffffffffffffffffffffffffff1673ffffffffffffffffffffffffffffffffffffffff167f8be0079c531659141344cd1fd0a4f28419497f9722a3daafe3b4186f6b6457e060405160405180910390a360008060006101000a81548173ffffffffffffffffffffffffffffffffffffffff021916908373ffffffffffffffffffffffffffffffffffffffff160217905550565b600c81815481106122cd57fe5b906000526020600020016000915054906101000a900473ffffffffffffffffffffffffffffffffffffffff1681565b60036020528060005260406000206000915090508060000154908060010160009054906101000a900473ffffffffffffffffffffffffffffffffffffffff16908060010160149054906101000a900460ff1690806002018054600181600116156101000203166002900480601f0160208091040260200160405190810160405280929190818152602001828054600181600116156101000203166002900480156123e75780601f106123bc576101008083540402835291602001916123e7565b820191906000526020600020905b8154815290600101906020018083116123ca57829003601f168201915b505050505090806003018054600181600116156101000203166002900480601f0160208091040260200160405190810160405280929190818152602001828054600181600116156101000203166002900480156124855780601f1061245a57610100808354040283529160200191612485565b820191906000526020600020905b81548152906001019060200180831161246857829003601f168201915b5050505050905085565b61249f61249a6144ae565b61212e565b6124f4576040517f08c379a0000000000000000000000000000000000000000000000000000000008152600401808060200182810382526030815260200180614b166030913960400191505060405180910390fd5b6124fd816145ee565b50565b61251061250b6144ae565b61212e565b612565576040517f08c379a0000000000000000000000000000000000000000000000000000000008152600401808060200182810382526030815260200180614b166030913960400191505060405180910390fd5b600260009054906101000a900460ff16156125e8576040517f08c379a00000000000000000000000000000000000000000000000000000000081526004018080602001828103825260108152602001807f5061757361626c653a207061757365640000000000000000000000000000000081525060200191505060405180910390fd5b6001600260006101000a81548160ff0219169083151502179055507f62e78cea01bee320cd4e420270b5ea74000d11b0c9f74754ebdbfc544b05a25861262c6144ae565b604051808273ffffffffffffffffffffffffffffffffffffffff1673ffffffffffffffffffffffffffffffffffffffff16815260200191505060405180910390a1565b612677612b41565b6126e9576040517f08c379a00000000000000000000000000000000000000000000000000000000081526004018080602001828103825260208152602001807f4f776e61626c653a2063616c6c6572206973206e6f7420746865206f776e657281525060200191505060405180910390fd5b81600760008373ffffffffffffffffffffffffffffffffffffffff1673ffffffffffffffffffffffffffffffffffffffff16815260200190815260200160002060006101000a81548160ff0219169083151502179055505050565b60008060009054906101000a900473ffffffffffffffffffffffffffffffffffffffff16905090565b60011515600760003373ffffffffffffffffffffffffffffffffffffffff1673ffffffffffffffffffffffffffffffffffffffff16815260200190815260200160002060009054906101000a900460ff16151514612833576040517f08c379a00000000000000000000000000000000000000000000000000000000081526004018080602001828103825260148152602001807f6d65726368616e74206e6f7420616c6c6f77656400000000000000000000000081525060200191505060405180910390fd5b6000600560003373ffffffffffffffffffffffffffffffffffffffff1673ffffffffffffffffffffffffffffffffffffffff1681526020019081526020016000206000015414156128ec576040517f08c379a00000000000000000000000000000000000000000000000000000000081526004018080602001828103825260158152602001807f6d65726368616e74206e6f74206578697374656e74000000000000000000000081525060200191505060405180910390fd5b600260009054906101000a900460ff161561296f576040517f08c379a00000000000000000000000000000000000000000000000000000000081526004018080602001828103825260108152602001807f5061757361626c653a207061757365640000000000000000000000000000000081525060200191505060405180910390fd5b3373ffffffffffffffffffffffffffffffffffffffff166003600085815260200190815260200160002060010160009054906101000a900473ffffffffffffffffffffffffffffffffffffffff1673ffffffffffffffffffffffffffffffffffffffff1614612a29576040517f08c379a0000000000000000000000000000000000000000000000000000000008152600401808060200182810382526031815260200180614c4c6031913960400191505060405180910390fd5b806008600085815260200190815260200160002060008473ffffffffffffffffffffffffffffffffffffffff1673ffffffffffffffffffffffffffffffffffffffff16815260200190815260200160002060006101000a81548160ff0219169083151502179055507fab8a7127a45e8656fb62040878112606b7e3c1e7557a40a37ba7bcda26c24dce33848484604051808573ffffffffffffffffffffffffffffffffffffffff1673ffffffffffffffffffffffffffffffffffffffff1681526020018481526020018373ffffffffffffffffffffffffffffffffffffffff1673ffffffffffffffffffffffffffffffffffffffff1681526020018215151515815260200194505050505060405180910390a1505050565b60008060009054906101000a900473ffffffffffffffffffffffffffffffffffffffff1673ffffffffffffffffffffffffffffffffffffffff16612b836144ae565b73ffffffffffffffffffffffffffffffffffffffff1614905090565b6060600c805480602002602001604051908101604052809291908181526020018280548015612c2357602002820191906000526020600020905b8160009054906101000a900473ffffffffffffffffffffffffffffffffffffffff1673ffffffffffffffffffffffffffffffffffffffff1681526020019060010190808311612bd9575b5050505050905090565b60606000600a541415612c72576000604051908082528060200260200182016040528015612c6a5781602001602082028038833980820191505090505b509050612d11565b6060600a54604051908082528060200260200182016040528015612ca55781602001602082028038833980820191505090505b50905060008090506000600190505b600a548111612d0a578460046000838152602001908152602001600020600201541415612cfd5780838381518110612ce857fe5b60200260200101818152505081806001019250505b8080600101915050612cb4565b8293505050505b919050565b60011515600760003373ffffffffffffffffffffffffffffffffffffffff1673ffffffffffffffffffffffffffffffffffffffff16815260200190815260200160002060009054906101000a900460ff16151514612ddc576040517f08c379a00000000000000000000000000000000000000000000000000000000081526004018080602001828103825260148152602001807f6d65726368616e74206e6f7420616c6c6f77656400000000000000000000000081525060200191505060405180910390fd5b6000600560003373ffffffffffffffffffffffffffffffffffffffff1673ffffffffffffffffffffffffffffffffffffffff168152602001908152602001600020600001541415612e95576040517f08c379a00000000000000000000000000000000000000000000000000000000081526004018080602001828103825260158152602001807f6d65726368616e74206e6f74206578697374656e74000000000000000000000081525060200191505060405180910390fd5b600260009054906101000a900460ff1615612f18576040517f08c379a00000000000000000000000000000000000000000000000000000000081526004018080602001828103825260108152602001807f5061757361626c653a207061757365640000000000000000000000000000000081525060200191505060405180910390fd5b3373ffffffffffffffffffffffffffffffffffffffff166003600083815260200190815260200160002060010160009054906101000a900473ffffffffffffffffffffffffffffffffffffffff1673ffffffffffffffffffffffffffffffffffffffff161480612f8c5750612f8b612b41565b5b612fe1576040517f08c379a0000000000000000000000000000000000000000000000000000000008152600401808060200182810382526027815260200180614b6c6027913960400191505060405180910390fd5b82826003600084815260200190815260200160002060030191906130069291906149f2565b50505050565b600060011515600760003373ffffffffffffffffffffffffffffffffffffffff1673ffffffffffffffffffffffffffffffffffffffff16815260200190815260200160002060009054906101000a900460ff161515146130d4576040517f08c379a00000000000000000000000000000000000000000000000000000000081526004018080602001828103825260148152602001807f6d65726368616e74206e6f7420616c6c6f77656400000000000000000000000081525060200191505060405180910390fd5b6000600560003373ffffffffffffffffffffffffffffffffffffffff1673ffffffffffffffffffffffffffffffffffffffff16815260200190815260200160002060000154141561318d576040517f08c379a00000000000000000000000000000000000000000000000000000000081526004018080602001828103825260158152602001807f6d65726368616e74206e6f74206578697374656e74000000000000000000000081525060200191505060405180910390fd5b600260009054906101000a900460ff1615613210576040517f08c379a00000000000000000000000000000000000000000000000000000000081526004018080602001828103825260108152602001807f5061757361626c653a207061757365640000000000000000000000000000000081525060200191505060405180910390fd5b613218614a72565b6040518060a001604052804281526020013373ffffffffffffffffffffffffffffffffffffffff16815260200160011515815260200187878080601f016020809104026020016040519081016040528093929190818152602001838380828437600081840152601f19601f82011690508083019250505050505050815260200185858080601f016020809104026020016040519081016040528093929190818152602001838380828437600081840152601f19601f8201169050808301925050505050505081525090506132f8600160095461442690919063ffffffff16565b6009819055506133516001600b60003373ffffffffffffffffffffffffffffffffffffffff1673ffffffffffffffffffffffffffffffffffffffff1681526020019081526020016000205461442690919063ffffffff16565b600b60003373ffffffffffffffffffffffffffffffffffffffff1673ffffffffffffffffffffffffffffffffffffffff16815260200190815260200160002081905550806003600060095481526020019081526020016000206000820151816000015560208201518160010160006101000a81548173ffffffffffffffffffffffffffffffffffffffff021916908373ffffffffffffffffffffffffffffffffffffffff16021790555060408201518160010160146101000a81548160ff0219169083151502179055506060820151816002019080519060200190613437929190614972565b506080820151816003019080519060200190613454929190614972565b50905050600160086000600954815260200190815260200160002060003373ffffffffffffffffffffffffffffffffffffffff1673ffffffffffffffffffffffffffffffffffffffff16815260200190815260200160002060006101000a81548160ff0219169083151502179055507fb974717ac4a3b808af727862a1db5552b3943661e6d8ad5f56fc2fe3828a6ab233600954604051808373ffffffffffffffffffffffffffffffffffffffff1673ffffffffffffffffffffffffffffffffffffffff1681526020018281526020019250505060405180910390a1600954915050949350505050565b60086020528160005260406000206020528060005260406000206000915091509054906101000a900460ff1681565b613575612b41565b6135e7576040517f08c379a00000000000000000000000000000000000000000000000000000000081526004018080602001828103825260208152602001807f4f776e61626c653a2063616c6c6572206973206e6f7420746865206f776e657281525060200191505060405180910390fd5b811561362057826004600083815260200190815260200160002060010160146101000a81548160ff02191690831515021790555061364f565b826003600083815260200190815260200160002060010160146101000a81548160ff0219169083151502179055505b505050565b60011515600660009054906101000a900460ff161515141561371a5760011515600760003373ffffffffffffffffffffffffffffffffffffffff1673ffffffffffffffffffffffffffffffffffffffff16815260200190815260200160002060009054906101000a900460ff16151514613719576040517f08c379a000000000000000000000000000000000000000000000000000000000815260040180806020018281038252602b815260200180614bba602b913960400191505060405180910390fd5b5b6000600560003373ffffffffffffffffffffffffffffffffffffffff1673ffffffffffffffffffffffffffffffffffffffff16815260200190815260200160002060000154146137d2576040517f08c379a00000000000000000000000000000000000000000000000000000000081526004018080602001828103825260168152602001807f4475706c696361746573206e6f7420616c6c6f7765640000000000000000000081525060200191505060405180910390fd5b600260009054906101000a900460ff1615613855576040517f08c379a00000000000000000000000000000000000000000000000000000000081526004018080602001828103825260108152602001807f5061757361626c653a207061757365640000000000000000000000000000000081525060200191505060405180910390fd5b61385d614ab9565b604051806060016040528042815260200184848080601f016020809104026020016040519081016040528093929190818152602001838380828437600081840152601f19601f8201169050808301925050505050505081526020013373ffffffffffffffffffffffffffffffffffffffff16815250905080600560003373ffffffffffffffffffffffffffffffffffffffff1673ffffffffffffffffffffffffffffffffffffffff16815260200190815260200160002060008201518160000155602082015181600101908051906020019061393a929190614972565b5060408201518160020160006101000a81548173ffffffffffffffffffffffffffffffffffffffff021916908373ffffffffffffffffffffffffffffffffffffffff1602179055509050506001600760003373ffffffffffffffffffffffffffffffffffffffff1673ffffffffffffffffffffffffffffffffffffffff16815260200190815260200160002060006101000a81548160ff021916908315150217905550600c3390806001815401808255809150509060018203906000526020600020016000909192909190916101000a81548173ffffffffffffffffffffffffffffffffffffffff021916908373ffffffffffffffffffffffffffffffffffffffff160217905550507fb465630b27a35fed42f277bd1c89a110334670d97c1277c4455f55266862721833604051808273ffffffffffffffffffffffffffffffffffffffff1673ffffffffffffffffffffffffffffffffffffffff16815260200191505060405180910390a1505050565b613ab3612b41565b613b25576040517f08c379a00000000000000000000000000000000000000000000000000000000081526004018080602001828103825260208152602001807f4f776e61626c653a2063616c6c6572206973206e6f7420746865206f776e657281525060200191505060405180910390fd5b80600660006101000a81548160ff0219169083151502179055507fec01ceafe64702521dfd29c26f757c5dd1f11fdcdc44728ec08cbe3ef2cd243f81604051808215151515815260200191505060405180910390a150565b600b6020528060005260406000206000915090505481565b60011515600760003373ffffffffffffffffffffffffffffffffffffffff1673ffffffffffffffffffffffffffffffffffffffff16815260200190815260200160002060009054906101000a900460ff16151514613c5b576040517f08c379a00000000000000000000000000000000000000000000000000000000081526004018080602001828103825260148152602001807f6d65726368616e74206e6f7420616c6c6f77656400000000000000000000000081525060200191505060405180910390fd5b6000600560003373ffffffffffffffffffffffffffffffffffffffff1673ffffffffffffffffffffffffffffffffffffffff168152602001908152602001600020600001541415613d14576040517f08c379a00000000000000000000000000000000000000000000000000000000081526004018080602001828103825260158152602001807f6d65726368616e74206e6f74206578697374656e74000000000000000000000081525060200191505060405180910390fd5b600260009054906101000a900460ff1615613d97576040517f08c379a00000000000000000000000000000000000000000000000000000000081526004018080602001828103825260108152602001807f5061757361626c653a207061757365640000000000000000000000000000000081525060200191505060405180910390fd5b3373ffffffffffffffffffffffffffffffffffffffff166004600083815260200190815260200160002060010160009054906101000a900473ffffffffffffffffffffffffffffffffffffffff1673ffffffffffffffffffffffffffffffffffffffff161480613e0b5750613e0a612b41565b5b613e60576040517f08c379a0000000000000000000000000000000000000000000000000000000008152600401808060200182810382526024815260200180614be56024913960400191505060405180910390fd5b8282600460008481526020019081526020016000206004019190613e859291906149f2565b50505050565b6000600660009054906101000a900460ff16905090565b60008060008060608060046000888152602001908152602001600020600001546004600089815260200190815260200160002060010160009054906101000a900473ffffffffffffffffffffffffffffffffffffffff16600460008a815260200190815260200160002060010160149054906101000a900460ff16600460008b815260200190815260200160002060020154600460008c8152602001908152602001600020600301600460008d8152602001908152602001600020600401818054600181600116156101000203166002900480601f016020809104026020016040519081016040528092919081815260200182805460018160011615610100020316600290048015613ff55780601f10613fca57610100808354040283529160200191613ff5565b820191906000526020600020905b815481529060010190602001808311613fd857829003601f168201915b50505050509150808054600181600116156101000203166002900480601f0160208091040260200160405190810160405280929190818152602001828054600181600116156101000203166002900480156140915780601f1061406657610100808354040283529160200191614091565b820191906000526020600020905b81548152906001019060200180831161407457829003601f168201915b5050505050905095509550955095509550955091939550919395565b6140b5612b41565b614127576040517f08c379a00000000000000000000000000000000000000000000000000000000081526004018080602001828103825260208152602001807f4f776e61626c653a2063616c6c6572206973206e6f7420746865206f776e657281525060200191505060405180910390fd5b61413081614648565b50565b600080600060608060036000878152602001908152602001600020600001546003600088815260200190815260200160002060010160009054906101000a900473ffffffffffffffffffffffffffffffffffffffff166003600089815260200190815260200160002060010160149054906101000a900460ff16600360008a8152602001908152602001600020600201600360008b8152602001908152602001600020600301818054600181600116156101000203166002900480601f01602080910402602001604051908101604052809291908181526020018280546001816001161561010002031660029004801561426e5780601f106142435761010080835404028352916020019161426e565b820191906000526020600020905b81548152906001019060200180831161425157829003601f168201915b50505050509150808054600181600116156101000203166002900480601f01602080910402602001604051908101604052809291908181526020018280546001816001161561010002031660029004801561430a5780601f106142df5761010080835404028352916020019161430a565b820191906000526020600020905b8154815290600101906020018083116142ed57829003601f168201915b505050505090509450945094509450945091939590929450565b60076020528060005260406000206000915054906101000a900460ff1681565b6005602052806000526040600020600091509050806000015490806001018054600181600116156101000203166002900480601f0160208091040260200160405190810160405280929190818152602001828054600181600116156101000203166002900480156143f65780601f106143cb576101008083540402835291602001916143f6565b820191906000526020600020905b8154815290600101906020018083116143d957829003601f168201915b5050505050908060020160009054906101000a900473ffffffffffffffffffffffffffffffffffffffff16905083565b6000808284019050838110156144a4576040517f08c379a000000000000000000000000000000000000000000000000000000000815260040180806020018281038252601b8152602001807f536166654d6174683a206164646974696f6e206f766572666c6f77000000000081525060200191505060405180910390fd5b8091505092915050565b600033905090565b60008073ffffffffffffffffffffffffffffffffffffffff168273ffffffffffffffffffffffffffffffffffffffff16141561453d576040517f08c379a0000000000000000000000000000000000000000000000000000000008152600401808060200182810382526022815260200180614c2a6022913960400191505060405180910390fd5b8260000160008373ffffffffffffffffffffffffffffffffffffffff1673ffffffffffffffffffffffffffffffffffffffff16815260200190815260200160002060009054906101000a900460ff16905092915050565b6145a881600161478c90919063ffffffff16565b8073ffffffffffffffffffffffffffffffffffffffff167fcd265ebaf09df2871cc7bd4133404a235ba12eff2041bb89d9c714a2621c7c7e60405160405180910390a250565b61460281600161484990919063ffffffff16565b8073ffffffffffffffffffffffffffffffffffffffff167f6719d08c1888103bea251a4ed56406bd0c3e69723c8a1686e017e7bbe159b6f860405160405180910390a250565b600073ffffffffffffffffffffffffffffffffffffffff168173ffffffffffffffffffffffffffffffffffffffff1614156146ce576040517f08c379a0000000000000000000000000000000000000000000000000000000008152600401808060200182810382526026815260200180614b466026913960400191505060405180910390fd5b8073ffffffffffffffffffffffffffffffffffffffff166000809054906101000a900473ffffffffffffffffffffffffffffffffffffffff1673ffffffffffffffffffffffffffffffffffffffff167f8be0079c531659141344cd1fd0a4f28419497f9722a3daafe3b4186f6b6457e060405160405180910390a3806000806101000a81548173ffffffffffffffffffffffffffffffffffffffff021916908373ffffffffffffffffffffffffffffffffffffffff16021790555050565b61479682826144b6565b6147eb576040517f08c379a0000000000000000000000000000000000000000000000000000000008152600401808060200182810382526021815260200180614c096021913960400191505060405180910390fd5b60008260000160008373ffffffffffffffffffffffffffffffffffffffff1673ffffffffffffffffffffffffffffffffffffffff16815260200190815260200160002060006101000a81548160ff0219169083151502179055505050565b61485382826144b6565b156148c6576040517f08c379a000000000000000000000000000000000000000000000000000000000815260040180806020018281038252601f8152602001807f526f6c65733a206163636f756e7420616c72656164792068617320726f6c650081525060200191505060405180910390fd5b60018260000160008373ffffffffffffffffffffffffffffffffffffffff1673ffffffffffffffffffffffffffffffffffffffff16815260200190815260200160002060006101000a81548160ff0219169083151502179055505050565b6040518060c0016040528060008152602001600073ffffffffffffffffffffffffffffffffffffffff1681526020016000151581526020016000815260200160608152602001606081525090565b828054600181600116156101000203166002900490600052602060002090601f016020900481019282601f106149b357805160ff19168380011785556149e1565b828001600101855582156149e1579182015b828111156149e05782518255916020019190600101906149c5565b5b5090506149ee9190614af0565b5090565b828054600181600116156101000203166002900490600052602060002090601f016020900481019282601f10614a3357803560ff1916838001178555614a61565b82800160010185558215614a61579182015b82811115614a60578235825591602001919060010190614a45565b5b509050614a6e9190614af0565b5090565b6040518060a0016040528060008152602001600073ffffffffffffffffffffffffffffffffffffffff16815260200160001515815260200160608152602001606081525090565b60405180606001604052806000815260200160608152602001600073ffffffffffffffffffffffffffffffffffffffff1681525090565b614b1291905b80821115614b0e576000816000905550600101614af6565b5090565b9056fe506175736572526f6c653a2063616c6c657220646f6573206e6f742068617665207468652050617573657220726f6c654f776e61626c653a206e6577206f776e657220697320746865207a65726f20616464726573736f6e6c792074686520686973746f7279206f776e65722063616e206564697420746865205552496e6f7420616c6c6f77656420746f2065646974207468652070726f6475637420686973746f7279796f7520617265206e6f7420616c6c6f77656420746f206372656174652061206e6577206163636f756e746f6e6c79207468652073746570206f776e65722063616e20656469742074686520555249526f6c65733a206163636f756e7420646f6573206e6f74206861766520726f6c65526f6c65733a206163636f756e7420697320746865207a65726f20616464726573736f6e6c792074686520686973746f7279206f776e65722063616e20746f67676c65206f74686572206d65726368616e7473a265627a7a72315820a0facc9d733563016f83d8a857960021c9b54eae8d58cd8cdc352aa6c0dc4a1b64736f6c63430005110032526f6c65733a206163636f756e7420697320746865207a65726f2061646472657373",
  "source": "pragma solidity ^ 0.5.0;\n\nimport \"@openzeppelin/contracts/ownership/Ownable.sol\";\nimport \"@openzeppelin/contracts/lifecycle/Pausable.sol\";\nimport \"@openzeppelin/contracts/math/SafeMath.sol\";\n\n/// @title Devoleum\n/// @author Lorenzo Zaccagnini Elisa Romondia\n/// @notice You can use this contract for tracking your supply chain\n/// @dev All function calls are currently implemented without side effects\ncontract Devoleum is Ownable, Pausable {\n    using SafeMath\n    for uint256;\n\n    //STRUCT MAPPINGS\n    mapping(uint256 => History) public historyIdToHistoryInfo;\n\n    mapping(uint256 => Step) public stepIdToStepInfo;\n\n    mapping(address => Merchant) public addressToMerchant;\n\n    //PERMISSIONED TO SIGNUP\n    bool public signupPermissioned = true;\n\n    //PERMISSION\n    mapping(address => bool) public merchantPermission; //only for permissioned signup\n\n    mapping(uint256 => mapping(address => bool)) public historyIdToPermissionedMerchants;\n\n    //COUNTERS\n    uint256 public historiesCounter = 0;\n    uint256 private stepsCounter = 0;\n    mapping(address => uint256) public merchantAddressToHistoriesCounter;\n\n    //LISTS\n    address[] public merchantsList;\n\n    //MERCHANT SECTION\n    function getMerchantsList() external view returns(address[] memory) {\n        return merchantsList;\n    }\n\n    struct Merchant {\n        uint256 createdAt;\n        string URI;\n        address owner;\n    }\n\n    modifier isMerchantNotExistent() {\n        require(\n            addressToMerchant[msg.sender].createdAt == 0,\n            \"Duplicates not allowed\"\n        );\n        _;\n    }\n\n    modifier isSignupPermissioned() {\n        if (signupPermissioned == true) {\n            require(\n                merchantPermission[msg.sender] == true,\n                \"you are not allowed to create a new account\"\n            );\n        }\n        _;\n    }\n\n    modifier isMerchantEnabled() {\n        require(merchantPermission[msg.sender] == true, \"merchant not allowed\");\n        require(addressToMerchant[msg.sender].createdAt != 0, \"merchant not existent\");\n        _;\n    }\n\n    modifier isAllowedToAddStep(uint256 _id) {\n        require(historyIdToHistoryInfo[_id].enabled == true, \"history is not enabled\");\n        require(\n            historyIdToPermissionedMerchants[_id][msg.sender] == true,\n            \"not allowed to edit the product history\"\n        );\n        _;\n    }\n\n    event MerchantCreated(address _owner);\n\n    /// @notice Creates a Merchant profile\n    /// @param _URI The link to a JSON file\n    function createMerchant(\n        string calldata _URI\n    ) external isSignupPermissioned isMerchantNotExistent whenNotPaused {\n        Merchant memory newMerchant = Merchant(\n            now,\n            _URI,\n            msg.sender\n        );\n        addressToMerchant[msg.sender] = newMerchant;\n        merchantPermission[msg.sender] = true;\n        merchantsList.push(msg.sender);\n        emit MerchantCreated(msg.sender);\n    }\n\n    struct History {\n        uint256 createdAt;\n        address merchantAdr;\n        bool enabled;\n        string hashOfJson;\n        string URI;\n    }\n\n    event HistoryCreated(address _owner, uint256 _id);\n\n    /// @notice Creates an History\n    /// @param _hashOfJson The hash of the linked JSON file\n    /// @param _URI The link to a JSON file\n    /// @return The numeric ID of the history\n    function createHistory(\n        string calldata _hashOfJson,\n        string calldata _URI\n    ) external isMerchantEnabled whenNotPaused\n    returns(\n        uint256 historyID\n    ) {\n        History memory newHistory = History(\n            now,\n            msg.sender,\n            true,\n            _hashOfJson,\n            _URI\n        );\n        historiesCounter = historiesCounter.add(1);\n        merchantAddressToHistoriesCounter[msg\n            .sender] = merchantAddressToHistoriesCounter[msg.sender].add(1);\n        historyIdToHistoryInfo[historiesCounter] = newHistory;\n        historyIdToPermissionedMerchants[historiesCounter][msg.sender] = true;\n        emit HistoryCreated(msg.sender, historiesCounter);\n        return historiesCounter;\n    }\n\n    //STEP SECTION\n\n    struct Step {\n        uint256 createdAt;\n        address merchantAdr;\n        bool enabled;\n        uint256 historyID;\n        string hashOfJson;\n        string URI;\n    }\n\n    event StepCreated(address _owner, uint256 _id);\n\n    /// @notice Creates a Step\n    /// @param _historyID The numeric ID of the History\n    /// @param _hashOfJson The hash of the linked JSON file\n    /// @param _URI The link to a JSON file\n    /// @return The numeric ID of the Step\n    function createStep(\n        uint256 _historyID,\n        string calldata _hashOfJson,\n        string calldata _URI\n    ) external isMerchantEnabled whenNotPaused isAllowedToAddStep(_historyID)\n    returns(\n        uint256 stepID\n    ) {\n        Step memory newStep = Step(\n            now,\n            msg.sender,\n            true,\n            _historyID,\n            _hashOfJson,\n            _URI\n        );\n        stepsCounter = stepsCounter.add(1);\n        stepIdToStepInfo[stepsCounter] = newStep;\n        emit StepCreated(msg.sender, stepsCounter);\n        return stepsCounter;\n    }\n\n    event MerchantToggled(\n        address _owner,\n        uint256 _historyID,\n        address _target,\n        bool _isEnabled\n    );\n\n    /// @notice Allow or disable other merchants to add steps\n    /// @param _historyID The numeric ID of the History\n    /// @param _target Merchant address\n    /// @param _toggle Allow or disable\n    function toggleHistoryMerchant(\n        uint256 _historyID,\n        address _target,\n        bool _toggle\n    ) external isMerchantEnabled whenNotPaused {\n        require(\n            historyIdToHistoryInfo[_historyID].merchantAdr == msg.sender,\n            \"only the history owner can toggle other merchants\"\n        );\n        historyIdToPermissionedMerchants[_historyID][_target] = _toggle;\n        emit MerchantToggled(msg.sender, _historyID, _target, _toggle);\n    }\n\n    // GETTERS SECTION\n    function getMerchantInfo(address _merchantAdr)\n    external\n    view\n    returns(\n        uint256 createdAt,\n        string memory URI,\n        address owner\n    ) {\n        return (\n            addressToMerchant[_merchantAdr].createdAt,\n            addressToMerchant[_merchantAdr].URI,\n            addressToMerchant[_merchantAdr].owner\n        );\n    }\n\n    /// @notice Get the History Info by a given ID\n    /// @param _id The numeric ID of the History\n    /// @return the History Info\n    function getHistoryInfo(uint256 _id)\n    external\n    view\n    returns(\n        uint256 createdAt,\n        address merchantAdr,\n        bool enabled,\n        string memory hashOfJson,\n        string memory URI\n    ) {\n        return (\n            historyIdToHistoryInfo[_id].createdAt,\n            historyIdToHistoryInfo[_id].merchantAdr,\n            historyIdToHistoryInfo[_id].enabled,\n            historyIdToHistoryInfo[_id].hashOfJson,\n            historyIdToHistoryInfo[_id].URI\n        );\n    }\n\n    /// @notice Get the Step Info by a given ID\n    /// @param _id The numeric ID of the Step\n    /// @return the Step Info\n    function getStepInfo(uint256 _id)\n    external\n    view\n    returns(\n        uint256 createdAt,\n        address merchantAdr,\n        bool enabled,\n        uint256 historyID,\n        string memory hashOfJson,\n        string memory URI\n    ) {\n        return (\n            stepIdToStepInfo[_id].createdAt,\n            stepIdToStepInfo[_id].merchantAdr,\n            stepIdToStepInfo[_id].enabled,\n            stepIdToStepInfo[_id].historyID,\n            stepIdToStepInfo[_id].hashOfJson,\n            stepIdToStepInfo[_id].URI\n        );\n    }\n\n    /// @notice Get the Histories ID Of a Merchant\n    /// @param _owner Merchant address\n    /// @return the Histories ID Of a Merchant\n    function historiesOfMerchant(address _owner)\n    external\n    view\n    returns(uint256[] memory ownerHistories) {\n        if (historiesCounter == 0) {\n            return new uint256[](0);\n        } else {\n            uint256[] memory result = new uint256[](historiesCounter);\n            uint256 resultIndex = 0;\n            uint256 itemId;\n\n            for (itemId = 1; itemId <= historiesCounter; itemId++) {\n                if (historyIdToHistoryInfo[itemId].merchantAdr == _owner) {\n                    result[resultIndex] = itemId;\n                    resultIndex++;\n                }\n            }\n\n            return result;\n        }\n    }\n\n    /// @notice Get the steps ID Of an History\n    /// @param _historyID The numeric ID of the History\n    /// @return the steps ID Of an History\n    function stepsOfHistory(uint256 _historyID)\n    external\n    view\n    returns(uint256[] memory ownerHistories) {\n        if (stepsCounter == 0) {\n            return new uint256[](0);\n        } else {\n            uint256[] memory result = new uint256[](stepsCounter);\n            uint256 resultIndex = 0;\n            uint256 itemId;\n\n            for (itemId = 1; itemId <= stepsCounter; itemId++) {\n                if (stepIdToStepInfo[itemId].historyID == _historyID) {\n                    result[resultIndex] = itemId;\n                    resultIndex++;\n                }\n            }\n\n            return result;\n        }\n    }\n\n    //OWNER SECTION\n\n    event changePermissioned(bool _permissioned);\n\n    /// @notice get if Signup is permissioned\n    /// @return if Signup is permissioned\n    function getPermissionedStatus()\n    external\n    view\n    returns(bool _signupPermissioned) {\n        return signupPermissioned;\n    }\n\n    /// @notice Toggle Signup permission\n    /// @param _permissioned Toggle permission\n    function toggleSignupPermissioned(bool _permissioned) external onlyOwner() {\n        signupPermissioned = _permissioned;\n        emit changePermissioned(_permissioned);\n    }\n\n    /// @notice Toggle Merchant permission\n    /// @param _permission Toggle permission\n    /// @param _target The target address\n    function toggleMerchantPermission(bool _permission, address _target)\n    external\n    onlyOwner() {\n        merchantPermission[_target] = _permission;\n    }\n\n    /// @notice This function disable or enable an asset\n    /// @param _permission Toggle permission\n    /// @param _isStep Is this a Step? If false it's an History\n    /// @param _id  The numeric ID of the History or Step\n    function toggleAsset(\n        bool _permission,\n        bool _isStep,\n        uint256 _id\n    ) external onlyOwner() {\n        if (_isStep) {\n            stepIdToStepInfo[_id].enabled = _permission;\n        } else {\n            historyIdToHistoryInfo[_id].enabled = _permission;\n        }\n    }\n\n    /// @notice This function edits the Merchant JSON link\n    /// @param _URI The link to a JSON file\n    function editMerchURI(string calldata _URI) external isMerchantEnabled whenNotPaused {\n        addressToMerchant[msg.sender].URI = _URI;\n    }\n\n    /// @notice This function edits the History JSON link\n    /// @param _URI The link to a JSON file\n    /// @param _id The numeric ID of the History\n    function editHistoryURI(string calldata _URI, uint256 _id) external isMerchantEnabled whenNotPaused {\n        require(historyIdToHistoryInfo[_id].merchantAdr == msg.sender || isOwner(), \"only the history owner can edit the URI\");\n        historyIdToHistoryInfo[_id].URI = _URI;\n    }\n    /// @notice This function edits the Step JSON link\n    /// @param _URI The link to a JSON file\n    /// @param _id The numeric ID of the Step\n    function editStepURI(string calldata _URI, uint256 _id) external isMerchantEnabled whenNotPaused {\n        require(stepIdToStepInfo[_id].merchantAdr == msg.sender || isOwner(), \"only the step owner can edit the URI\");\n        stepIdToStepInfo[_id].URI = _URI;\n    }\n}\n",
  "sourcePath": "/Users/lorenzozaccagnini/Desktop/react-devoleum-collabs/contracts/Devoleum.sol",
  "compiler": {
    "name": "solc",
    "version": "0.5.17+commit.d19bba13.Emscripten.clang"
  },
  "schemaVersion": "3.2.1",
  "updatedAt": "2020-09-15T16:35:20.210Z",
  "networkType": "ethereum",
  "devdoc": {
    "author": "Lorenzo Zaccagnini Elisa Romondia",
    "details": "All function calls are currently implemented without side effects",
    "methods": {
      "createHistory(string,string)": {
        "params": {
          "_URI": "The link to a JSON file",
          "_hashOfJson": "The hash of the linked JSON file"
        },
        "return": "The numeric ID of the history"
      },
      "createMerchant(string)": {
        "params": {
          "_URI": "The link to a JSON file"
        }
      },
      "createStep(uint256,string,string)": {
        "params": {
          "_URI": "The link to a JSON file",
          "_hashOfJson": "The hash of the linked JSON file",
          "_historyID": "The numeric ID of the History"
        },
        "return": "The numeric ID of the Step"
      },
      "editHistoryURI(string,uint256)": {
        "params": {
          "_URI": "The link to a JSON file",
          "_id": "The numeric ID of the History"
        }
      },
      "editMerchURI(string)": {
        "params": {
          "_URI": "The link to a JSON file"
        }
      },
      "editStepURI(string,uint256)": {
        "params": {
          "_URI": "The link to a JSON file",
          "_id": "The numeric ID of the Step"
        }
      },
      "getHistoryInfo(uint256)": {
        "params": {
          "_id": "The numeric ID of the History"
        },
        "return": "the History Info"
      },
      "getPermissionedStatus()": {
        "return": "if Signup is permissioned"
      },
      "getStepInfo(uint256)": {
        "params": {
          "_id": "The numeric ID of the Step"
        },
        "return": "the Step Info"
      },
      "historiesOfMerchant(address)": {
        "params": {
          "_owner": "Merchant address"
        },
        "return": "the Histories ID Of a Merchant"
      },
      "isOwner()": {
        "details": "Returns true if the caller is the current owner."
      },
      "owner()": {
        "details": "Returns the address of the current owner."
      },
      "pause()": {
        "details": "Called by a pauser to pause, triggers stopped state."
      },
      "paused()": {
        "details": "Returns true if the contract is paused, and false otherwise."
      },
      "renounceOwnership()": {
        "details": "Leaves the contract without owner. It will not be possible to call `onlyOwner` functions anymore. Can only be called by the current owner.     * NOTE: Renouncing ownership will leave the contract without an owner, thereby removing any functionality that is only available to the owner."
      },
      "stepsOfHistory(uint256)": {
        "params": {
          "_historyID": "The numeric ID of the History"
        },
        "return": "the steps ID Of an History"
      },
      "toggleAsset(bool,bool,uint256)": {
        "params": {
          "_id": "The numeric ID of the History or Step",
          "_isStep": "Is this a Step? If false it's an History",
          "_permission": "Toggle permission"
        }
      },
      "toggleHistoryMerchant(uint256,address,bool)": {
        "params": {
          "_historyID": "The numeric ID of the History",
          "_target": "Merchant address",
          "_toggle": "Allow or disable"
        }
      },
      "toggleMerchantPermission(bool,address)": {
        "params": {
          "_permission": "Toggle permission",
          "_target": "The target address"
        }
      },
      "toggleSignupPermissioned(bool)": {
        "params": {
          "_permissioned": "Toggle permission"
        }
      },
      "transferOwnership(address)": {
        "details": "Transfers ownership of the contract to a new account (`newOwner`). Can only be called by the current owner."
      },
      "unpause()": {
        "details": "Called by a pauser to unpause, returns to normal state."
      }
    },
    "title": "Devoleum"
  },
  "userdoc": {
    "methods": {
      "createHistory(string,string)": {
        "notice": "Creates an History"
      },
      "createMerchant(string)": {
        "notice": "Creates a Merchant profile"
      },
      "createStep(uint256,string,string)": {
        "notice": "Creates a Step"
      },
      "editHistoryURI(string,uint256)": {
        "notice": "This function edits the History JSON link"
      },
      "editMerchURI(string)": {
        "notice": "This function edits the Merchant JSON link"
      },
      "editStepURI(string,uint256)": {
        "notice": "This function edits the Step JSON link"
      },
      "getHistoryInfo(uint256)": {
        "notice": "Get the History Info by a given ID"
      },
      "getPermissionedStatus()": {
        "notice": "get if Signup is permissioned"
      },
      "getStepInfo(uint256)": {
        "notice": "Get the Step Info by a given ID"
      },
      "historiesOfMerchant(address)": {
        "notice": "Get the Histories ID Of a Merchant"
      },
      "stepsOfHistory(uint256)": {
        "notice": "Get the steps ID Of an History"
      },
      "toggleAsset(bool,bool,uint256)": {
        "notice": "This function disable or enable an asset"
      },
      "toggleHistoryMerchant(uint256,address,bool)": {
        "notice": "Allow or disable other merchants to add steps"
      },
      "toggleMerchantPermission(bool,address)": {
        "notice": "Toggle Merchant permission"
      },
      "toggleSignupPermissioned(bool)": {
        "notice": "Toggle Signup permission"
      }
    },
    "notice": "You can use this contract for tracking your supply chain"
  }
}