{
  "contractName": "Devoleum",
  "abi": [
    {
      "anonymous": false,
      "inputs": [
        {
          "indexed": false,
          "internalType": "address",
          "name": "_owner",
          "type": "address"
        },
        {
          "indexed": false,
          "internalType": "uint256",
          "name": "_id",
          "type": "uint256"
        }
      ],
      "name": "HistoryCreated",
      "type": "event"
    },
    {
      "anonymous": false,
      "inputs": [
        {
          "indexed": false,
          "internalType": "address",
          "name": "_owner",
          "type": "address"
        }
      ],
      "name": "MerchantCreated",
      "type": "event"
    },
    {
      "anonymous": false,
      "inputs": [
        {
          "indexed": false,
          "internalType": "address",
          "name": "_owner",
          "type": "address"
        },
        {
          "indexed": false,
          "internalType": "uint256",
          "name": "_historyID",
          "type": "uint256"
        },
        {
          "indexed": false,
          "internalType": "address",
          "name": "_target",
          "type": "address"
        },
        {
          "indexed": false,
          "internalType": "bool",
          "name": "_isEnabled",
          "type": "bool"
        }
      ],
      "name": "MerchantToggled",
      "type": "event"
    },
    {
      "anonymous": false,
      "inputs": [
        {
          "indexed": true,
          "internalType": "address",
          "name": "previousOwner",
          "type": "address"
        },
        {
          "indexed": true,
          "internalType": "address",
          "name": "newOwner",
          "type": "address"
        }
      ],
      "name": "OwnershipTransferred",
      "type": "event"
    },
    {
      "anonymous": false,
      "inputs": [
        {
          "indexed": false,
          "internalType": "address",
          "name": "account",
          "type": "address"
        }
      ],
      "name": "Paused",
      "type": "event"
    },
    {
      "anonymous": false,
      "inputs": [
        {
          "indexed": true,
          "internalType": "address",
          "name": "account",
          "type": "address"
        }
      ],
      "name": "PauserAdded",
      "type": "event"
    },
    {
      "anonymous": false,
      "inputs": [
        {
          "indexed": true,
          "internalType": "address",
          "name": "account",
          "type": "address"
        }
      ],
      "name": "PauserRemoved",
      "type": "event"
    },
    {
      "anonymous": false,
      "inputs": [
        {
          "indexed": false,
          "internalType": "address",
          "name": "_owner",
          "type": "address"
        },
        {
          "indexed": false,
          "internalType": "uint256",
          "name": "_id",
          "type": "uint256"
        }
      ],
      "name": "StepCreated",
      "type": "event"
    },
    {
      "anonymous": false,
      "inputs": [
        {
          "indexed": false,
          "internalType": "address",
          "name": "account",
          "type": "address"
        }
      ],
      "name": "Unpaused",
      "type": "event"
    },
    {
      "constant": false,
      "inputs": [
        {
          "internalType": "address",
          "name": "account",
          "type": "address"
        }
      ],
      "name": "addPauser",
      "outputs": [],
      "payable": false,
      "stateMutability": "nonpayable",
      "type": "function"
    },
    {
      "constant": true,
      "inputs": [
        {
          "internalType": "address",
          "name": "",
          "type": "address"
        }
      ],
      "name": "addressToMerchant",
      "outputs": [
        {
          "internalType": "uint256",
          "name": "createdAt",
          "type": "uint256"
        },
        {
          "internalType": "string",
          "name": "name",
          "type": "string"
        },
        {
          "internalType": "string",
          "name": "category",
          "type": "string"
        },
        {
          "internalType": "string",
          "name": "websiteUrl",
          "type": "string"
        },
        {
          "internalType": "bool",
          "name": "enabled",
          "type": "bool"
        },
        {
          "internalType": "string",
          "name": "URI",
          "type": "string"
        },
        {
          "internalType": "address",
          "name": "owner",
          "type": "address"
        }
      ],
      "payable": false,
      "stateMutability": "view",
      "type": "function"
    },
    {
      "constant": true,
      "inputs": [],
      "name": "historiesCounter",
      "outputs": [
        {
          "internalType": "uint256",
          "name": "",
          "type": "uint256"
        }
      ],
      "payable": false,
      "stateMutability": "view",
      "type": "function"
    },
    {
      "constant": true,
      "inputs": [
        {
          "internalType": "uint256",
          "name": "",
          "type": "uint256"
        }
      ],
      "name": "historyIdToHistoryInfo",
      "outputs": [
        {
          "internalType": "uint256",
          "name": "createdAt",
          "type": "uint256"
        },
        {
          "internalType": "address",
          "name": "merchantAdr",
          "type": "address"
        },
        {
          "internalType": "bool",
          "name": "enabled",
          "type": "bool"
        },
        {
          "internalType": "string",
          "name": "category",
          "type": "string"
        },
        {
          "internalType": "string",
          "name": "hashOfJson",
          "type": "string"
        },
        {
          "internalType": "string",
          "name": "URI",
          "type": "string"
        }
      ],
      "payable": false,
      "stateMutability": "view",
      "type": "function"
    },
    {
      "constant": true,
      "inputs": [
        {
          "internalType": "uint256",
          "name": "",
          "type": "uint256"
        },
        {
          "internalType": "address",
          "name": "",
          "type": "address"
        }
      ],
      "name": "historyIdToPermissionedMerchants",
      "outputs": [
        {
          "internalType": "bool",
          "name": "",
          "type": "bool"
        }
      ],
      "payable": false,
      "stateMutability": "view",
      "type": "function"
    },
    {
      "constant": true,
      "inputs": [],
      "name": "isOwner",
      "outputs": [
        {
          "internalType": "bool",
          "name": "",
          "type": "bool"
        }
      ],
      "payable": false,
      "stateMutability": "view",
      "type": "function"
    },
    {
      "constant": true,
      "inputs": [
        {
          "internalType": "address",
          "name": "account",
          "type": "address"
        }
      ],
      "name": "isPauser",
      "outputs": [
        {
          "internalType": "bool",
          "name": "",
          "type": "bool"
        }
      ],
      "payable": false,
      "stateMutability": "view",
      "type": "function"
    },
    {
      "constant": true,
      "inputs": [
        {
          "internalType": "address",
          "name": "",
          "type": "address"
        }
      ],
      "name": "merchantAddressToHistoriesCounter",
      "outputs": [
        {
          "internalType": "uint256",
          "name": "",
          "type": "uint256"
        }
      ],
      "payable": false,
      "stateMutability": "view",
      "type": "function"
    },
    {
      "constant": true,
      "inputs": [
        {
          "internalType": "uint256",
          "name": "",
          "type": "uint256"
        }
      ],
      "name": "merchantsList",
      "outputs": [
        {
          "internalType": "address",
          "name": "",
          "type": "address"
        }
      ],
      "payable": false,
      "stateMutability": "view",
      "type": "function"
    },
    {
      "constant": true,
      "inputs": [],
      "name": "owner",
      "outputs": [
        {
          "internalType": "address",
          "name": "",
          "type": "address"
        }
      ],
      "payable": false,
      "stateMutability": "view",
      "type": "function"
    },
    {
      "constant": false,
      "inputs": [],
      "name": "pause",
      "outputs": [],
      "payable": false,
      "stateMutability": "nonpayable",
      "type": "function"
    },
    {
      "constant": true,
      "inputs": [],
      "name": "paused",
      "outputs": [
        {
          "internalType": "bool",
          "name": "",
          "type": "bool"
        }
      ],
      "payable": false,
      "stateMutability": "view",
      "type": "function"
    },
    {
      "constant": false,
      "inputs": [],
      "name": "renounceOwnership",
      "outputs": [],
      "payable": false,
      "stateMutability": "nonpayable",
      "type": "function"
    },
    {
      "constant": false,
      "inputs": [],
      "name": "renouncePauser",
      "outputs": [],
      "payable": false,
      "stateMutability": "nonpayable",
      "type": "function"
    },
    {
      "constant": true,
      "inputs": [
        {
          "internalType": "uint256",
          "name": "",
          "type": "uint256"
        }
      ],
      "name": "stepIdToStepInfo",
      "outputs": [
        {
          "internalType": "uint256",
          "name": "createdAt",
          "type": "uint256"
        },
        {
          "internalType": "address",
          "name": "merchantAdr",
          "type": "address"
        },
        {
          "internalType": "bool",
          "name": "enabled",
          "type": "bool"
        },
        {
          "internalType": "uint256",
          "name": "historyID",
          "type": "uint256"
        },
        {
          "internalType": "string",
          "name": "hashOfJson",
          "type": "string"
        },
        {
          "internalType": "string",
          "name": "URI",
          "type": "string"
        }
      ],
      "payable": false,
      "stateMutability": "view",
      "type": "function"
    },
    {
      "constant": false,
      "inputs": [
        {
          "internalType": "address",
          "name": "newOwner",
          "type": "address"
        }
      ],
      "name": "transferOwnership",
      "outputs": [],
      "payable": false,
      "stateMutability": "nonpayable",
      "type": "function"
    },
    {
      "constant": false,
      "inputs": [],
      "name": "unpause",
      "outputs": [],
      "payable": false,
      "stateMutability": "nonpayable",
      "type": "function"
    },
    {
      "constant": true,
      "inputs": [],
      "name": "getMerchantsList",
      "outputs": [
        {
          "internalType": "address[]",
          "name": "",
          "type": "address[]"
        }
      ],
      "payable": false,
      "stateMutability": "view",
      "type": "function"
    },
    {
      "constant": false,
      "inputs": [
        {
          "internalType": "string",
          "name": "_name",
          "type": "string"
        },
        {
          "internalType": "string",
          "name": "_category",
          "type": "string"
        },
        {
          "internalType": "string",
          "name": "_websiteUrl",
          "type": "string"
        },
        {
          "internalType": "string",
          "name": "_URI",
          "type": "string"
        }
      ],
      "name": "createMerchant",
      "outputs": [],
      "payable": false,
      "stateMutability": "nonpayable",
      "type": "function"
    },
    {
      "constant": false,
      "inputs": [
        {
          "internalType": "string",
          "name": "_category",
          "type": "string"
        },
        {
          "internalType": "string",
          "name": "_hashOfJson",
          "type": "string"
        },
        {
          "internalType": "string",
          "name": "_URI",
          "type": "string"
        }
      ],
      "name": "createHistory",
      "outputs": [],
      "payable": false,
      "stateMutability": "nonpayable",
      "type": "function"
    },
    {
      "constant": false,
      "inputs": [
        {
          "internalType": "uint256",
          "name": "_historyID",
          "type": "uint256"
        },
        {
          "internalType": "string",
          "name": "_hashOfJson",
          "type": "string"
        },
        {
          "internalType": "string",
          "name": "_URI",
          "type": "string"
        }
      ],
      "name": "createStep",
      "outputs": [],
      "payable": false,
      "stateMutability": "nonpayable",
      "type": "function"
    },
    {
      "constant": false,
      "inputs": [
        {
          "internalType": "uint256",
          "name": "_historyID",
          "type": "uint256"
        },
        {
          "internalType": "address",
          "name": "_target",
          "type": "address"
        },
        {
          "internalType": "bool",
          "name": "_toggle",
          "type": "bool"
        }
      ],
      "name": "toggleHistoryMerchant",
      "outputs": [],
      "payable": false,
      "stateMutability": "nonpayable",
      "type": "function"
    },
    {
      "constant": true,
      "inputs": [
        {
          "internalType": "address",
          "name": "_merchantAdr",
          "type": "address"
        }
      ],
      "name": "getMerchantInfo",
      "outputs": [
        {
          "internalType": "uint256",
          "name": "createdAt",
          "type": "uint256"
        },
        {
          "internalType": "string",
          "name": "merchantName",
          "type": "string"
        },
        {
          "internalType": "string",
          "name": "category",
          "type": "string"
        },
        {
          "internalType": "string",
          "name": "websiteUrl",
          "type": "string"
        },
        {
          "internalType": "bool",
          "name": "enabled",
          "type": "bool"
        },
        {
          "internalType": "string",
          "name": "URI",
          "type": "string"
        },
        {
          "internalType": "address",
          "name": "owner",
          "type": "address"
        }
      ],
      "payable": false,
      "stateMutability": "view",
      "type": "function"
    },
    {
      "constant": true,
      "inputs": [
        {
          "internalType": "uint256",
          "name": "_id",
          "type": "uint256"
        }
      ],
      "name": "getHistoryInfo",
      "outputs": [
        {
          "internalType": "uint256",
          "name": "createdAt",
          "type": "uint256"
        },
        {
          "internalType": "address",
          "name": "merchantAdr",
          "type": "address"
        },
        {
          "internalType": "bool",
          "name": "enabled",
          "type": "bool"
        },
        {
          "internalType": "string",
          "name": "category",
          "type": "string"
        },
        {
          "internalType": "string",
          "name": "hashOfJson",
          "type": "string"
        },
        {
          "internalType": "string",
          "name": "URI",
          "type": "string"
        }
      ],
      "payable": false,
      "stateMutability": "view",
      "type": "function"
    },
    {
      "constant": true,
      "inputs": [
        {
          "internalType": "uint256",
          "name": "_id",
          "type": "uint256"
        }
      ],
      "name": "getStepInfo",
      "outputs": [
        {
          "internalType": "uint256",
          "name": "createdAt",
          "type": "uint256"
        },
        {
          "internalType": "address",
          "name": "merchantAdr",
          "type": "address"
        },
        {
          "internalType": "bool",
          "name": "enabled",
          "type": "bool"
        },
        {
          "internalType": "uint256",
          "name": "historyID",
          "type": "uint256"
        },
        {
          "internalType": "string",
          "name": "hashOfJson",
          "type": "string"
        },
        {
          "internalType": "string",
          "name": "URI",
          "type": "string"
        }
      ],
      "payable": false,
      "stateMutability": "view",
      "type": "function"
    },
    {
      "constant": true,
      "inputs": [
        {
          "internalType": "address",
          "name": "_owner",
          "type": "address"
        }
      ],
      "name": "historiesOfMerchant",
      "outputs": [
        {
          "internalType": "uint256[]",
          "name": "ownerHistories",
          "type": "uint256[]"
        }
      ],
      "payable": false,
      "stateMutability": "view",
      "type": "function"
    },
    {
      "constant": true,
      "inputs": [
        {
          "internalType": "string",
          "name": "_category",
          "type": "string"
        }
      ],
      "name": "historiesOfCategory",
      "outputs": [
        {
          "internalType": "uint256[]",
          "name": "ownerHistories",
          "type": "uint256[]"
        }
      ],
      "payable": false,
      "stateMutability": "view",
      "type": "function"
    },
    {
      "constant": true,
      "inputs": [
        {
          "internalType": "uint256",
          "name": "_historyID",
          "type": "uint256"
        }
      ],
      "name": "stepsOfHistory",
      "outputs": [
        {
          "internalType": "uint256[]",
          "name": "ownerHistories",
          "type": "uint256[]"
        }
      ],
      "payable": false,
      "stateMutability": "view",
      "type": "function"
    }
  ],
  "bytecode": "0x608060405260006007556000600855600062000020620000ff60201b60201c565b9050806000806101000a81548173ffffffffffffffffffffffffffffffffffffffff021916908373ffffffffffffffffffffffffffffffffffffffff1602179055508073ffffffffffffffffffffffffffffffffffffffff16600073ffffffffffffffffffffffffffffffffffffffff167f8be0079c531659141344cd1fd0a4f28419497f9722a3daafe3b4186f6b6457e060405160405180910390a350620000de620000d2620000ff60201b60201c565b6200010760201b60201c565b6000600260006101000a81548160ff0219169083151502179055506200032c565b600033905090565b620001228160016200016860201b620044eb1790919060201c565b8073ffffffffffffffffffffffffffffffffffffffff167f6719d08c1888103bea251a4ed56406bd0c3e69723c8a1686e017e7bbe159b6f860405160405180910390a250565b6200017a82826200024c60201b60201c565b15620001ee576040517f08c379a000000000000000000000000000000000000000000000000000000000815260040180806020018281038252601f8152602001807f526f6c65733a206163636f756e7420616c72656164792068617320726f6c650081525060200191505060405180910390fd5b60018260000160008373ffffffffffffffffffffffffffffffffffffffff1673ffffffffffffffffffffffffffffffffffffffff16815260200190815260200160002060006101000a81548160ff0219169083151502179055505050565b60008073ffffffffffffffffffffffffffffffffffffffff168273ffffffffffffffffffffffffffffffffffffffff161415620002d5576040517f08c379a000000000000000000000000000000000000000000000000000000000815260040180806020018281038252602281526020018062004bbe6022913960400191505060405180910390fd5b8260000160008373ffffffffffffffffffffffffffffffffffffffff1673ffffffffffffffffffffffffffffffffffffffff16815260200190815260200160002060009054906101000a900460ff16905092915050565b614882806200033c6000396000f3fe608060405234801561001057600080fd5b50600436106101c45760003560e01c806382dc1ec4116100f9578063b5d5530511610097578063ee614f4e11610071578063ee614f4e14610fe8578063f2fde38b14611147578063f426dc091461118b578063fce173751461134f576101c4565b8063b5d5530514610db2578063c602ab0e14610e18578063c795fd9714610e70576101c4565b80638ecd588d116100d35780638ecd588d14610c545780638f32d59b14610cae5780639205946814610cd057806392781ef614610d2f576101c4565b806382dc1ec414610bbc5780638456cb5914610c005780638da5cb5b14610c0a576101c4565b80633f4ba83a116101665780636ef8d66d116101405780636ef8d66d14610976578063715018a61461098057806375fb3cbc1461098a578063820cb102146109f8576101c4565b80633f4ba83a146108ee57806346fbf68e146108f85780635c975abb14610954576101c4565b80631acf2eab116101a25780631acf2eab1461064657806320c2e13a146106645780633704b0d3146106fd57806339b314c4146107cb576101c4565b806301ca1592146101c95780630e733ef1146103285780630fe1e1ef1461056e575b600080fd5b6101f5600480360360208110156101df57600080fd5b8101908080359060200190929190505050611595565b604051808781526020018673ffffffffffffffffffffffffffffffffffffffff1673ffffffffffffffffffffffffffffffffffffffff168152602001851515151581526020018481526020018060200180602001838103835285818151815260200191508051906020019080838360005b83811015610281578082015181840152602081019050610266565b50505050905090810190601f1680156102ae5780820380516001836020036101000a031916815260200191505b50838103825284818151815260200191508051906020019080838360005b838110156102e75780820151818401526020810190506102cc565b50505050905090810190601f1680156103145780820380516001836020036101000a031916815260200191505b509850505050505050505060405180910390f35b61036a6004803603602081101561033e57600080fd5b81019080803573ffffffffffffffffffffffffffffffffffffffff16906020019092919050505061172e565b6040518088815260200180602001806020018060200187151515158152602001806020018673ffffffffffffffffffffffffffffffffffffffff1673ffffffffffffffffffffffffffffffffffffffff16815260200185810385528b818151815260200191508051906020019080838360005b838110156103f85780820151818401526020810190506103dd565b50505050905090810190601f1680156104255780820380516001836020036101000a031916815260200191505b5085810384528a818151815260200191508051906020019080838360005b8381101561045e578082015181840152602081019050610443565b50505050905090810190601f16801561048b5780820380516001836020036101000a031916815260200191505b50858103835289818151815260200191508051906020019080838360005b838110156104c45780820151818401526020810190506104a9565b50505050905090810190601f1680156104f15780820380516001836020036101000a031916815260200191505b50858103825287818151815260200191508051906020019080838360005b8381101561052a57808201518184015260208101905061050f565b50505050905090810190601f1680156105575780820380516001836020036101000a031916815260200191505b509b50505050505050505050505060405180910390f35b6106446004803603606081101561058457600080fd5b8101908080359060200190929190803590602001906401000000008111156105ab57600080fd5b8201836020820111156105bd57600080fd5b803590602001918460018302840111640100000000831117156105df57600080fd5b90919293919293908035906020019064010000000081111561060057600080fd5b82018360208201111561061257600080fd5b8035906020019184600183028401116401000000008311171561063457600080fd5b9091929391929390505050611bc2565b005b61064e612001565b6040518082815260200191505060405180910390f35b6106a66004803603602081101561067a57600080fd5b81019080803573ffffffffffffffffffffffffffffffffffffffff169060200190929190505050612007565b6040518080602001828103825283818151815260200191508051906020019060200280838360005b838110156106e95780820151818401526020810190506106ce565b505050509050019250505060405180910390f35b6107746004803603602081101561071357600080fd5b810190808035906020019064010000000081111561073057600080fd5b82018360208201111561074257600080fd5b8035906020019184600183028401116401000000008311171561076457600080fd5b909192939192939050505061213c565b6040518080602001828103825283818151815260200191508051906020019060200280838360005b838110156107b757808201518184015260208101905061079c565b505050509050019250505060405180910390f35b6108ec600480360360608110156107e157600080fd5b81019080803590602001906401000000008111156107fe57600080fd5b82018360208201111561081057600080fd5b8035906020019184600183028401116401000000008311171561083257600080fd5b90919293919293908035906020019064010000000081111561085357600080fd5b82018360208201111561086557600080fd5b8035906020019184600183028401116401000000008311171561088757600080fd5b9091929391929390803590602001906401000000008111156108a857600080fd5b8201836020820111156108ba57600080fd5b803590602001918460018302840111640100000000831117156108dc57600080fd5b90919293919293905050506122ab565b005b6108f6612787565b005b61093a6004803603602081101561090e57600080fd5b81019080803573ffffffffffffffffffffffffffffffffffffffff1690602001909291905050506128f5565b604051808215151515815260200191505060405180910390f35b61095c612912565b604051808215151515815260200191505060405180910390f35b61097e612929565b005b61098861293b565b005b6109b6600480360360208110156109a057600080fd5b8101908080359060200190929190505050612a74565b604051808273ffffffffffffffffffffffffffffffffffffffff1673ffffffffffffffffffffffffffffffffffffffff16815260200191505060405180910390f35b610a2460048036036020811015610a0e57600080fd5b8101908080359060200190929190505050612ab0565b604051808781526020018673ffffffffffffffffffffffffffffffffffffffff1673ffffffffffffffffffffffffffffffffffffffff16815260200185151515158152602001806020018060200180602001848103845287818151815260200191508051906020019080838360005b83811015610aae578082015181840152602081019050610a93565b50505050905090810190601f168015610adb5780820380516001836020036101000a031916815260200191505b50848103835286818151815260200191508051906020019080838360005b83811015610b14578082015181840152602081019050610af9565b50505050905090810190601f168015610b415780820380516001836020036101000a031916815260200191505b50848103825285818151815260200191508051906020019080838360005b83811015610b7a578082015181840152602081019050610b5f565b50505050905090810190601f168015610ba75780820380516001836020036101000a031916815260200191505b50995050505050505050505060405180910390f35b610bfe60048036036020811015610bd257600080fd5b81019080803573ffffffffffffffffffffffffffffffffffffffff169060200190929190505050612ce1565b005b610c08612d52565b005b610c12612ec1565b604051808273ffffffffffffffffffffffffffffffffffffffff1673ffffffffffffffffffffffffffffffffffffffff16815260200191505060405180910390f35b610cac60048036036060811015610c6a57600080fd5b8101908080359060200190929190803573ffffffffffffffffffffffffffffffffffffffff169060200190929190803515159060200190929190505050612eea565b005b610cb6613208565b604051808215151515815260200191505060405180910390f35b610cd8613266565b6040518080602001828103825283818151815260200191508051906020019060200280838360005b83811015610d1b578082015181840152602081019050610d00565b505050509050019250505060405180910390f35b610d5b60048036036020811015610d4557600080fd5b81019080803590602001909291905050506132f4565b6040518080602001828103825283818151815260200191508051906020019060200280838360005b83811015610d9e578082015181840152602081019050610d83565b505050509050019250505060405180910390f35b610dfe60048036036040811015610dc857600080fd5b8101908080359060200190929190803573ffffffffffffffffffffffffffffffffffffffff1690602001909291905050506133dd565b604051808215151515815260200191505060405180910390f35b610e5a60048036036020811015610e2e57600080fd5b81019080803573ffffffffffffffffffffffffffffffffffffffff16906020019092919050505061340c565b6040518082815260200191505060405180910390f35b610fe660048036036080811015610e8657600080fd5b8101908080359060200190640100000000811115610ea357600080fd5b820183602082011115610eb557600080fd5b80359060200191846001830284011164010000000083111715610ed757600080fd5b909192939192939080359060200190640100000000811115610ef857600080fd5b820183602082011115610f0a57600080fd5b80359060200191846001830284011164010000000083111715610f2c57600080fd5b909192939192939080359060200190640100000000811115610f4d57600080fd5b820183602082011115610f5f57600080fd5b80359060200191846001830284011164010000000083111715610f8157600080fd5b909192939192939080359060200190640100000000811115610fa257600080fd5b820183602082011115610fb457600080fd5b80359060200191846001830284011164010000000083111715610fd657600080fd5b9091929391929390505050613424565b005b61101460048036036020811015610ffe57600080fd5b81019080803590602001909291905050506138c1565b604051808781526020018673ffffffffffffffffffffffffffffffffffffffff1673ffffffffffffffffffffffffffffffffffffffff168152602001851515151581526020018481526020018060200180602001838103835285818151815260200191508051906020019080838360005b838110156110a0578082015181840152602081019050611085565b50505050905090810190601f1680156110cd5780820380516001836020036101000a031916815260200191505b50838103825284818151815260200191508051906020019080838360005b838110156111065780820151818401526020810190506110eb565b50505050905090810190601f1680156111335780820380516001836020036101000a031916815260200191505b509850505050505050505060405180910390f35b6111896004803603602081101561115d57600080fd5b81019080803573ffffffffffffffffffffffffffffffffffffffff169060200190929190505050613acc565b005b6111b7600480360360208110156111a157600080fd5b8101908080359060200190929190505050613b52565b604051808781526020018673ffffffffffffffffffffffffffffffffffffffff1673ffffffffffffffffffffffffffffffffffffffff16815260200185151515158152602001806020018060200180602001848103845287818151815260200191508051906020019080838360005b83811015611241578082015181840152602081019050611226565b50505050905090810190601f16801561126e5780820380516001836020036101000a031916815260200191505b50848103835286818151815260200191508051906020019080838360005b838110156112a757808201518184015260208101905061128c565b50505050905090810190601f1680156112d45780820380516001836020036101000a031916815260200191505b50848103825285818151815260200191508051906020019080838360005b8381101561130d5780820151818401526020810190506112f2565b50505050905090810190601f16801561133a5780820380516001836020036101000a031916815260200191505b50995050505050505050505060405180910390f35b6113916004803603602081101561136557600080fd5b81019080803573ffffffffffffffffffffffffffffffffffffffff169060200190929190505050613df9565b6040518088815260200180602001806020018060200187151515158152602001806020018673ffffffffffffffffffffffffffffffffffffffff1673ffffffffffffffffffffffffffffffffffffffff16815260200185810385528b818151815260200191508051906020019080838360005b8381101561141f578082015181840152602081019050611404565b50505050905090810190601f16801561144c5780820380516001836020036101000a031916815260200191505b5085810384528a818151815260200191508051906020019080838360005b8381101561148557808201518184015260208101905061146a565b50505050905090810190601f1680156114b25780820380516001836020036101000a031916815260200191505b50858103835289818151815260200191508051906020019080838360005b838110156114eb5780820151818401526020810190506114d0565b50505050905090810190601f1680156115185780820380516001836020036101000a031916815260200191505b50858103825287818151815260200191508051906020019080838360005b83811015611551578082015181840152602081019050611536565b50505050905090810190601f16801561157e5780820380516001836020036101000a031916815260200191505b509b50505050505050505050505060405180910390f35b60046020528060005260406000206000915090508060000154908060010160009054906101000a900473ffffffffffffffffffffffffffffffffffffffff16908060010160149054906101000a900460ff1690806002015490806003018054600181600116156101000203166002900480601f0160208091040260200160405190810160405280929190818152602001828054600181600116156101000203166002900480156116865780601f1061165b57610100808354040283529160200191611686565b820191906000526020600020905b81548152906001019060200180831161166957829003601f168201915b505050505090806004018054600181600116156101000203166002900480601f0160208091040260200160405190810160405280929190818152602001828054600181600116156101000203166002900480156117245780601f106116f957610100808354040283529160200191611724565b820191906000526020600020905b81548152906001019060200180831161170757829003601f168201915b5050505050905086565b60006060806060600060606000600560008973ffffffffffffffffffffffffffffffffffffffff1673ffffffffffffffffffffffffffffffffffffffff16815260200190815260200160002060000154600560008a73ffffffffffffffffffffffffffffffffffffffff1673ffffffffffffffffffffffffffffffffffffffff168152602001908152602001600020600101600560008b73ffffffffffffffffffffffffffffffffffffffff1673ffffffffffffffffffffffffffffffffffffffff168152602001908152602001600020600201600560008c73ffffffffffffffffffffffffffffffffffffffff1673ffffffffffffffffffffffffffffffffffffffff168152602001908152602001600020600301600560008d73ffffffffffffffffffffffffffffffffffffffff1673ffffffffffffffffffffffffffffffffffffffff16815260200190815260200160002060040160009054906101000a900460ff16600560008e73ffffffffffffffffffffffffffffffffffffffff1673ffffffffffffffffffffffffffffffffffffffff168152602001908152602001600020600501600560008f73ffffffffffffffffffffffffffffffffffffffff1673ffffffffffffffffffffffffffffffffffffffff16815260200190815260200160002060060160009054906101000a900473ffffffffffffffffffffffffffffffffffffffff16858054600181600116156101000203166002900480601f0160208091040260200160405190810160405280929190818152602001828054600181600116156101000203166002900480156119ce5780601f106119a3576101008083540402835291602001916119ce565b820191906000526020600020905b8154815290600101906020018083116119b157829003601f168201915b50505050509550848054600181600116156101000203166002900480601f016020809104026020016040519081016040528092919081815260200182805460018160011615610100020316600290048015611a6a5780601f10611a3f57610100808354040283529160200191611a6a565b820191906000526020600020905b815481529060010190602001808311611a4d57829003601f168201915b50505050509450838054600181600116156101000203166002900480601f016020809104026020016040519081016040528092919081815260200182805460018160011615610100020316600290048015611b065780601f10611adb57610100808354040283529160200191611b06565b820191906000526020600020905b815481529060010190602001808311611ae957829003601f168201915b50505050509350818054600181600116156101000203166002900480601f016020809104026020016040519081016040528092919081815260200182805460018160011615610100020316600290048015611ba25780601f10611b7757610100808354040283529160200191611ba2565b820191906000526020600020905b815481529060010190602001808311611b8557829003601f168201915b505050505091509650965096509650965096509650919395979092949650565b60011515600560003373ffffffffffffffffffffffffffffffffffffffff1673ffffffffffffffffffffffffffffffffffffffff16815260200190815260200160002060040160009054906101000a900460ff16151514611c8b576040517f08c379a00000000000000000000000000000000000000000000000000000000081526004018080602001828103825260148152602001807f6d65726368616e74206e6f7420616c6c6f77656400000000000000000000000081525060200191505060405180910390fd5b600260009054906101000a900460ff1615611d0e576040517f08c379a00000000000000000000000000000000000000000000000000000000081526004018080602001828103825260108152602001807f5061757361626c653a207061757365640000000000000000000000000000000081525060200191505060405180910390fd5b84600115156006600083815260200190815260200160002060003373ffffffffffffffffffffffffffffffffffffffff1673ffffffffffffffffffffffffffffffffffffffff16815260200190815260200160002060009054906101000a900460ff16151514611dc9576040517f08c379a00000000000000000000000000000000000000000000000000000000081526004018080602001828103825260278152602001806147b36027913960400191505060405180910390fd5b611dd16145c6565b6040518060c001604052804281526020013373ffffffffffffffffffffffffffffffffffffffff16815260200160011515815260200188815260200187878080601f016020809104026020016040519081016040528093929190818152602001838380828437600081840152601f19601f82011690508083019250505050505050815260200185858080601f016020809104026020016040519081016040528093929190818152602001838380828437600081840152601f19601f820116905080830192505050505050508152509050611eb760016008546140c890919063ffffffff16565b600881905550806004600060085481526020019081526020016000206000820151816000015560208201518160010160006101000a81548173ffffffffffffffffffffffffffffffffffffffff021916908373ffffffffffffffffffffffffffffffffffffffff16021790555060408201518160010160146101000a81548160ff021916908315150217905550606082015181600201556080820151816003019080519060200190611f6a929190614614565b5060a0820151816004019080519060200190611f87929190614614565b509050507fc9531abec1b2971850822fd66011263a07e4c59fb393fe0a6d63a84e886c8f6733600854604051808373ffffffffffffffffffffffffffffffffffffffff1673ffffffffffffffffffffffffffffffffffffffff1681526020018281526020019250505060405180910390a150505050505050565b60075481565b60606000600754141561204c5760006040519080825280602002602001820160405280156120445781602001602082028038833980820191505090505b509050612137565b606060075460405190808252806020026020018201604052801561207f5781602001602082028038833980820191505090505b50905060008090506000600190505b6007548111612130578473ffffffffffffffffffffffffffffffffffffffff166003600083815260200190815260200160002060010160009054906101000a900473ffffffffffffffffffffffffffffffffffffffff1673ffffffffffffffffffffffffffffffffffffffff161415612123578083838151811061210e57fe5b60200260200101818152505081806001019250505b808060010191505061208e565b8293505050505b919050565b6060600060075414156121815760006040519080825280602002602001820160405280156121795781602001602082028038833980820191505090505b5090506122a5565b60606007546040519080825280602002602001820160405280156121b45781602001602082028038833980820191505090505b50905060008090506000600190505b600754811161229e578585604051808383808284378083019250505092505050604051809103902060036000838152602001908152602001600020600201604051808280546001816001161561010002031660029004801561225c5780601f1061223a57610100808354040283529182019161225c565b820191906000526020600020905b815481529060010190602001808311612248575b505091505060405180910390201415612291578083838151811061227c57fe5b60200260200101818152505081806001019250505b80806001019150506121c3565b8293505050505b92915050565b60011515600560003373ffffffffffffffffffffffffffffffffffffffff1673ffffffffffffffffffffffffffffffffffffffff16815260200190815260200160002060040160009054906101000a900460ff16151514612374576040517f08c379a00000000000000000000000000000000000000000000000000000000081526004018080602001828103825260148152602001807f6d65726368616e74206e6f7420616c6c6f77656400000000000000000000000081525060200191505060405180910390fd5b600260009054906101000a900460ff16156123f7576040517f08c379a00000000000000000000000000000000000000000000000000000000081526004018080602001828103825260108152602001807f5061757361626c653a207061757365640000000000000000000000000000000081525060200191505060405180910390fd5b6123ff614694565b6040518060c001604052804281526020013373ffffffffffffffffffffffffffffffffffffffff16815260200160011515815260200188888080601f016020809104026020016040519081016040528093929190818152602001838380828437600081840152601f19601f82011690508083019250505050505050815260200186868080601f016020809104026020016040519081016040528093929190818152602001838380828437600081840152601f19601f82011690508083019250505050505050815260200184848080601f016020809104026020016040519081016040528093929190818152602001838380828437600081840152601f19601f82011690508083019250505050505050815250905061252960016007546140c890919063ffffffff16565b6007819055506125826001600960003373ffffffffffffffffffffffffffffffffffffffff1673ffffffffffffffffffffffffffffffffffffffff168152602001908152602001600020546140c890919063ffffffff16565b600960003373ffffffffffffffffffffffffffffffffffffffff1673ffffffffffffffffffffffffffffffffffffffff16815260200190815260200160002081905550806003600060075481526020019081526020016000206000820151816000015560208201518160010160006101000a81548173ffffffffffffffffffffffffffffffffffffffff021916908373ffffffffffffffffffffffffffffffffffffffff16021790555060408201518160010160146101000a81548160ff0219169083151502179055506060820151816002019080519060200190612668929190614614565b506080820151816003019080519060200190612685929190614614565b5060a08201518160040190805190602001906126a2929190614614565b50905050600160066000600754815260200190815260200160002060003373ffffffffffffffffffffffffffffffffffffffff1673ffffffffffffffffffffffffffffffffffffffff16815260200190815260200160002060006101000a81548160ff0219169083151502179055507fb974717ac4a3b808af727862a1db5552b3943661e6d8ad5f56fc2fe3828a6ab233600754604051808373ffffffffffffffffffffffffffffffffffffffff1673ffffffffffffffffffffffffffffffffffffffff1681526020018281526020019250505060405180910390a150505050505050565b612797612792614150565b6128f5565b6127ec576040517f08c379a000000000000000000000000000000000000000000000000000000000815260040180806020018281038252603081526020018061475d6030913960400191505060405180910390fd5b600260009054906101000a900460ff1661286e576040517f08c379a00000000000000000000000000000000000000000000000000000000081526004018080602001828103825260148152602001807f5061757361626c653a206e6f742070617573656400000000000000000000000081525060200191505060405180910390fd5b6000600260006101000a81548160ff0219169083151502179055507f5db9ee0a495bf2e6ff9c91a7834c1ba4fdd244a5e8aa4e537bd38aeae4b073aa6128b2614150565b604051808273ffffffffffffffffffffffffffffffffffffffff1673ffffffffffffffffffffffffffffffffffffffff16815260200191505060405180910390a1565b600061290b82600161415890919063ffffffff16565b9050919050565b6000600260009054906101000a900460ff16905090565b612939612934614150565b614236565b565b612943613208565b6129b5576040517f08c379a00000000000000000000000000000000000000000000000000000000081526004018080602001828103825260208152602001807f4f776e61626c653a2063616c6c6572206973206e6f7420746865206f776e657281525060200191505060405180910390fd5b600073ffffffffffffffffffffffffffffffffffffffff166000809054906101000a900473ffffffffffffffffffffffffffffffffffffffff1673ffffffffffffffffffffffffffffffffffffffff167f8be0079c531659141344cd1fd0a4f28419497f9722a3daafe3b4186f6b6457e060405160405180910390a360008060006101000a81548173ffffffffffffffffffffffffffffffffffffffff021916908373ffffffffffffffffffffffffffffffffffffffff160217905550565b600a8181548110612a8157fe5b906000526020600020016000915054906101000a900473ffffffffffffffffffffffffffffffffffffffff1681565b60036020528060005260406000206000915090508060000154908060010160009054906101000a900473ffffffffffffffffffffffffffffffffffffffff16908060010160149054906101000a900460ff1690806002018054600181600116156101000203166002900480601f016020809104026020016040519081016040528092919081815260200182805460018160011615610100020316600290048015612b9b5780601f10612b7057610100808354040283529160200191612b9b565b820191906000526020600020905b815481529060010190602001808311612b7e57829003601f168201915b505050505090806003018054600181600116156101000203166002900480601f016020809104026020016040519081016040528092919081815260200182805460018160011615610100020316600290048015612c395780601f10612c0e57610100808354040283529160200191612c39565b820191906000526020600020905b815481529060010190602001808311612c1c57829003601f168201915b505050505090806004018054600181600116156101000203166002900480601f016020809104026020016040519081016040528092919081815260200182805460018160011615610100020316600290048015612cd75780601f10612cac57610100808354040283529160200191612cd7565b820191906000526020600020905b815481529060010190602001808311612cba57829003601f168201915b5050505050905086565b612cf1612cec614150565b6128f5565b612d46576040517f08c379a000000000000000000000000000000000000000000000000000000000815260040180806020018281038252603081526020018061475d6030913960400191505060405180910390fd5b612d4f81614290565b50565b612d62612d5d614150565b6128f5565b612db7576040517f08c379a000000000000000000000000000000000000000000000000000000000815260040180806020018281038252603081526020018061475d6030913960400191505060405180910390fd5b600260009054906101000a900460ff1615612e3a576040517f08c379a00000000000000000000000000000000000000000000000000000000081526004018080602001828103825260108152602001807f5061757361626c653a207061757365640000000000000000000000000000000081525060200191505060405180910390fd5b6001600260006101000a81548160ff0219169083151502179055507f62e78cea01bee320cd4e420270b5ea74000d11b0c9f74754ebdbfc544b05a258612e7e614150565b604051808273ffffffffffffffffffffffffffffffffffffffff1673ffffffffffffffffffffffffffffffffffffffff16815260200191505060405180910390a1565b60008060009054906101000a900473ffffffffffffffffffffffffffffffffffffffff16905090565b60011515600560003373ffffffffffffffffffffffffffffffffffffffff1673ffffffffffffffffffffffffffffffffffffffff16815260200190815260200160002060040160009054906101000a900460ff16151514612fb3576040517f08c379a00000000000000000000000000000000000000000000000000000000081526004018080602001828103825260148152602001807f6d65726368616e74206e6f7420616c6c6f77656400000000000000000000000081525060200191505060405180910390fd5b600260009054906101000a900460ff1615613036576040517f08c379a00000000000000000000000000000000000000000000000000000000081526004018080602001828103825260108152602001807f5061757361626c653a207061757365640000000000000000000000000000000081525060200191505060405180910390fd5b3373ffffffffffffffffffffffffffffffffffffffff166003600085815260200190815260200160002060010160009054906101000a900473ffffffffffffffffffffffffffffffffffffffff1673ffffffffffffffffffffffffffffffffffffffff16146130f0576040517f08c379a000000000000000000000000000000000000000000000000000000000815260040180806020018281038252603181526020018061481d6031913960400191505060405180910390fd5b806006600085815260200190815260200160002060008473ffffffffffffffffffffffffffffffffffffffff1673ffffffffffffffffffffffffffffffffffffffff16815260200190815260200160002060006101000a81548160ff0219169083151502179055507fab8a7127a45e8656fb62040878112606b7e3c1e7557a40a37ba7bcda26c24dce33848484604051808573ffffffffffffffffffffffffffffffffffffffff1673ffffffffffffffffffffffffffffffffffffffff1681526020018481526020018373ffffffffffffffffffffffffffffffffffffffff1673ffffffffffffffffffffffffffffffffffffffff1681526020018215151515815260200194505050505060405180910390a1505050565b60008060009054906101000a900473ffffffffffffffffffffffffffffffffffffffff1673ffffffffffffffffffffffffffffffffffffffff1661324a614150565b73ffffffffffffffffffffffffffffffffffffffff1614905090565b6060600a8054806020026020016040519081016040528092919081815260200182805480156132ea57602002820191906000526020600020905b8160009054906101000a900473ffffffffffffffffffffffffffffffffffffffff1673ffffffffffffffffffffffffffffffffffffffff16815260200190600101908083116132a0575b5050505050905090565b6060600060085414156133395760006040519080825280602002602001820160405280156133315781602001602082028038833980820191505090505b5090506133d8565b606060085460405190808252806020026020018201604052801561336c5781602001602082028038833980820191505090505b50905060008090506000600190505b60085481116133d15784600460008381526020019081526020016000206002015414156133c457808383815181106133af57fe5b60200260200101818152505081806001019250505b808060010191505061337b565b8293505050505b919050565b60066020528160005260406000206020528060005260406000206000915091509054906101000a900460ff1681565b60096020528060005260406000206000915090505481565b6000600560003373ffffffffffffffffffffffffffffffffffffffff1673ffffffffffffffffffffffffffffffffffffffff16815260200190815260200160002060000154146134dc576040517f08c379a00000000000000000000000000000000000000000000000000000000081526004018080602001828103825260168152602001807f4475706c696361746573206e6f7420616c6c6f7765640000000000000000000081525060200191505060405180910390fd5b600260009054906101000a900460ff161561355f576040517f08c379a00000000000000000000000000000000000000000000000000000000081526004018080602001828103825260108152602001807f5061757361626c653a207061757365640000000000000000000000000000000081525060200191505060405180910390fd5b6135676146e2565b6040518060e001604052804281526020018a8a8080601f016020809104026020016040519081016040528093929190818152602001838380828437600081840152601f19601f82011690508083019250505050505050815260200188888080601f016020809104026020016040519081016040528093929190818152602001838380828437600081840152601f19601f82011690508083019250505050505050815260200186868080601f016020809104026020016040519081016040528093929190818152602001838380828437600081840152601f19601f82011690508083019250505050505050815260200160011515815260200184848080601f016020809104026020016040519081016040528093929190818152602001838380828437600081840152601f19601f8201169050808301925050505050505081526020013373ffffffffffffffffffffffffffffffffffffffff16815250905080600560003373ffffffffffffffffffffffffffffffffffffffff1673ffffffffffffffffffffffffffffffffffffffff16815260200190815260200160002060008201518160000155602082015181600101908051906020019061372b929190614614565b506040820151816002019080519060200190613748929190614614565b506060820151816003019080519060200190613765929190614614565b5060808201518160040160006101000a81548160ff02191690831515021790555060a08201518160050190805190602001906137a2929190614614565b5060c08201518160060160006101000a81548173ffffffffffffffffffffffffffffffffffffffff021916908373ffffffffffffffffffffffffffffffffffffffff160217905550905050600a3390806001815401808255809150509060018203906000526020600020016000909192909190916101000a81548173ffffffffffffffffffffffffffffffffffffffff021916908373ffffffffffffffffffffffffffffffffffffffff160217905550507fb465630b27a35fed42f277bd1c89a110334670d97c1277c4455f55266862721833604051808273ffffffffffffffffffffffffffffffffffffffff1673ffffffffffffffffffffffffffffffffffffffff16815260200191505060405180910390a1505050505050505050565b60008060008060608060046000888152602001908152602001600020600001546004600089815260200190815260200160002060010160009054906101000a900473ffffffffffffffffffffffffffffffffffffffff16600460008a815260200190815260200160002060010160149054906101000a900460ff16600460008b815260200190815260200160002060020154600460008c8152602001908152602001600020600301600460008d8152602001908152602001600020600401818054600181600116156101000203166002900480601f016020809104026020016040519081016040528092919081815260200182805460018160011615610100020316600290048015613a145780601f106139e957610100808354040283529160200191613a14565b820191906000526020600020905b8154815290600101906020018083116139f757829003601f168201915b50505050509150808054600181600116156101000203166002900480601f016020809104026020016040519081016040528092919081815260200182805460018160011615610100020316600290048015613ab05780601f10613a8557610100808354040283529160200191613ab0565b820191906000526020600020905b815481529060010190602001808311613a9357829003601f168201915b5050505050905095509550955095509550955091939550919395565b613ad4613208565b613b46576040517f08c379a00000000000000000000000000000000000000000000000000000000081526004018080602001828103825260208152602001807f4f776e61626c653a2063616c6c6572206973206e6f7420746865206f776e657281525060200191505060405180910390fd5b613b4f816142ea565b50565b6000806000606080606060036000888152602001908152602001600020600001546003600089815260200190815260200160002060010160009054906101000a900473ffffffffffffffffffffffffffffffffffffffff16600360008a815260200190815260200160002060010160149054906101000a900460ff16600360008b8152602001908152602001600020600201600360008c8152602001908152602001600020600301600360008d8152602001908152602001600020600401828054600181600116156101000203166002900480601f016020809104026020016040519081016040528092919081815260200182805460018160011615610100020316600290048015613ca55780601f10613c7a57610100808354040283529160200191613ca5565b820191906000526020600020905b815481529060010190602001808311613c8857829003601f168201915b50505050509250818054600181600116156101000203166002900480601f016020809104026020016040519081016040528092919081815260200182805460018160011615610100020316600290048015613d415780601f10613d1657610100808354040283529160200191613d41565b820191906000526020600020905b815481529060010190602001808311613d2457829003601f168201915b50505050509150808054600181600116156101000203166002900480601f016020809104026020016040519081016040528092919081815260200182805460018160011615610100020316600290048015613ddd5780601f10613db257610100808354040283529160200191613ddd565b820191906000526020600020905b815481529060010190602001808311613dc057829003601f168201915b5050505050905095509550955095509550955091939550919395565b6005602052806000526040600020600091509050806000015490806001018054600181600116156101000203166002900480601f016020809104026020016040519081016040528092919081815260200182805460018160011615610100020316600290048015613eab5780601f10613e8057610100808354040283529160200191613eab565b820191906000526020600020905b815481529060010190602001808311613e8e57829003601f168201915b505050505090806002018054600181600116156101000203166002900480601f016020809104026020016040519081016040528092919081815260200182805460018160011615610100020316600290048015613f495780601f10613f1e57610100808354040283529160200191613f49565b820191906000526020600020905b815481529060010190602001808311613f2c57829003601f168201915b505050505090806003018054600181600116156101000203166002900480601f016020809104026020016040519081016040528092919081815260200182805460018160011615610100020316600290048015613fe75780601f10613fbc57610100808354040283529160200191613fe7565b820191906000526020600020905b815481529060010190602001808311613fca57829003601f168201915b5050505050908060040160009054906101000a900460ff1690806005018054600181600116156101000203166002900480601f0160208091040260200160405190810160405280929190818152602001828054600181600116156101000203166002900480156140985780601f1061406d57610100808354040283529160200191614098565b820191906000526020600020905b81548152906001019060200180831161407b57829003601f168201915b5050505050908060060160009054906101000a900473ffffffffffffffffffffffffffffffffffffffff16905087565b600080828401905083811015614146576040517f08c379a000000000000000000000000000000000000000000000000000000000815260040180806020018281038252601b8152602001807f536166654d6174683a206164646974696f6e206f766572666c6f77000000000081525060200191505060405180910390fd5b8091505092915050565b600033905090565b60008073ffffffffffffffffffffffffffffffffffffffff168273ffffffffffffffffffffffffffffffffffffffff1614156141df576040517f08c379a00000000000000000000000000000000000000000000000000000000081526004018080602001828103825260228152602001806147fb6022913960400191505060405180910390fd5b8260000160008373ffffffffffffffffffffffffffffffffffffffff1673ffffffffffffffffffffffffffffffffffffffff16815260200190815260200160002060009054906101000a900460ff16905092915050565b61424a81600161442e90919063ffffffff16565b8073ffffffffffffffffffffffffffffffffffffffff167fcd265ebaf09df2871cc7bd4133404a235ba12eff2041bb89d9c714a2621c7c7e60405160405180910390a250565b6142a48160016144eb90919063ffffffff16565b8073ffffffffffffffffffffffffffffffffffffffff167f6719d08c1888103bea251a4ed56406bd0c3e69723c8a1686e017e7bbe159b6f860405160405180910390a250565b600073ffffffffffffffffffffffffffffffffffffffff168173ffffffffffffffffffffffffffffffffffffffff161415614370576040517f08c379a000000000000000000000000000000000000000000000000000000000815260040180806020018281038252602681526020018061478d6026913960400191505060405180910390fd5b8073ffffffffffffffffffffffffffffffffffffffff166000809054906101000a900473ffffffffffffffffffffffffffffffffffffffff1673ffffffffffffffffffffffffffffffffffffffff167f8be0079c531659141344cd1fd0a4f28419497f9722a3daafe3b4186f6b6457e060405160405180910390a3806000806101000a81548173ffffffffffffffffffffffffffffffffffffffff021916908373ffffffffffffffffffffffffffffffffffffffff16021790555050565b6144388282614158565b61448d576040517f08c379a00000000000000000000000000000000000000000000000000000000081526004018080602001828103825260218152602001806147da6021913960400191505060405180910390fd5b60008260000160008373ffffffffffffffffffffffffffffffffffffffff1673ffffffffffffffffffffffffffffffffffffffff16815260200190815260200160002060006101000a81548160ff0219169083151502179055505050565b6144f58282614158565b15614568576040517f08c379a000000000000000000000000000000000000000000000000000000000815260040180806020018281038252601f8152602001807f526f6c65733a206163636f756e7420616c72656164792068617320726f6c650081525060200191505060405180910390fd5b60018260000160008373ffffffffffffffffffffffffffffffffffffffff1673ffffffffffffffffffffffffffffffffffffffff16815260200190815260200160002060006101000a81548160ff0219169083151502179055505050565b6040518060c0016040528060008152602001600073ffffffffffffffffffffffffffffffffffffffff1681526020016000151581526020016000815260200160608152602001606081525090565b828054600181600116156101000203166002900490600052602060002090601f016020900481019282601f1061465557805160ff1916838001178555614683565b82800160010185558215614683579182015b82811115614682578251825591602001919060010190614667565b5b5090506146909190614737565b5090565b6040518060c0016040528060008152602001600073ffffffffffffffffffffffffffffffffffffffff1681526020016000151581526020016060815260200160608152602001606081525090565b6040518060e001604052806000815260200160608152602001606081526020016060815260200160001515815260200160608152602001600073ffffffffffffffffffffffffffffffffffffffff1681525090565b61475991905b8082111561475557600081600090555060010161473d565b5090565b9056fe506175736572526f6c653a2063616c6c657220646f6573206e6f742068617665207468652050617573657220726f6c654f776e61626c653a206e6577206f776e657220697320746865207a65726f20616464726573736e6f7420616c6c6f77656420746f2065646974207468652070726f6475637420686973746f7279526f6c65733a206163636f756e7420646f6573206e6f74206861766520726f6c65526f6c65733a206163636f756e7420697320746865207a65726f20616464726573736f6e6c792074686520686973746f7279206f776e65722063616e20746f67676c65206f74686572206d65726368616e7473a265627a7a723158208cace18360779a05e23e0ee54a4e0188a14813d97ba722cf51ab15cc6d8e49c064736f6c63430005110032526f6c65733a206163636f756e7420697320746865207a65726f2061646472657373",
  "source": "pragma solidity ^0.5.0;\n\nimport \"@openzeppelin/contracts/ownership/Ownable.sol\";\nimport \"@openzeppelin/contracts/lifecycle/Pausable.sol\";\nimport \"@openzeppelin/contracts/math/SafeMath.sol\";\n\ncontract Devoleum is Ownable, Pausable {\n    using SafeMath for uint256;\n\n    //STRUCT MAPPINGS\n    mapping(uint256 => History) public historyIdToHistoryInfo;\n    mapping(uint256 => Step) public stepIdToStepInfo;\n    mapping(address => Merchant) public addressToMerchant;\n\n    //PERMISSION\n    mapping(uint256 => mapping(address => bool))\n        public historyIdToPermissionedMerchants;\n\n    //COUNTERS\n    uint256 public historiesCounter = 0;\n    uint256 private stepsCounter = 0;\n    mapping(address => uint256) public merchantAddressToHistoriesCounter;\n\n    //LISTS\n    address[] public merchantsList;\n\n    //MERCHANT SECTION\n    function getMerchantsList() external view returns (address[] memory) {\n        return merchantsList;\n    }\n\n    struct Merchant {\n        uint256 createdAt;\n        string name;\n        string category;\n        string websiteUrl;\n        bool enabled;\n        string URI;\n        address owner;\n    }\n\n    modifier isMerchantExistent() {\n        require(\n            addressToMerchant[msg.sender].createdAt == 0,\n            \"Duplicates not allowed\"\n        );\n        _;\n    }\n\n    modifier isMerchantEnabled() {\n        require(\n            addressToMerchant[msg.sender].enabled == true,\n            \"merchant not allowed\"\n        );\n        _;\n    }\n\n    modifier isAllowedToAddStep(uint256 _id) {\n        require(\n            historyIdToPermissionedMerchants[_id][msg.sender] == true,\n            \"not allowed to edit the product history\"\n        );\n        _;\n    }\n\n    event MerchantCreated(address _owner);\n\n    function createMerchant(\n        string calldata _name,\n        string calldata _category,\n        string calldata _websiteUrl,\n        string calldata _URI\n    ) external isMerchantExistent whenNotPaused {\n        Merchant memory newMerchant = Merchant(\n            now,\n            _name,\n            _category,\n            _websiteUrl,\n            true,\n            _URI,\n            msg.sender\n        );\n        addressToMerchant[msg.sender] = newMerchant;\n        merchantsList.push(msg.sender);\n        emit MerchantCreated(msg.sender);\n    }\n\n\n    struct History {\n        uint256 createdAt;\n        address merchantAdr;\n        bool enabled;\n        string category;\n        string hashOfJson;\n        string URI;\n    }\n\n    event HistoryCreated(address _owner, uint256 _id);\n\n    //HISTORY SECTION\n    function createHistory(\n        string calldata _category,\n        string calldata _hashOfJson,\n        string calldata _URI\n    ) external isMerchantEnabled whenNotPaused {\n        History memory newHistory = History(\n            now,\n            msg.sender,\n            true,\n            _category,\n            _hashOfJson,\n            _URI\n        );\n        historiesCounter = historiesCounter.add(1);\n        merchantAddressToHistoriesCounter[msg\n            .sender] = merchantAddressToHistoriesCounter[msg.sender].add(1);\n        historyIdToHistoryInfo[historiesCounter] = newHistory;\n        historyIdToPermissionedMerchants[historiesCounter][msg.sender] = true;\n        emit HistoryCreated(msg.sender, historiesCounter);\n    }\n\n    //STEP SECTION\n\n    struct Step {\n        uint256 createdAt;\n        address merchantAdr;\n        bool enabled;\n        uint256 historyID;\n        string hashOfJson;\n        string URI;\n    }\n\n\n\n    event StepCreated(address _owner, uint256 _id);\n\n    function createStep(\n        uint256 _historyID,\n        string calldata _hashOfJson,\n        string calldata _URI\n    ) external isMerchantEnabled whenNotPaused isAllowedToAddStep(_historyID) {\n        Step memory newStep = Step(\n            now,\n            msg.sender,\n            true,\n            _historyID,\n            _hashOfJson,\n            _URI\n        );\n        stepsCounter = stepsCounter.add(1);\n        stepIdToStepInfo[stepsCounter] = newStep;\n        emit StepCreated(msg.sender, stepsCounter);\n    }\n\n    event MerchantToggled(address _owner, uint256 _historyID, address _target, bool _isEnabled);\n\n\n    function toggleHistoryMerchant(\n        uint256 _historyID,\n        address _target,\n        bool _toggle\n    ) external isMerchantEnabled whenNotPaused {\n        require(\n            historyIdToHistoryInfo[_historyID].merchantAdr == msg.sender,\n            \"only the history owner can toggle other merchants\"\n        );\n        historyIdToPermissionedMerchants[_historyID][_target] = _toggle;\n    emit MerchantToggled(msg.sender, _historyID, _target, _toggle);\n\n    }\n    // GETTERS SECTION\n    function getMerchantInfo(address _merchantAdr)\n        external\n        view\n        returns (\n            uint256 createdAt,\n            string memory merchantName,\n            string memory category,\n            string memory websiteUrl,\n            bool enabled,\n            string memory URI,\n            address owner\n        )\n    {\n        return (\n            addressToMerchant[_merchantAdr].createdAt,\n            addressToMerchant[_merchantAdr].name,\n            addressToMerchant[_merchantAdr].category,\n            addressToMerchant[_merchantAdr].websiteUrl,\n            addressToMerchant[_merchantAdr].enabled,\n            addressToMerchant[_merchantAdr].URI,\n            addressToMerchant[_merchantAdr].owner\n        );\n    }\n\n    function getHistoryInfo(uint256 _id)\n        external\n        view\n        returns (\n            uint256 createdAt,\n            address merchantAdr,\n            bool enabled,\n            string memory category,\n            string memory hashOfJson,\n            string memory URI\n        )\n    {\n        return (\n            historyIdToHistoryInfo[_id].createdAt,\n            historyIdToHistoryInfo[_id].merchantAdr,\n            historyIdToHistoryInfo[_id].enabled,\n            historyIdToHistoryInfo[_id].category,\n            historyIdToHistoryInfo[_id].hashOfJson,\n            historyIdToHistoryInfo[_id].URI\n        );\n    }\n\n    function getStepInfo(uint256 _id)\n        external\n        view\n        returns (\n            uint256 createdAt,\n            address merchantAdr,\n            bool enabled,\n            uint256 historyID,\n            string memory hashOfJson,\n            string memory URI\n        )\n    {\n        return (\n            stepIdToStepInfo[_id].createdAt,\n            stepIdToStepInfo[_id].merchantAdr,\n            stepIdToStepInfo[_id].enabled,\n            stepIdToStepInfo[_id].historyID,\n            stepIdToStepInfo[_id].hashOfJson,\n            stepIdToStepInfo[_id].URI\n        );\n    }\n\n    function historiesOfMerchant(address _owner)\n        external\n        view\n        returns (uint256[] memory ownerHistories)\n    {\n        if (historiesCounter == 0) {\n            return new uint256[](0);\n        } else {\n            uint256[] memory result = new uint256[](historiesCounter);\n            uint256 resultIndex = 0;\n            uint256 itemId;\n\n            for (itemId = 1; itemId <= historiesCounter; itemId++) {\n                if (historyIdToHistoryInfo[itemId].merchantAdr == _owner) {\n                    result[resultIndex] = itemId;\n                    resultIndex++;\n                }\n            }\n\n            return result;\n        }\n    }\n\n    function historiesOfCategory(string calldata _category)\n        external\n        view\n        returns (uint256[] memory ownerHistories)\n    {\n        if (historiesCounter == 0) {\n            return new uint256[](0);\n        } else {\n            uint256[] memory result = new uint256[](historiesCounter);\n            uint256 resultIndex = 0;\n            uint256 itemId;\n\n            for (itemId = 1; itemId <= historiesCounter; itemId++) {\n                if (\n                    keccak256(bytes(historyIdToHistoryInfo[itemId].category)) ==\n                    keccak256(bytes(_category))\n                ) {\n                    result[resultIndex] = itemId;\n                    resultIndex++;\n                }\n            }\n\n            return result;\n        }\n    }\n\n    function stepsOfHistory(uint256 _historyID)\n        external\n        view\n        returns (uint256[] memory ownerHistories)\n    {\n        if (stepsCounter == 0) {\n            return new uint256[](0);\n        } else {\n            uint256[] memory result = new uint256[](stepsCounter);\n            uint256 resultIndex = 0;\n            uint256 itemId;\n\n            for (itemId = 1; itemId <= stepsCounter; itemId++) {\n                if (stepIdToStepInfo[itemId].historyID == _historyID) {\n                    result[resultIndex] = itemId;\n                    resultIndex++;\n                }\n            }\n\n            return result;\n        }\n    }\n}\n",
  "sourcePath": "/Users/lorenzozaccagnini/Desktop/react-devoleum-simulation/contracts/Devoleum.sol",
  "compiler": {
    "name": "solc",
    "version": "0.5.17+commit.d19bba13.Emscripten.clang"
  },
  "schemaVersion": "3.2.1",
  "updatedAt": "2020-07-27T14:41:03.175Z",
  "networkType": "ethereum",
  "devdoc": {
    "methods": {
      "isOwner()": {
        "details": "Returns true if the caller is the current owner."
      },
      "owner()": {
        "details": "Returns the address of the current owner."
      },
      "pause()": {
        "details": "Called by a pauser to pause, triggers stopped state."
      },
      "paused()": {
        "details": "Returns true if the contract is paused, and false otherwise."
      },
      "renounceOwnership()": {
        "details": "Leaves the contract without owner. It will not be possible to call `onlyOwner` functions anymore. Can only be called by the current owner.     * NOTE: Renouncing ownership will leave the contract without an owner, thereby removing any functionality that is only available to the owner."
      },
      "transferOwnership(address)": {
        "details": "Transfers ownership of the contract to a new account (`newOwner`). Can only be called by the current owner."
      },
      "unpause()": {
        "details": "Called by a pauser to unpause, returns to normal state."
      }
    }
  },
  "userdoc": {
    "methods": {}
  }
}