{
  "contractName": "Devoleum",
  "abi": [
    {
      "anonymous": false,
      "inputs": [
        {
          "indexed": false,
          "internalType": "address",
          "name": "_owner",
          "type": "address"
        },
        {
          "indexed": false,
          "internalType": "uint256",
          "name": "_id",
          "type": "uint256"
        }
      ],
      "name": "HistoryCreated",
      "type": "event"
    },
    {
      "anonymous": false,
      "inputs": [
        {
          "indexed": false,
          "internalType": "address",
          "name": "_owner",
          "type": "address"
        }
      ],
      "name": "MerchantCreated",
      "type": "event"
    },
    {
      "anonymous": false,
      "inputs": [
        {
          "indexed": false,
          "internalType": "address",
          "name": "_owner",
          "type": "address"
        },
        {
          "indexed": false,
          "internalType": "uint256",
          "name": "_historyID",
          "type": "uint256"
        },
        {
          "indexed": false,
          "internalType": "address",
          "name": "_target",
          "type": "address"
        },
        {
          "indexed": false,
          "internalType": "bool",
          "name": "_isEnabled",
          "type": "bool"
        }
      ],
      "name": "MerchantToggled",
      "type": "event"
    },
    {
      "anonymous": false,
      "inputs": [
        {
          "indexed": true,
          "internalType": "address",
          "name": "previousOwner",
          "type": "address"
        },
        {
          "indexed": true,
          "internalType": "address",
          "name": "newOwner",
          "type": "address"
        }
      ],
      "name": "OwnershipTransferred",
      "type": "event"
    },
    {
      "anonymous": false,
      "inputs": [
        {
          "indexed": false,
          "internalType": "address",
          "name": "account",
          "type": "address"
        }
      ],
      "name": "Paused",
      "type": "event"
    },
    {
      "anonymous": false,
      "inputs": [
        {
          "indexed": true,
          "internalType": "address",
          "name": "account",
          "type": "address"
        }
      ],
      "name": "PauserAdded",
      "type": "event"
    },
    {
      "anonymous": false,
      "inputs": [
        {
          "indexed": true,
          "internalType": "address",
          "name": "account",
          "type": "address"
        }
      ],
      "name": "PauserRemoved",
      "type": "event"
    },
    {
      "anonymous": false,
      "inputs": [
        {
          "indexed": false,
          "internalType": "address",
          "name": "_owner",
          "type": "address"
        },
        {
          "indexed": false,
          "internalType": "uint256",
          "name": "_id",
          "type": "uint256"
        }
      ],
      "name": "StepCreated",
      "type": "event"
    },
    {
      "anonymous": false,
      "inputs": [
        {
          "indexed": false,
          "internalType": "address",
          "name": "account",
          "type": "address"
        }
      ],
      "name": "Unpaused",
      "type": "event"
    },
    {
      "anonymous": false,
      "inputs": [
        {
          "indexed": false,
          "internalType": "bool",
          "name": "_permissioned",
          "type": "bool"
        }
      ],
      "name": "changePermissioned",
      "type": "event"
    },
    {
      "constant": false,
      "inputs": [
        {
          "internalType": "address",
          "name": "account",
          "type": "address"
        }
      ],
      "name": "addPauser",
      "outputs": [],
      "payable": false,
      "stateMutability": "nonpayable",
      "type": "function"
    },
    {
      "constant": true,
      "inputs": [
        {
          "internalType": "address",
          "name": "",
          "type": "address"
        }
      ],
      "name": "addressToMerchant",
      "outputs": [
        {
          "internalType": "uint256",
          "name": "createdAt",
          "type": "uint256"
        },
        {
          "internalType": "string",
          "name": "name",
          "type": "string"
        },
        {
          "internalType": "string",
          "name": "category",
          "type": "string"
        },
        {
          "internalType": "string",
          "name": "websiteUrl",
          "type": "string"
        },
        {
          "internalType": "string",
          "name": "URI",
          "type": "string"
        },
        {
          "internalType": "address",
          "name": "owner",
          "type": "address"
        }
      ],
      "payable": false,
      "stateMutability": "view",
      "type": "function"
    },
    {
      "constant": true,
      "inputs": [],
      "name": "historiesCounter",
      "outputs": [
        {
          "internalType": "uint256",
          "name": "",
          "type": "uint256"
        }
      ],
      "payable": false,
      "stateMutability": "view",
      "type": "function"
    },
    {
      "constant": true,
      "inputs": [
        {
          "internalType": "uint256",
          "name": "",
          "type": "uint256"
        }
      ],
      "name": "historyIdToHistoryInfo",
      "outputs": [
        {
          "internalType": "uint256",
          "name": "createdAt",
          "type": "uint256"
        },
        {
          "internalType": "address",
          "name": "merchantAdr",
          "type": "address"
        },
        {
          "internalType": "bool",
          "name": "enabled",
          "type": "bool"
        },
        {
          "internalType": "string",
          "name": "category",
          "type": "string"
        },
        {
          "internalType": "string",
          "name": "hashOfJson",
          "type": "string"
        },
        {
          "internalType": "string",
          "name": "URI",
          "type": "string"
        }
      ],
      "payable": false,
      "stateMutability": "view",
      "type": "function"
    },
    {
      "constant": true,
      "inputs": [
        {
          "internalType": "uint256",
          "name": "",
          "type": "uint256"
        },
        {
          "internalType": "address",
          "name": "",
          "type": "address"
        }
      ],
      "name": "historyIdToPermissionedMerchants",
      "outputs": [
        {
          "internalType": "bool",
          "name": "",
          "type": "bool"
        }
      ],
      "payable": false,
      "stateMutability": "view",
      "type": "function"
    },
    {
      "constant": true,
      "inputs": [],
      "name": "isOwner",
      "outputs": [
        {
          "internalType": "bool",
          "name": "",
          "type": "bool"
        }
      ],
      "payable": false,
      "stateMutability": "view",
      "type": "function"
    },
    {
      "constant": true,
      "inputs": [
        {
          "internalType": "address",
          "name": "account",
          "type": "address"
        }
      ],
      "name": "isPauser",
      "outputs": [
        {
          "internalType": "bool",
          "name": "",
          "type": "bool"
        }
      ],
      "payable": false,
      "stateMutability": "view",
      "type": "function"
    },
    {
      "constant": true,
      "inputs": [
        {
          "internalType": "address",
          "name": "",
          "type": "address"
        }
      ],
      "name": "merchantAddressToHistoriesCounter",
      "outputs": [
        {
          "internalType": "uint256",
          "name": "",
          "type": "uint256"
        }
      ],
      "payable": false,
      "stateMutability": "view",
      "type": "function"
    },
    {
      "constant": true,
      "inputs": [
        {
          "internalType": "address",
          "name": "",
          "type": "address"
        }
      ],
      "name": "merchantPermission",
      "outputs": [
        {
          "internalType": "bool",
          "name": "",
          "type": "bool"
        }
      ],
      "payable": false,
      "stateMutability": "view",
      "type": "function"
    },
    {
      "constant": true,
      "inputs": [
        {
          "internalType": "uint256",
          "name": "",
          "type": "uint256"
        }
      ],
      "name": "merchantsList",
      "outputs": [
        {
          "internalType": "address",
          "name": "",
          "type": "address"
        }
      ],
      "payable": false,
      "stateMutability": "view",
      "type": "function"
    },
    {
      "constant": true,
      "inputs": [],
      "name": "owner",
      "outputs": [
        {
          "internalType": "address",
          "name": "",
          "type": "address"
        }
      ],
      "payable": false,
      "stateMutability": "view",
      "type": "function"
    },
    {
      "constant": false,
      "inputs": [],
      "name": "pause",
      "outputs": [],
      "payable": false,
      "stateMutability": "nonpayable",
      "type": "function"
    },
    {
      "constant": true,
      "inputs": [],
      "name": "paused",
      "outputs": [
        {
          "internalType": "bool",
          "name": "",
          "type": "bool"
        }
      ],
      "payable": false,
      "stateMutability": "view",
      "type": "function"
    },
    {
      "constant": false,
      "inputs": [],
      "name": "renounceOwnership",
      "outputs": [],
      "payable": false,
      "stateMutability": "nonpayable",
      "type": "function"
    },
    {
      "constant": false,
      "inputs": [],
      "name": "renouncePauser",
      "outputs": [],
      "payable": false,
      "stateMutability": "nonpayable",
      "type": "function"
    },
    {
      "constant": true,
      "inputs": [],
      "name": "signupPermissioned",
      "outputs": [
        {
          "internalType": "bool",
          "name": "",
          "type": "bool"
        }
      ],
      "payable": false,
      "stateMutability": "view",
      "type": "function"
    },
    {
      "constant": true,
      "inputs": [
        {
          "internalType": "uint256",
          "name": "",
          "type": "uint256"
        }
      ],
      "name": "stepIdToStepInfo",
      "outputs": [
        {
          "internalType": "uint256",
          "name": "createdAt",
          "type": "uint256"
        },
        {
          "internalType": "address",
          "name": "merchantAdr",
          "type": "address"
        },
        {
          "internalType": "bool",
          "name": "enabled",
          "type": "bool"
        },
        {
          "internalType": "uint256",
          "name": "historyID",
          "type": "uint256"
        },
        {
          "internalType": "string",
          "name": "hashOfJson",
          "type": "string"
        },
        {
          "internalType": "string",
          "name": "URI",
          "type": "string"
        }
      ],
      "payable": false,
      "stateMutability": "view",
      "type": "function"
    },
    {
      "constant": false,
      "inputs": [
        {
          "internalType": "address",
          "name": "newOwner",
          "type": "address"
        }
      ],
      "name": "transferOwnership",
      "outputs": [],
      "payable": false,
      "stateMutability": "nonpayable",
      "type": "function"
    },
    {
      "constant": false,
      "inputs": [],
      "name": "unpause",
      "outputs": [],
      "payable": false,
      "stateMutability": "nonpayable",
      "type": "function"
    },
    {
      "constant": true,
      "inputs": [],
      "name": "getMerchantsList",
      "outputs": [
        {
          "internalType": "address[]",
          "name": "",
          "type": "address[]"
        }
      ],
      "payable": false,
      "stateMutability": "view",
      "type": "function"
    },
    {
      "constant": false,
      "inputs": [
        {
          "internalType": "string",
          "name": "_name",
          "type": "string"
        },
        {
          "internalType": "string",
          "name": "_category",
          "type": "string"
        },
        {
          "internalType": "string",
          "name": "_websiteUrl",
          "type": "string"
        },
        {
          "internalType": "string",
          "name": "_URI",
          "type": "string"
        }
      ],
      "name": "createMerchant",
      "outputs": [],
      "payable": false,
      "stateMutability": "nonpayable",
      "type": "function"
    },
    {
      "constant": false,
      "inputs": [
        {
          "internalType": "string",
          "name": "_category",
          "type": "string"
        },
        {
          "internalType": "string",
          "name": "_hashOfJson",
          "type": "string"
        },
        {
          "internalType": "string",
          "name": "_URI",
          "type": "string"
        }
      ],
      "name": "createHistory",
      "outputs": [],
      "payable": false,
      "stateMutability": "nonpayable",
      "type": "function"
    },
    {
      "constant": false,
      "inputs": [
        {
          "internalType": "uint256",
          "name": "_historyID",
          "type": "uint256"
        },
        {
          "internalType": "string",
          "name": "_hashOfJson",
          "type": "string"
        },
        {
          "internalType": "string",
          "name": "_URI",
          "type": "string"
        }
      ],
      "name": "createStep",
      "outputs": [],
      "payable": false,
      "stateMutability": "nonpayable",
      "type": "function"
    },
    {
      "constant": false,
      "inputs": [
        {
          "internalType": "uint256",
          "name": "_historyID",
          "type": "uint256"
        },
        {
          "internalType": "address",
          "name": "_target",
          "type": "address"
        },
        {
          "internalType": "bool",
          "name": "_toggle",
          "type": "bool"
        }
      ],
      "name": "toggleHistoryMerchant",
      "outputs": [],
      "payable": false,
      "stateMutability": "nonpayable",
      "type": "function"
    },
    {
      "constant": true,
      "inputs": [
        {
          "internalType": "address",
          "name": "_merchantAdr",
          "type": "address"
        }
      ],
      "name": "getMerchantInfo",
      "outputs": [
        {
          "internalType": "uint256",
          "name": "createdAt",
          "type": "uint256"
        },
        {
          "internalType": "string",
          "name": "merchantName",
          "type": "string"
        },
        {
          "internalType": "string",
          "name": "category",
          "type": "string"
        },
        {
          "internalType": "string",
          "name": "websiteUrl",
          "type": "string"
        },
        {
          "internalType": "string",
          "name": "URI",
          "type": "string"
        },
        {
          "internalType": "address",
          "name": "owner",
          "type": "address"
        }
      ],
      "payable": false,
      "stateMutability": "view",
      "type": "function"
    },
    {
      "constant": true,
      "inputs": [
        {
          "internalType": "uint256",
          "name": "_id",
          "type": "uint256"
        }
      ],
      "name": "getHistoryInfo",
      "outputs": [
        {
          "internalType": "uint256",
          "name": "createdAt",
          "type": "uint256"
        },
        {
          "internalType": "address",
          "name": "merchantAdr",
          "type": "address"
        },
        {
          "internalType": "bool",
          "name": "enabled",
          "type": "bool"
        },
        {
          "internalType": "string",
          "name": "category",
          "type": "string"
        },
        {
          "internalType": "string",
          "name": "hashOfJson",
          "type": "string"
        },
        {
          "internalType": "string",
          "name": "URI",
          "type": "string"
        }
      ],
      "payable": false,
      "stateMutability": "view",
      "type": "function"
    },
    {
      "constant": true,
      "inputs": [
        {
          "internalType": "uint256",
          "name": "_id",
          "type": "uint256"
        }
      ],
      "name": "getStepInfo",
      "outputs": [
        {
          "internalType": "uint256",
          "name": "createdAt",
          "type": "uint256"
        },
        {
          "internalType": "address",
          "name": "merchantAdr",
          "type": "address"
        },
        {
          "internalType": "bool",
          "name": "enabled",
          "type": "bool"
        },
        {
          "internalType": "uint256",
          "name": "historyID",
          "type": "uint256"
        },
        {
          "internalType": "string",
          "name": "hashOfJson",
          "type": "string"
        },
        {
          "internalType": "string",
          "name": "URI",
          "type": "string"
        }
      ],
      "payable": false,
      "stateMutability": "view",
      "type": "function"
    },
    {
      "constant": true,
      "inputs": [
        {
          "internalType": "address",
          "name": "_owner",
          "type": "address"
        }
      ],
      "name": "historiesOfMerchant",
      "outputs": [
        {
          "internalType": "uint256[]",
          "name": "ownerHistories",
          "type": "uint256[]"
        }
      ],
      "payable": false,
      "stateMutability": "view",
      "type": "function"
    },
    {
      "constant": true,
      "inputs": [
        {
          "internalType": "string",
          "name": "_category",
          "type": "string"
        }
      ],
      "name": "historiesOfCategory",
      "outputs": [
        {
          "internalType": "uint256[]",
          "name": "ownerHistories",
          "type": "uint256[]"
        }
      ],
      "payable": false,
      "stateMutability": "view",
      "type": "function"
    },
    {
      "constant": true,
      "inputs": [
        {
          "internalType": "uint256",
          "name": "_historyID",
          "type": "uint256"
        }
      ],
      "name": "stepsOfHistory",
      "outputs": [
        {
          "internalType": "uint256[]",
          "name": "ownerHistories",
          "type": "uint256[]"
        }
      ],
      "payable": false,
      "stateMutability": "view",
      "type": "function"
    },
    {
      "constant": true,
      "inputs": [],
      "name": "getPermissionedStatus",
      "outputs": [
        {
          "internalType": "bool",
          "name": "_signupPermissioned",
          "type": "bool"
        }
      ],
      "payable": false,
      "stateMutability": "view",
      "type": "function"
    },
    {
      "constant": false,
      "inputs": [
        {
          "internalType": "bool",
          "name": "_permissioned",
          "type": "bool"
        }
      ],
      "name": "toggleSignupPermissioned",
      "outputs": [],
      "payable": false,
      "stateMutability": "nonpayable",
      "type": "function"
    },
    {
      "constant": false,
      "inputs": [
        {
          "internalType": "bool",
          "name": "_permission",
          "type": "bool"
        },
        {
          "internalType": "address",
          "name": "_target",
          "type": "address"
        }
      ],
      "name": "toggleMerchantPermission",
      "outputs": [],
      "payable": false,
      "stateMutability": "nonpayable",
      "type": "function"
    },
    {
      "constant": false,
      "inputs": [
        {
          "internalType": "bool",
          "name": "_permission",
          "type": "bool"
        },
        {
          "internalType": "bool",
          "name": "_isStep",
          "type": "bool"
        },
        {
          "internalType": "uint256",
          "name": "_id",
          "type": "uint256"
        }
      ],
      "name": "toggleAsset",
      "outputs": [],
      "payable": false,
      "stateMutability": "nonpayable",
      "type": "function"
    }
  ],
  "bytecode": "0x60806040526000600660006101000a81548160ff02191690831515021790555060006009556000600a5560006200003b6200011a60201b60201c565b9050806000806101000a81548173ffffffffffffffffffffffffffffffffffffffff021916908373ffffffffffffffffffffffffffffffffffffffff1602179055508073ffffffffffffffffffffffffffffffffffffffff16600073ffffffffffffffffffffffffffffffffffffffff167f8be0079c531659141344cd1fd0a4f28419497f9722a3daafe3b4186f6b6457e060405160405180910390a350620000f9620000ed6200011a60201b60201c565b6200012260201b60201c565b6000600260006101000a81548160ff02191690831515021790555062000347565b600033905090565b6200013d8160016200018360201b62004c9f1790919060201c565b8073ffffffffffffffffffffffffffffffffffffffff167f6719d08c1888103bea251a4ed56406bd0c3e69723c8a1686e017e7bbe159b6f860405160405180910390a250565b6200019582826200026760201b60201c565b1562000209576040517f08c379a000000000000000000000000000000000000000000000000000000000815260040180806020018281038252601f8152602001807f526f6c65733a206163636f756e7420616c72656164792068617320726f6c650081525060200191505060405180910390fd5b60018260000160008373ffffffffffffffffffffffffffffffffffffffff1673ffffffffffffffffffffffffffffffffffffffff16815260200190815260200160002060006101000a81548160ff0219169083151502179055505050565b60008073ffffffffffffffffffffffffffffffffffffffff168273ffffffffffffffffffffffffffffffffffffffff161415620002f0576040517f08c379a0000000000000000000000000000000000000000000000000000000008152600401808060200182810382526022815260200180620053af6022913960400191505060405180910390fd5b8260000160008373ffffffffffffffffffffffffffffffffffffffff1673ffffffffffffffffffffffffffffffffffffffff16815260200190815260200160002060009054906101000a900460ff16905092915050565b61505880620003576000396000f3fe608060405234801561001057600080fd5b50600436106102065760003560e01c80638aa2ebe71161011a578063c50ebea5116100ad578063ee614f4e1161007c578063ee614f4e14611129578063f2fde38b14611288578063f426dc09146112cc578063f95e38ed14611490578063fce17375146114ec57610206565b8063c50ebea514610f07578063c602ab0e14610f37578063c795fd9714610f8f578063ee1916111461110757610206565b806392059468116100e95780639205946814610d7957806392781ef614610dd8578063b5d5530514610e5b578063be82d04e14610ec157610206565b80638aa2ebe714610c635780638da5cb5b14610cb35780638ecd588d14610cfd5780638f32d59b14610d5757610206565b806346fbf68e1161019d578063715018a61161016c578063715018a6146109d957806375fb3cbc146109e3578063820cb10214610a5157806382dc1ec414610c155780638456cb5914610c5957610206565b806346fbf68e1461092f5780635c975abb1461098b57806367ad7d81146109ad5780636ef8d66d146109cf57610206565b806320c2e13a116101d957806320c2e13a1461069b5780633704b0d31461073457806339b314c4146108025780633f4ba83a1461092557610206565b806301ca15921461020b5780630e733ef11461036a5780630fe1e1ef146105a55780631acf2eab1461067d575b600080fd5b6102376004803603602081101561022157600080fd5b8101908080359060200190929190505050611727565b604051808781526020018673ffffffffffffffffffffffffffffffffffffffff1673ffffffffffffffffffffffffffffffffffffffff168152602001851515151581526020018481526020018060200180602001838103835285818151815260200191508051906020019080838360005b838110156102c35780820151818401526020810190506102a8565b50505050905090810190601f1680156102f05780820380516001836020036101000a031916815260200191505b50838103825284818151815260200191508051906020019080838360005b8381101561032957808201518184015260208101905061030e565b50505050905090810190601f1680156103565780820380516001836020036101000a031916815260200191505b509850505050505050505060405180910390f35b6103ac6004803603602081101561038057600080fd5b81019080803573ffffffffffffffffffffffffffffffffffffffff1690602001909291905050506118c0565b60405180878152602001806020018060200180602001806020018673ffffffffffffffffffffffffffffffffffffffff1673ffffffffffffffffffffffffffffffffffffffff16815260200185810385528a818151815260200191508051906020019080838360005b83811015610430578082015181840152602081019050610415565b50505050905090810190601f16801561045d5780820380516001836020036101000a031916815260200191505b50858103845289818151815260200191508051906020019080838360005b8381101561049657808201518184015260208101905061047b565b50505050905090810190601f1680156104c35780820380516001836020036101000a031916815260200191505b50858103835288818151815260200191508051906020019080838360005b838110156104fc5780820151818401526020810190506104e1565b50505050905090810190601f1680156105295780820380516001836020036101000a031916815260200191505b50858103825287818151815260200191508051906020019080838360005b83811015610562578082015181840152602081019050610547565b50505050905090810190601f16801561058f5780820380516001836020036101000a031916815260200191505b509a505050505050505050505060405180910390f35b61067b600480360360608110156105bb57600080fd5b8101908080359060200190929190803590602001906401000000008111156105e257600080fd5b8201836020820111156105f457600080fd5b8035906020019184600183028401116401000000008311171561061657600080fd5b90919293919293908035906020019064010000000081111561063757600080fd5b82018360208201111561064957600080fd5b8035906020019184600183028401116401000000008311171561066b57600080fd5b9091929391929390505050611cfd565b005b61068561228f565b6040518082815260200191505060405180910390f35b6106dd600480360360208110156106b157600080fd5b81019080803573ffffffffffffffffffffffffffffffffffffffff169060200190929190505050612295565b6040518080602001828103825283818151815260200191508051906020019060200280838360005b83811015610720578082015181840152602081019050610705565b505050509050019250505060405180910390f35b6107ab6004803603602081101561074a57600080fd5b810190808035906020019064010000000081111561076757600080fd5b82018360208201111561077957600080fd5b8035906020019184600183028401116401000000008311171561079b57600080fd5b90919293919293905050506123ca565b6040518080602001828103825283818151815260200191508051906020019060200280838360005b838110156107ee5780820151818401526020810190506107d3565b505050509050019250505060405180910390f35b6109236004803603606081101561081857600080fd5b810190808035906020019064010000000081111561083557600080fd5b82018360208201111561084757600080fd5b8035906020019184600183028401116401000000008311171561086957600080fd5b90919293919293908035906020019064010000000081111561088a57600080fd5b82018360208201111561089c57600080fd5b803590602001918460018302840111640100000000831117156108be57600080fd5b9091929391929390803590602001906401000000008111156108df57600080fd5b8201836020820111156108f157600080fd5b8035906020019184600183028401116401000000008311171561091357600080fd5b9091929391929390505050612539565b005b61092d612acb565b005b6109716004803603602081101561094557600080fd5b81019080803573ffffffffffffffffffffffffffffffffffffffff169060200190929190505050612c39565b604051808215151515815260200191505060405180910390f35b610993612c56565b604051808215151515815260200191505060405180910390f35b6109b5612c6d565b604051808215151515815260200191505060405180910390f35b6109d7612c80565b005b6109e1612c92565b005b610a0f600480360360208110156109f957600080fd5b8101908080359060200190929190505050612dcb565b604051808273ffffffffffffffffffffffffffffffffffffffff1673ffffffffffffffffffffffffffffffffffffffff16815260200191505060405180910390f35b610a7d60048036036020811015610a6757600080fd5b8101908080359060200190929190505050612e07565b604051808781526020018673ffffffffffffffffffffffffffffffffffffffff1673ffffffffffffffffffffffffffffffffffffffff16815260200185151515158152602001806020018060200180602001848103845287818151815260200191508051906020019080838360005b83811015610b07578082015181840152602081019050610aec565b50505050905090810190601f168015610b345780820380516001836020036101000a031916815260200191505b50848103835286818151815260200191508051906020019080838360005b83811015610b6d578082015181840152602081019050610b52565b50505050905090810190601f168015610b9a5780820380516001836020036101000a031916815260200191505b50848103825285818151815260200191508051906020019080838360005b83811015610bd3578082015181840152602081019050610bb8565b50505050905090810190601f168015610c005780820380516001836020036101000a031916815260200191505b50995050505050505050505060405180910390f35b610c5760048036036020811015610c2b57600080fd5b81019080803573ffffffffffffffffffffffffffffffffffffffff169060200190929190505050613038565b005b610c616130a9565b005b610cb160048036036040811015610c7957600080fd5b81019080803515159060200190929190803573ffffffffffffffffffffffffffffffffffffffff169060200190929190505050613218565b005b610cbb6132ed565b604051808273ffffffffffffffffffffffffffffffffffffffff1673ffffffffffffffffffffffffffffffffffffffff16815260200191505060405180910390f35b610d5560048036036060811015610d1357600080fd5b8101908080359060200190929190803573ffffffffffffffffffffffffffffffffffffffff169060200190929190803515159060200190929190505050613316565b005b610d5f6136ea565b604051808215151515815260200191505060405180910390f35b610d81613748565b6040518080602001828103825283818151815260200191508051906020019060200280838360005b83811015610dc4578082015181840152602081019050610da9565b505050509050019250505060405180910390f35b610e0460048036036020811015610dee57600080fd5b81019080803590602001909291905050506137d6565b6040518080602001828103825283818151815260200191508051906020019060200280838360005b83811015610e47578082015181840152602081019050610e2c565b505050509050019250505060405180910390f35b610ea760048036036040811015610e7157600080fd5b8101908080359060200190929190803573ffffffffffffffffffffffffffffffffffffffff1690602001909291905050506138bf565b604051808215151515815260200191505060405180910390f35b610f0560048036036060811015610ed757600080fd5b81019080803515159060200190929190803515159060200190929190803590602001909291905050506138ee565b005b610f3560048036036020811015610f1d57600080fd5b810190808035151590602001909291905050506139d5565b005b610f7960048036036020811015610f4d57600080fd5b81019080803573ffffffffffffffffffffffffffffffffffffffff169060200190929190505050613aa7565b6040518082815260200191505060405180910390f35b61110560048036036080811015610fa557600080fd5b8101908080359060200190640100000000811115610fc257600080fd5b820183602082011115610fd457600080fd5b80359060200191846001830284011164010000000083111715610ff657600080fd5b90919293919293908035906020019064010000000081111561101757600080fd5b82018360208201111561102957600080fd5b8035906020019184600183028401116401000000008311171561104b57600080fd5b90919293919293908035906020019064010000000081111561106c57600080fd5b82018360208201111561107e57600080fd5b803590602001918460018302840111640100000000831117156110a057600080fd5b9091929391929390803590602001906401000000008111156110c157600080fd5b8201836020820111156110d357600080fd5b803590602001918460018302840111640100000000831117156110f557600080fd5b9091929391929390505050613abf565b005b61110f614051565b604051808215151515815260200191505060405180910390f35b6111556004803603602081101561113f57600080fd5b8101908080359060200190929190505050614068565b604051808781526020018673ffffffffffffffffffffffffffffffffffffffff1673ffffffffffffffffffffffffffffffffffffffff168152602001851515151581526020018481526020018060200180602001838103835285818151815260200191508051906020019080838360005b838110156111e15780820151818401526020810190506111c6565b50505050905090810190601f16801561120e5780820380516001836020036101000a031916815260200191505b50838103825284818151815260200191508051906020019080838360005b8381101561124757808201518184015260208101905061122c565b50505050905090810190601f1680156112745780820380516001836020036101000a031916815260200191505b509850505050505050505060405180910390f35b6112ca6004803603602081101561129e57600080fd5b81019080803573ffffffffffffffffffffffffffffffffffffffff169060200190929190505050614273565b005b6112f8600480360360208110156112e257600080fd5b81019080803590602001909291905050506142f9565b604051808781526020018673ffffffffffffffffffffffffffffffffffffffff1673ffffffffffffffffffffffffffffffffffffffff16815260200185151515158152602001806020018060200180602001848103845287818151815260200191508051906020019080838360005b83811015611382578082015181840152602081019050611367565b50505050905090810190601f1680156113af5780820380516001836020036101000a031916815260200191505b50848103835286818151815260200191508051906020019080838360005b838110156113e85780820151818401526020810190506113cd565b50505050905090810190601f1680156114155780820380516001836020036101000a031916815260200191505b50848103825285818151815260200191508051906020019080838360005b8381101561144e578082015181840152602081019050611433565b50505050905090810190601f16801561147b5780820380516001836020036101000a031916815260200191505b50995050505050505050505060405180910390f35b6114d2600480360360208110156114a657600080fd5b81019080803573ffffffffffffffffffffffffffffffffffffffff1690602001909291905050506145a0565b604051808215151515815260200191505060405180910390f35b61152e6004803603602081101561150257600080fd5b81019080803573ffffffffffffffffffffffffffffffffffffffff1690602001909291905050506145c0565b60405180878152602001806020018060200180602001806020018673ffffffffffffffffffffffffffffffffffffffff1673ffffffffffffffffffffffffffffffffffffffff16815260200185810385528a818151815260200191508051906020019080838360005b838110156115b2578082015181840152602081019050611597565b50505050905090810190601f1680156115df5780820380516001836020036101000a031916815260200191505b50858103845289818151815260200191508051906020019080838360005b838110156116185780820151818401526020810190506115fd565b50505050905090810190601f1680156116455780820380516001836020036101000a031916815260200191505b50858103835288818151815260200191508051906020019080838360005b8381101561167e578082015181840152602081019050611663565b50505050905090810190601f1680156116ab5780820380516001836020036101000a031916815260200191505b50858103825287818151815260200191508051906020019080838360005b838110156116e45780820151818401526020810190506116c9565b50505050905090810190601f1680156117115780820380516001836020036101000a031916815260200191505b509a505050505050505050505060405180910390f35b60046020528060005260406000206000915090508060000154908060010160009054906101000a900473ffffffffffffffffffffffffffffffffffffffff16908060010160149054906101000a900460ff1690806002015490806003018054600181600116156101000203166002900480601f0160208091040260200160405190810160405280929190818152602001828054600181600116156101000203166002900480156118185780601f106117ed57610100808354040283529160200191611818565b820191906000526020600020905b8154815290600101906020018083116117fb57829003601f168201915b505050505090806004018054600181600116156101000203166002900480601f0160208091040260200160405190810160405280929190818152602001828054600181600116156101000203166002900480156118b65780601f1061188b576101008083540402835291602001916118b6565b820191906000526020600020905b81548152906001019060200180831161189957829003601f168201915b5050505050905086565b60006060806060806000600560008873ffffffffffffffffffffffffffffffffffffffff1673ffffffffffffffffffffffffffffffffffffffff16815260200190815260200160002060000154600560008973ffffffffffffffffffffffffffffffffffffffff1673ffffffffffffffffffffffffffffffffffffffff168152602001908152602001600020600101600560008a73ffffffffffffffffffffffffffffffffffffffff1673ffffffffffffffffffffffffffffffffffffffff168152602001908152602001600020600201600560008b73ffffffffffffffffffffffffffffffffffffffff1673ffffffffffffffffffffffffffffffffffffffff168152602001908152602001600020600301600560008c73ffffffffffffffffffffffffffffffffffffffff1673ffffffffffffffffffffffffffffffffffffffff168152602001908152602001600020600401600560008d73ffffffffffffffffffffffffffffffffffffffff1673ffffffffffffffffffffffffffffffffffffffff16815260200190815260200160002060050160009054906101000a900473ffffffffffffffffffffffffffffffffffffffff16848054600181600116156101000203166002900480601f016020809104026020016040519081016040528092919081815260200182805460018160011615610100020316600290048015611b0d5780601f10611ae257610100808354040283529160200191611b0d565b820191906000526020600020905b815481529060010190602001808311611af057829003601f168201915b50505050509450838054600181600116156101000203166002900480601f016020809104026020016040519081016040528092919081815260200182805460018160011615610100020316600290048015611ba95780601f10611b7e57610100808354040283529160200191611ba9565b820191906000526020600020905b815481529060010190602001808311611b8c57829003601f168201915b50505050509350828054600181600116156101000203166002900480601f016020809104026020016040519081016040528092919081815260200182805460018160011615610100020316600290048015611c455780601f10611c1a57610100808354040283529160200191611c45565b820191906000526020600020905b815481529060010190602001808311611c2857829003601f168201915b50505050509250818054600181600116156101000203166002900480601f016020809104026020016040519081016040528092919081815260200182805460018160011615610100020316600290048015611ce15780601f10611cb657610100808354040283529160200191611ce1565b820191906000526020600020905b815481529060010190602001808311611cc457829003601f168201915b5050505050915095509550955095509550955091939550919395565b60011515600760003373ffffffffffffffffffffffffffffffffffffffff1673ffffffffffffffffffffffffffffffffffffffff16815260200190815260200160002060009054906101000a900460ff16151514611dc3576040517f08c379a00000000000000000000000000000000000000000000000000000000081526004018080602001828103825260148152602001807f6d65726368616e74206e6f7420616c6c6f77656400000000000000000000000081525060200191505060405180910390fd5b6000600560003373ffffffffffffffffffffffffffffffffffffffff1673ffffffffffffffffffffffffffffffffffffffff168152602001908152602001600020600001541415611e7c576040517f08c379a00000000000000000000000000000000000000000000000000000000081526004018080602001828103825260158152602001807f6d65726368616e74206e6f74206578697374656e74000000000000000000000081525060200191505060405180910390fd5b600260009054906101000a900460ff1615611eff576040517f08c379a00000000000000000000000000000000000000000000000000000000081526004018080602001828103825260108152602001807f5061757361626c653a207061757365640000000000000000000000000000000081525060200191505060405180910390fd5b84600115156003600083815260200190815260200160002060010160149054906101000a900460ff16151514611f9d576040517f08c379a00000000000000000000000000000000000000000000000000000000081526004018080602001828103825260168152602001807f686973746f7279206973206e6f7420656e61626c65640000000000000000000081525060200191505060405180910390fd5b600115156008600083815260200190815260200160002060003373ffffffffffffffffffffffffffffffffffffffff1673ffffffffffffffffffffffffffffffffffffffff16815260200190815260200160002060009054906101000a900460ff16151514612057576040517f08c379a0000000000000000000000000000000000000000000000000000000008152600401808060200182810382526027815260200180614f5e6027913960400191505060405180910390fd5b61205f614d7a565b6040518060c001604052804281526020013373ffffffffffffffffffffffffffffffffffffffff16815260200160011515815260200188815260200187878080601f016020809104026020016040519081016040528093929190818152602001838380828437600081840152601f19601f82011690508083019250505050505050815260200185858080601f016020809104026020016040519081016040528093929190818152602001838380828437600081840152601f19601f8201169050808301925050505050505081525090506121456001600a5461487c90919063ffffffff16565b600a819055508060046000600a5481526020019081526020016000206000820151816000015560208201518160010160006101000a81548173ffffffffffffffffffffffffffffffffffffffff021916908373ffffffffffffffffffffffffffffffffffffffff16021790555060408201518160010160146101000a81548160ff0219169083151502179055506060820151816002015560808201518160030190805190602001906121f8929190614dc8565b5060a0820151816004019080519060200190612215929190614dc8565b509050507fc9531abec1b2971850822fd66011263a07e4c59fb393fe0a6d63a84e886c8f6733600a54604051808373ffffffffffffffffffffffffffffffffffffffff1673ffffffffffffffffffffffffffffffffffffffff1681526020018281526020019250505060405180910390a150505050505050565b60095481565b6060600060095414156122da5760006040519080825280602002602001820160405280156122d25781602001602082028038833980820191505090505b5090506123c5565b606060095460405190808252806020026020018201604052801561230d5781602001602082028038833980820191505090505b50905060008090506000600190505b60095481116123be578473ffffffffffffffffffffffffffffffffffffffff166003600083815260200190815260200160002060010160009054906101000a900473ffffffffffffffffffffffffffffffffffffffff1673ffffffffffffffffffffffffffffffffffffffff1614156123b1578083838151811061239c57fe5b60200260200101818152505081806001019250505b808060010191505061231c565b8293505050505b919050565b60606000600954141561240f5760006040519080825280602002602001820160405280156124075781602001602082028038833980820191505090505b509050612533565b60606009546040519080825280602002602001820160405280156124425781602001602082028038833980820191505090505b50905060008090506000600190505b600954811161252c57858560405180838380828437808301925050509250505060405180910390206003600083815260200190815260200160002060020160405180828054600181600116156101000203166002900480156124ea5780601f106124c85761010080835404028352918201916124ea565b820191906000526020600020905b8154815290600101906020018083116124d6575b50509150506040518091039020141561251f578083838151811061250a57fe5b60200260200101818152505081806001019250505b8080600101915050612451565b8293505050505b92915050565b60011515600760003373ffffffffffffffffffffffffffffffffffffffff1673ffffffffffffffffffffffffffffffffffffffff16815260200190815260200160002060009054906101000a900460ff161515146125ff576040517f08c379a00000000000000000000000000000000000000000000000000000000081526004018080602001828103825260148152602001807f6d65726368616e74206e6f7420616c6c6f77656400000000000000000000000081525060200191505060405180910390fd5b6000600560003373ffffffffffffffffffffffffffffffffffffffff1673ffffffffffffffffffffffffffffffffffffffff1681526020019081526020016000206000015414156126b8576040517f08c379a00000000000000000000000000000000000000000000000000000000081526004018080602001828103825260158152602001807f6d65726368616e74206e6f74206578697374656e74000000000000000000000081525060200191505060405180910390fd5b600260009054906101000a900460ff161561273b576040517f08c379a00000000000000000000000000000000000000000000000000000000081526004018080602001828103825260108152602001807f5061757361626c653a207061757365640000000000000000000000000000000081525060200191505060405180910390fd5b612743614e48565b6040518060c001604052804281526020013373ffffffffffffffffffffffffffffffffffffffff16815260200160011515815260200188888080601f016020809104026020016040519081016040528093929190818152602001838380828437600081840152601f19601f82011690508083019250505050505050815260200186868080601f016020809104026020016040519081016040528093929190818152602001838380828437600081840152601f19601f82011690508083019250505050505050815260200184848080601f016020809104026020016040519081016040528093929190818152602001838380828437600081840152601f19601f82011690508083019250505050505050815250905061286d600160095461487c90919063ffffffff16565b6009819055506128c66001600b60003373ffffffffffffffffffffffffffffffffffffffff1673ffffffffffffffffffffffffffffffffffffffff1681526020019081526020016000205461487c90919063ffffffff16565b600b60003373ffffffffffffffffffffffffffffffffffffffff1673ffffffffffffffffffffffffffffffffffffffff16815260200190815260200160002081905550806003600060095481526020019081526020016000206000820151816000015560208201518160010160006101000a81548173ffffffffffffffffffffffffffffffffffffffff021916908373ffffffffffffffffffffffffffffffffffffffff16021790555060408201518160010160146101000a81548160ff02191690831515021790555060608201518160020190805190602001906129ac929190614dc8565b5060808201518160030190805190602001906129c9929190614dc8565b5060a08201518160040190805190602001906129e6929190614dc8565b50905050600160086000600954815260200190815260200160002060003373ffffffffffffffffffffffffffffffffffffffff1673ffffffffffffffffffffffffffffffffffffffff16815260200190815260200160002060006101000a81548160ff0219169083151502179055507fb974717ac4a3b808af727862a1db5552b3943661e6d8ad5f56fc2fe3828a6ab233600954604051808373ffffffffffffffffffffffffffffffffffffffff1673ffffffffffffffffffffffffffffffffffffffff1681526020018281526020019250505060405180910390a150505050505050565b612adb612ad6614904565b612c39565b612b30576040517f08c379a0000000000000000000000000000000000000000000000000000000008152600401808060200182810382526030815260200180614f086030913960400191505060405180910390fd5b600260009054906101000a900460ff16612bb2576040517f08c379a00000000000000000000000000000000000000000000000000000000081526004018080602001828103825260148152602001807f5061757361626c653a206e6f742070617573656400000000000000000000000081525060200191505060405180910390fd5b6000600260006101000a81548160ff0219169083151502179055507f5db9ee0a495bf2e6ff9c91a7834c1ba4fdd244a5e8aa4e537bd38aeae4b073aa612bf6614904565b604051808273ffffffffffffffffffffffffffffffffffffffff1673ffffffffffffffffffffffffffffffffffffffff16815260200191505060405180910390a1565b6000612c4f82600161490c90919063ffffffff16565b9050919050565b6000600260009054906101000a900460ff16905090565b600660009054906101000a900460ff1681565b612c90612c8b614904565b6149ea565b565b612c9a6136ea565b612d0c576040517f08c379a00000000000000000000000000000000000000000000000000000000081526004018080602001828103825260208152602001807f4f776e61626c653a2063616c6c6572206973206e6f7420746865206f776e657281525060200191505060405180910390fd5b600073ffffffffffffffffffffffffffffffffffffffff166000809054906101000a900473ffffffffffffffffffffffffffffffffffffffff1673ffffffffffffffffffffffffffffffffffffffff167f8be0079c531659141344cd1fd0a4f28419497f9722a3daafe3b4186f6b6457e060405160405180910390a360008060006101000a81548173ffffffffffffffffffffffffffffffffffffffff021916908373ffffffffffffffffffffffffffffffffffffffff160217905550565b600c8181548110612dd857fe5b906000526020600020016000915054906101000a900473ffffffffffffffffffffffffffffffffffffffff1681565b60036020528060005260406000206000915090508060000154908060010160009054906101000a900473ffffffffffffffffffffffffffffffffffffffff16908060010160149054906101000a900460ff1690806002018054600181600116156101000203166002900480601f016020809104026020016040519081016040528092919081815260200182805460018160011615610100020316600290048015612ef25780601f10612ec757610100808354040283529160200191612ef2565b820191906000526020600020905b815481529060010190602001808311612ed557829003601f168201915b505050505090806003018054600181600116156101000203166002900480601f016020809104026020016040519081016040528092919081815260200182805460018160011615610100020316600290048015612f905780601f10612f6557610100808354040283529160200191612f90565b820191906000526020600020905b815481529060010190602001808311612f7357829003601f168201915b505050505090806004018054600181600116156101000203166002900480601f01602080910402602001604051908101604052809291908181526020018280546001816001161561010002031660029004801561302e5780601f106130035761010080835404028352916020019161302e565b820191906000526020600020905b81548152906001019060200180831161301157829003601f168201915b5050505050905086565b613048613043614904565b612c39565b61309d576040517f08c379a0000000000000000000000000000000000000000000000000000000008152600401808060200182810382526030815260200180614f086030913960400191505060405180910390fd5b6130a681614a44565b50565b6130b96130b4614904565b612c39565b61310e576040517f08c379a0000000000000000000000000000000000000000000000000000000008152600401808060200182810382526030815260200180614f086030913960400191505060405180910390fd5b600260009054906101000a900460ff1615613191576040517f08c379a00000000000000000000000000000000000000000000000000000000081526004018080602001828103825260108152602001807f5061757361626c653a207061757365640000000000000000000000000000000081525060200191505060405180910390fd5b6001600260006101000a81548160ff0219169083151502179055507f62e78cea01bee320cd4e420270b5ea74000d11b0c9f74754ebdbfc544b05a2586131d5614904565b604051808273ffffffffffffffffffffffffffffffffffffffff1673ffffffffffffffffffffffffffffffffffffffff16815260200191505060405180910390a1565b6132206136ea565b613292576040517f08c379a00000000000000000000000000000000000000000000000000000000081526004018080602001828103825260208152602001807f4f776e61626c653a2063616c6c6572206973206e6f7420746865206f776e657281525060200191505060405180910390fd5b81600760008373ffffffffffffffffffffffffffffffffffffffff1673ffffffffffffffffffffffffffffffffffffffff16815260200190815260200160002060006101000a81548160ff0219169083151502179055505050565b60008060009054906101000a900473ffffffffffffffffffffffffffffffffffffffff16905090565b60011515600760003373ffffffffffffffffffffffffffffffffffffffff1673ffffffffffffffffffffffffffffffffffffffff16815260200190815260200160002060009054906101000a900460ff161515146133dc576040517f08c379a00000000000000000000000000000000000000000000000000000000081526004018080602001828103825260148152602001807f6d65726368616e74206e6f7420616c6c6f77656400000000000000000000000081525060200191505060405180910390fd5b6000600560003373ffffffffffffffffffffffffffffffffffffffff1673ffffffffffffffffffffffffffffffffffffffff168152602001908152602001600020600001541415613495576040517f08c379a00000000000000000000000000000000000000000000000000000000081526004018080602001828103825260158152602001807f6d65726368616e74206e6f74206578697374656e74000000000000000000000081525060200191505060405180910390fd5b600260009054906101000a900460ff1615613518576040517f08c379a00000000000000000000000000000000000000000000000000000000081526004018080602001828103825260108152602001807f5061757361626c653a207061757365640000000000000000000000000000000081525060200191505060405180910390fd5b3373ffffffffffffffffffffffffffffffffffffffff166003600085815260200190815260200160002060010160009054906101000a900473ffffffffffffffffffffffffffffffffffffffff1673ffffffffffffffffffffffffffffffffffffffff16146135d2576040517f08c379a0000000000000000000000000000000000000000000000000000000008152600401808060200182810382526031815260200180614ff36031913960400191505060405180910390fd5b806008600085815260200190815260200160002060008473ffffffffffffffffffffffffffffffffffffffff1673ffffffffffffffffffffffffffffffffffffffff16815260200190815260200160002060006101000a81548160ff0219169083151502179055507fab8a7127a45e8656fb62040878112606b7e3c1e7557a40a37ba7bcda26c24dce33848484604051808573ffffffffffffffffffffffffffffffffffffffff1673ffffffffffffffffffffffffffffffffffffffff1681526020018481526020018373ffffffffffffffffffffffffffffffffffffffff1673ffffffffffffffffffffffffffffffffffffffff1681526020018215151515815260200194505050505060405180910390a1505050565b60008060009054906101000a900473ffffffffffffffffffffffffffffffffffffffff1673ffffffffffffffffffffffffffffffffffffffff1661372c614904565b73ffffffffffffffffffffffffffffffffffffffff1614905090565b6060600c8054806020026020016040519081016040528092919081815260200182805480156137cc57602002820191906000526020600020905b8160009054906101000a900473ffffffffffffffffffffffffffffffffffffffff1673ffffffffffffffffffffffffffffffffffffffff1681526020019060010190808311613782575b5050505050905090565b60606000600a54141561381b5760006040519080825280602002602001820160405280156138135781602001602082028038833980820191505090505b5090506138ba565b6060600a5460405190808252806020026020018201604052801561384e5781602001602082028038833980820191505090505b50905060008090506000600190505b600a5481116138b35784600460008381526020019081526020016000206002015414156138a6578083838151811061389157fe5b60200260200101818152505081806001019250505b808060010191505061385d565b8293505050505b919050565b60086020528160005260406000206020528060005260406000206000915091509054906101000a900460ff1681565b6138f66136ea565b613968576040517f08c379a00000000000000000000000000000000000000000000000000000000081526004018080602001828103825260208152602001807f4f776e61626c653a2063616c6c6572206973206e6f7420746865206f776e657281525060200191505060405180910390fd5b81156139a157826004600083815260200190815260200160002060010160146101000a81548160ff0219169083151502179055506139d0565b826003600083815260200190815260200160002060010160146101000a81548160ff0219169083151502179055505b505050565b6139dd6136ea565b613a4f576040517f08c379a00000000000000000000000000000000000000000000000000000000081526004018080602001828103825260208152602001807f4f776e61626c653a2063616c6c6572206973206e6f7420746865206f776e657281525060200191505060405180910390fd5b80600660006101000a81548160ff0219169083151502179055507fec01ceafe64702521dfd29c26f757c5dd1f11fdcdc44728ec08cbe3ef2cd243f81604051808215151515815260200191505060405180910390a150565b600b6020528060005260406000206000915090505481565b60011515600660009054906101000a900460ff1615151415613b855760011515600760003373ffffffffffffffffffffffffffffffffffffffff1673ffffffffffffffffffffffffffffffffffffffff16815260200190815260200160002060009054906101000a900460ff16151514613b84576040517f08c379a000000000000000000000000000000000000000000000000000000000815260040180806020018281038252602b815260200180614f85602b913960400191505060405180910390fd5b5b6000600560003373ffffffffffffffffffffffffffffffffffffffff1673ffffffffffffffffffffffffffffffffffffffff1681526020019081526020016000206000015414613c3d576040517f08c379a00000000000000000000000000000000000000000000000000000000081526004018080602001828103825260168152602001807f4475706c696361746573206e6f7420616c6c6f7765640000000000000000000081525060200191505060405180910390fd5b600260009054906101000a900460ff1615613cc0576040517f08c379a00000000000000000000000000000000000000000000000000000000081526004018080602001828103825260108152602001807f5061757361626c653a207061757365640000000000000000000000000000000081525060200191505060405180910390fd5b613cc8614e96565b6040518060c001604052804281526020018a8a8080601f016020809104026020016040519081016040528093929190818152602001838380828437600081840152601f19601f82011690508083019250505050505050815260200188888080601f016020809104026020016040519081016040528093929190818152602001838380828437600081840152601f19601f82011690508083019250505050505050815260200186868080601f016020809104026020016040519081016040528093929190818152602001838380828437600081840152601f19601f82011690508083019250505050505050815260200184848080601f016020809104026020016040519081016040528093929190818152602001838380828437600081840152601f19601f8201169050808301925050505050505081526020013373ffffffffffffffffffffffffffffffffffffffff16815250905080600560003373ffffffffffffffffffffffffffffffffffffffff1673ffffffffffffffffffffffffffffffffffffffff168152602001908152602001600020600082015181600001556020820151816001019080519060200190613e83929190614dc8565b506040820151816002019080519060200190613ea0929190614dc8565b506060820151816003019080519060200190613ebd929190614dc8565b506080820151816004019080519060200190613eda929190614dc8565b5060a08201518160050160006101000a81548173ffffffffffffffffffffffffffffffffffffffff021916908373ffffffffffffffffffffffffffffffffffffffff1602179055509050506001600760003373ffffffffffffffffffffffffffffffffffffffff1673ffffffffffffffffffffffffffffffffffffffff16815260200190815260200160002060006101000a81548160ff021916908315150217905550600c3390806001815401808255809150509060018203906000526020600020016000909192909190916101000a81548173ffffffffffffffffffffffffffffffffffffffff021916908373ffffffffffffffffffffffffffffffffffffffff160217905550507fb465630b27a35fed42f277bd1c89a110334670d97c1277c4455f55266862721833604051808273ffffffffffffffffffffffffffffffffffffffff1673ffffffffffffffffffffffffffffffffffffffff16815260200191505060405180910390a1505050505050505050565b6000600660009054906101000a900460ff16905090565b60008060008060608060046000888152602001908152602001600020600001546004600089815260200190815260200160002060010160009054906101000a900473ffffffffffffffffffffffffffffffffffffffff16600460008a815260200190815260200160002060010160149054906101000a900460ff16600460008b815260200190815260200160002060020154600460008c8152602001908152602001600020600301600460008d8152602001908152602001600020600401818054600181600116156101000203166002900480601f0160208091040260200160405190810160405280929190818152602001828054600181600116156101000203166002900480156141bb5780601f10614190576101008083540402835291602001916141bb565b820191906000526020600020905b81548152906001019060200180831161419e57829003601f168201915b50505050509150808054600181600116156101000203166002900480601f0160208091040260200160405190810160405280929190818152602001828054600181600116156101000203166002900480156142575780601f1061422c57610100808354040283529160200191614257565b820191906000526020600020905b81548152906001019060200180831161423a57829003601f168201915b5050505050905095509550955095509550955091939550919395565b61427b6136ea565b6142ed576040517f08c379a00000000000000000000000000000000000000000000000000000000081526004018080602001828103825260208152602001807f4f776e61626c653a2063616c6c6572206973206e6f7420746865206f776e657281525060200191505060405180910390fd5b6142f681614a9e565b50565b6000806000606080606060036000888152602001908152602001600020600001546003600089815260200190815260200160002060010160009054906101000a900473ffffffffffffffffffffffffffffffffffffffff16600360008a815260200190815260200160002060010160149054906101000a900460ff16600360008b8152602001908152602001600020600201600360008c8152602001908152602001600020600301600360008d8152602001908152602001600020600401828054600181600116156101000203166002900480601f01602080910402602001604051908101604052809291908181526020018280546001816001161561010002031660029004801561444c5780601f106144215761010080835404028352916020019161444c565b820191906000526020600020905b81548152906001019060200180831161442f57829003601f168201915b50505050509250818054600181600116156101000203166002900480601f0160208091040260200160405190810160405280929190818152602001828054600181600116156101000203166002900480156144e85780601f106144bd576101008083540402835291602001916144e8565b820191906000526020600020905b8154815290600101906020018083116144cb57829003601f168201915b50505050509150808054600181600116156101000203166002900480601f0160208091040260200160405190810160405280929190818152602001828054600181600116156101000203166002900480156145845780601f1061455957610100808354040283529160200191614584565b820191906000526020600020905b81548152906001019060200180831161456757829003601f168201915b5050505050905095509550955095509550955091939550919395565b60076020528060005260406000206000915054906101000a900460ff1681565b6005602052806000526040600020600091509050806000015490806001018054600181600116156101000203166002900480601f0160208091040260200160405190810160405280929190818152602001828054600181600116156101000203166002900480156146725780601f1061464757610100808354040283529160200191614672565b820191906000526020600020905b81548152906001019060200180831161465557829003601f168201915b505050505090806002018054600181600116156101000203166002900480601f0160208091040260200160405190810160405280929190818152602001828054600181600116156101000203166002900480156147105780601f106146e557610100808354040283529160200191614710565b820191906000526020600020905b8154815290600101906020018083116146f357829003601f168201915b505050505090806003018054600181600116156101000203166002900480601f0160208091040260200160405190810160405280929190818152602001828054600181600116156101000203166002900480156147ae5780601f10614783576101008083540402835291602001916147ae565b820191906000526020600020905b81548152906001019060200180831161479157829003601f168201915b505050505090806004018054600181600116156101000203166002900480601f01602080910402602001604051908101604052809291908181526020018280546001816001161561010002031660029004801561484c5780601f106148215761010080835404028352916020019161484c565b820191906000526020600020905b81548152906001019060200180831161482f57829003601f168201915b5050505050908060050160009054906101000a900473ffffffffffffffffffffffffffffffffffffffff16905086565b6000808284019050838110156148fa576040517f08c379a000000000000000000000000000000000000000000000000000000000815260040180806020018281038252601b8152602001807f536166654d6174683a206164646974696f6e206f766572666c6f77000000000081525060200191505060405180910390fd5b8091505092915050565b600033905090565b60008073ffffffffffffffffffffffffffffffffffffffff168273ffffffffffffffffffffffffffffffffffffffff161415614993576040517f08c379a0000000000000000000000000000000000000000000000000000000008152600401808060200182810382526022815260200180614fd16022913960400191505060405180910390fd5b8260000160008373ffffffffffffffffffffffffffffffffffffffff1673ffffffffffffffffffffffffffffffffffffffff16815260200190815260200160002060009054906101000a900460ff16905092915050565b6149fe816001614be290919063ffffffff16565b8073ffffffffffffffffffffffffffffffffffffffff167fcd265ebaf09df2871cc7bd4133404a235ba12eff2041bb89d9c714a2621c7c7e60405160405180910390a250565b614a58816001614c9f90919063ffffffff16565b8073ffffffffffffffffffffffffffffffffffffffff167f6719d08c1888103bea251a4ed56406bd0c3e69723c8a1686e017e7bbe159b6f860405160405180910390a250565b600073ffffffffffffffffffffffffffffffffffffffff168173ffffffffffffffffffffffffffffffffffffffff161415614b24576040517f08c379a0000000000000000000000000000000000000000000000000000000008152600401808060200182810382526026815260200180614f386026913960400191505060405180910390fd5b8073ffffffffffffffffffffffffffffffffffffffff166000809054906101000a900473ffffffffffffffffffffffffffffffffffffffff1673ffffffffffffffffffffffffffffffffffffffff167f8be0079c531659141344cd1fd0a4f28419497f9722a3daafe3b4186f6b6457e060405160405180910390a3806000806101000a81548173ffffffffffffffffffffffffffffffffffffffff021916908373ffffffffffffffffffffffffffffffffffffffff16021790555050565b614bec828261490c565b614c41576040517f08c379a0000000000000000000000000000000000000000000000000000000008152600401808060200182810382526021815260200180614fb06021913960400191505060405180910390fd5b60008260000160008373ffffffffffffffffffffffffffffffffffffffff1673ffffffffffffffffffffffffffffffffffffffff16815260200190815260200160002060006101000a81548160ff0219169083151502179055505050565b614ca9828261490c565b15614d1c576040517f08c379a000000000000000000000000000000000000000000000000000000000815260040180806020018281038252601f8152602001807f526f6c65733a206163636f756e7420616c72656164792068617320726f6c650081525060200191505060405180910390fd5b60018260000160008373ffffffffffffffffffffffffffffffffffffffff1673ffffffffffffffffffffffffffffffffffffffff16815260200190815260200160002060006101000a81548160ff0219169083151502179055505050565b6040518060c0016040528060008152602001600073ffffffffffffffffffffffffffffffffffffffff1681526020016000151581526020016000815260200160608152602001606081525090565b828054600181600116156101000203166002900490600052602060002090601f016020900481019282601f10614e0957805160ff1916838001178555614e37565b82800160010185558215614e37579182015b82811115614e36578251825591602001919060010190614e1b565b5b509050614e449190614ee2565b5090565b6040518060c0016040528060008152602001600073ffffffffffffffffffffffffffffffffffffffff1681526020016000151581526020016060815260200160608152602001606081525090565b6040518060c001604052806000815260200160608152602001606081526020016060815260200160608152602001600073ffffffffffffffffffffffffffffffffffffffff1681525090565b614f0491905b80821115614f00576000816000905550600101614ee8565b5090565b9056fe506175736572526f6c653a2063616c6c657220646f6573206e6f742068617665207468652050617573657220726f6c654f776e61626c653a206e6577206f776e657220697320746865207a65726f20616464726573736e6f7420616c6c6f77656420746f2065646974207468652070726f6475637420686973746f7279796f7520617265206e6f7420616c6c6f77656420746f206372656174652061206e6577206163636f756e74526f6c65733a206163636f756e7420646f6573206e6f74206861766520726f6c65526f6c65733a206163636f756e7420697320746865207a65726f20616464726573736f6e6c792074686520686973746f7279206f776e65722063616e20746f67676c65206f74686572206d65726368616e7473a265627a7a723158200d6482d698bedd1abba7bfc9aae8c7dc401e0b5ec75a1b7d6cbbdfc4848cf7c564736f6c63430005110032526f6c65733a206163636f756e7420697320746865207a65726f2061646472657373",
  "source": "pragma solidity ^0.5.0;\r\n\r\nimport \"@openzeppelin/contracts/ownership/Ownable.sol\";\r\nimport \"@openzeppelin/contracts/lifecycle/Pausable.sol\";\r\nimport \"@openzeppelin/contracts/math/SafeMath.sol\";\r\n\r\ncontract Devoleum is Ownable, Pausable {\r\n    using SafeMath for uint256;\r\n\r\n    //STRUCT MAPPINGS\r\n    mapping(uint256 => History) public historyIdToHistoryInfo;\r\n    mapping(uint256 => Step) public stepIdToStepInfo;\r\n    mapping(address => Merchant) public addressToMerchant;\r\n\r\n    //PERMISSIONED TO SIGNUP\r\n    bool public signupPermissioned = false;\r\n\r\n    //PERMISSION\r\n    mapping(address => bool) public merchantPermission; //only for permissioned signup\r\n\r\n    mapping(uint256 => mapping(address => bool))\r\n        public historyIdToPermissionedMerchants;\r\n\r\n    //COUNTERS\r\n    uint256 public historiesCounter = 0;\r\n    uint256 private stepsCounter = 0;\r\n    mapping(address => uint256) public merchantAddressToHistoriesCounter;\r\n\r\n    //LISTS\r\n    address[] public merchantsList;\r\n\r\n    //MERCHANT SECTION\r\n    function getMerchantsList() external view returns (address[] memory) {\r\n        return merchantsList;\r\n    }\r\n\r\n    struct Merchant {\r\n        uint256 createdAt;\r\n        string name;\r\n        string category;\r\n        string websiteUrl;\r\n        string URI;\r\n        address owner;\r\n    }\r\n\r\n    modifier isMerchantNotExistent() {\r\n        require(\r\n            addressToMerchant[msg.sender].createdAt == 0,\r\n            \"Duplicates not allowed\"\r\n        );\r\n        _;\r\n    }\r\n\r\n    modifier isSignupPermissioned() {\r\n        if (signupPermissioned == true) {\r\n            require(\r\n                merchantPermission[msg.sender] == true,\r\n                \"you are not allowed to create a new account\"\r\n            );\r\n        }\r\n        _;\r\n    }\r\n\r\n    modifier isMerchantEnabled() {\r\n        require(merchantPermission[msg.sender] == true, \"merchant not allowed\");\r\n        require(addressToMerchant[msg.sender].createdAt != 0, \"merchant not existent\");\r\n        _;\r\n    }\r\n\r\n    modifier isAllowedToAddStep(uint256 _id) {\r\n        require(historyIdToHistoryInfo[_id].enabled == true, \"history is not enabled\");\r\n        require(\r\n            historyIdToPermissionedMerchants[_id][msg.sender] == true,\r\n            \"not allowed to edit the product history\"\r\n        );\r\n        _;\r\n    }\r\n\r\n    event MerchantCreated(address _owner);\r\n\r\n    function createMerchant(\r\n        string calldata _name,\r\n        string calldata _category,\r\n        string calldata _websiteUrl,\r\n        string calldata _URI\r\n    ) external isSignupPermissioned isMerchantNotExistent whenNotPaused {\r\n        Merchant memory newMerchant = Merchant(\r\n            now,\r\n            _name,\r\n            _category,\r\n            _websiteUrl,\r\n            _URI,\r\n            msg.sender\r\n        );\r\n        addressToMerchant[msg.sender] = newMerchant;\r\n        merchantPermission[msg.sender] = true;\r\n        merchantsList.push(msg.sender);\r\n        emit MerchantCreated(msg.sender);\r\n    }\r\n\r\n    struct History {\r\n        uint256 createdAt;\r\n        address merchantAdr;\r\n        bool enabled;\r\n        string category;\r\n        string hashOfJson;\r\n        string URI;\r\n    }\r\n\r\n    event HistoryCreated(address _owner, uint256 _id);\r\n\r\n    //HISTORY SECTION\r\n    function createHistory(\r\n        string calldata _category,\r\n        string calldata _hashOfJson,\r\n        string calldata _URI\r\n    ) external isMerchantEnabled whenNotPaused {\r\n        History memory newHistory = History(\r\n            now,\r\n            msg.sender,\r\n            true,\r\n            _category,\r\n            _hashOfJson,\r\n            _URI\r\n        );\r\n        historiesCounter = historiesCounter.add(1);\r\n        merchantAddressToHistoriesCounter[msg\r\n            .sender] = merchantAddressToHistoriesCounter[msg.sender].add(1);\r\n        historyIdToHistoryInfo[historiesCounter] = newHistory;\r\n        historyIdToPermissionedMerchants[historiesCounter][msg.sender] = true;\r\n        emit HistoryCreated(msg.sender, historiesCounter);\r\n    }\r\n\r\n    //STEP SECTION\r\n\r\n    struct Step {\r\n        uint256 createdAt;\r\n        address merchantAdr;\r\n        bool enabled;\r\n        uint256 historyID;\r\n        string hashOfJson;\r\n        string URI;\r\n    }\r\n\r\n    event StepCreated(address _owner, uint256 _id);\r\n\r\n    function createStep(\r\n        uint256 _historyID,\r\n        string calldata _hashOfJson,\r\n        string calldata _URI\r\n    ) external isMerchantEnabled whenNotPaused isAllowedToAddStep(_historyID) {\r\n        Step memory newStep = Step(\r\n            now,\r\n            msg.sender,\r\n            true,\r\n            _historyID,\r\n            _hashOfJson,\r\n            _URI\r\n        );\r\n        stepsCounter = stepsCounter.add(1);\r\n        stepIdToStepInfo[stepsCounter] = newStep;\r\n        emit StepCreated(msg.sender, stepsCounter);\r\n    }\r\n\r\n    event MerchantToggled(\r\n        address _owner,\r\n        uint256 _historyID,\r\n        address _target,\r\n        bool _isEnabled\r\n    );\r\n\r\n    function toggleHistoryMerchant(\r\n        uint256 _historyID,\r\n        address _target,\r\n        bool _toggle\r\n    ) external isMerchantEnabled whenNotPaused {\r\n        require(\r\n            historyIdToHistoryInfo[_historyID].merchantAdr == msg.sender,\r\n            \"only the history owner can toggle other merchants\"\r\n        );\r\n        historyIdToPermissionedMerchants[_historyID][_target] = _toggle;\r\n        emit MerchantToggled(msg.sender, _historyID, _target, _toggle);\r\n    }\r\n\r\n    // GETTERS SECTION\r\n    function getMerchantInfo(address _merchantAdr)\r\n        external\r\n        view\r\n        returns (\r\n            uint256 createdAt,\r\n            string memory merchantName,\r\n            string memory category,\r\n            string memory websiteUrl,\r\n            string memory URI,\r\n            address owner\r\n        )\r\n    {\r\n        return (\r\n            addressToMerchant[_merchantAdr].createdAt,\r\n            addressToMerchant[_merchantAdr].name,\r\n            addressToMerchant[_merchantAdr].category,\r\n            addressToMerchant[_merchantAdr].websiteUrl,\r\n            addressToMerchant[_merchantAdr].URI,\r\n            addressToMerchant[_merchantAdr].owner\r\n        );\r\n    }\r\n\r\n    function getHistoryInfo(uint256 _id)\r\n        external\r\n        view\r\n        returns (\r\n            uint256 createdAt,\r\n            address merchantAdr,\r\n            bool enabled,\r\n            string memory category,\r\n            string memory hashOfJson,\r\n            string memory URI\r\n        )\r\n    {\r\n        return (\r\n            historyIdToHistoryInfo[_id].createdAt,\r\n            historyIdToHistoryInfo[_id].merchantAdr,\r\n            historyIdToHistoryInfo[_id].enabled,\r\n            historyIdToHistoryInfo[_id].category,\r\n            historyIdToHistoryInfo[_id].hashOfJson,\r\n            historyIdToHistoryInfo[_id].URI\r\n        );\r\n    }\r\n\r\n    function getStepInfo(uint256 _id)\r\n        external\r\n        view\r\n        returns (\r\n            uint256 createdAt,\r\n            address merchantAdr,\r\n            bool enabled,\r\n            uint256 historyID,\r\n            string memory hashOfJson,\r\n            string memory URI\r\n        )\r\n    {\r\n        return (\r\n            stepIdToStepInfo[_id].createdAt,\r\n            stepIdToStepInfo[_id].merchantAdr,\r\n            stepIdToStepInfo[_id].enabled,\r\n            stepIdToStepInfo[_id].historyID,\r\n            stepIdToStepInfo[_id].hashOfJson,\r\n            stepIdToStepInfo[_id].URI\r\n        );\r\n    }\r\n\r\n    function historiesOfMerchant(address _owner)\r\n        external\r\n        view\r\n        returns (uint256[] memory ownerHistories)\r\n    {\r\n        if (historiesCounter == 0) {\r\n            return new uint256[](0);\r\n        } else {\r\n            uint256[] memory result = new uint256[](historiesCounter);\r\n            uint256 resultIndex = 0;\r\n            uint256 itemId;\r\n\r\n            for (itemId = 1; itemId <= historiesCounter; itemId++) {\r\n                if (historyIdToHistoryInfo[itemId].merchantAdr == _owner) {\r\n                    result[resultIndex] = itemId;\r\n                    resultIndex++;\r\n                }\r\n            }\r\n\r\n            return result;\r\n        }\r\n    }\r\n\r\n    function historiesOfCategory(string calldata _category)\r\n        external\r\n        view\r\n        returns (uint256[] memory ownerHistories)\r\n    {\r\n        if (historiesCounter == 0) {\r\n            return new uint256[](0);\r\n        } else {\r\n            uint256[] memory result = new uint256[](historiesCounter);\r\n            uint256 resultIndex = 0;\r\n            uint256 itemId;\r\n\r\n            for (itemId = 1; itemId <= historiesCounter; itemId++) {\r\n                if (\r\n                    keccak256(bytes(historyIdToHistoryInfo[itemId].category)) ==\r\n                    keccak256(bytes(_category))\r\n                ) {\r\n                    result[resultIndex] = itemId;\r\n                    resultIndex++;\r\n                }\r\n            }\r\n\r\n            return result;\r\n        }\r\n    }\r\n\r\n    function stepsOfHistory(uint256 _historyID)\r\n        external\r\n        view\r\n        returns (uint256[] memory ownerHistories)\r\n    {\r\n        if (stepsCounter == 0) {\r\n            return new uint256[](0);\r\n        } else {\r\n            uint256[] memory result = new uint256[](stepsCounter);\r\n            uint256 resultIndex = 0;\r\n            uint256 itemId;\r\n\r\n            for (itemId = 1; itemId <= stepsCounter; itemId++) {\r\n                if (stepIdToStepInfo[itemId].historyID == _historyID) {\r\n                    result[resultIndex] = itemId;\r\n                    resultIndex++;\r\n                }\r\n            }\r\n\r\n            return result;\r\n        }\r\n    }\r\n\r\n    //OWNER SECTION\r\n\r\n    event changePermissioned(bool _permissioned);\r\n\r\n    function getPermissionedStatus()\r\n        external\r\n        view\r\n        returns (bool _signupPermissioned)\r\n    {\r\n        return signupPermissioned;\r\n    }\r\n\r\n    function toggleSignupPermissioned(bool _permissioned) external onlyOwner() {\r\n        signupPermissioned = _permissioned;\r\n        emit changePermissioned(_permissioned);\r\n    }\r\n\r\n    function toggleMerchantPermission(bool _permission, address _target)\r\n        external\r\n        onlyOwner()\r\n    {\r\n        merchantPermission[_target] = _permission;\r\n    }\r\n\r\n    function toggleAsset(\r\n        bool _permission,\r\n        bool _isStep,\r\n        uint256 _id\r\n    ) external onlyOwner() {\r\n        if (_isStep) {\r\n            stepIdToStepInfo[_id].enabled = _permission;\r\n        } else {\r\n            historyIdToHistoryInfo[_id].enabled = _permission;\r\n        }\r\n    }\r\n}\r\n",
  "sourcePath": "C:\\Users\\Elisa\\Desktop\\GitHub\\react-devoleum-simulation\\contracts\\Devoleum.sol",
  "compiler": {
    "name": "solc",
    "version": "0.5.17+commit.d19bba13.Emscripten.clang"
  },
  "schemaVersion": "3.2.0",
  "updatedAt": "2020-08-14T15:34:02.453Z",
  "networkType": "ethereum",
  "devdoc": {
    "methods": {
      "isOwner()": {
        "details": "Returns true if the caller is the current owner."
      },
      "owner()": {
        "details": "Returns the address of the current owner."
      },
      "pause()": {
        "details": "Called by a pauser to pause, triggers stopped state."
      },
      "paused()": {
        "details": "Returns true if the contract is paused, and false otherwise."
      },
      "renounceOwnership()": {
        "details": "Leaves the contract without owner. It will not be possible to call `onlyOwner` functions anymore. Can only be called by the current owner.     * NOTE: Renouncing ownership will leave the contract without an owner, thereby removing any functionality that is only available to the owner."
      },
      "transferOwnership(address)": {
        "details": "Transfers ownership of the contract to a new account (`newOwner`). Can only be called by the current owner."
      },
      "unpause()": {
        "details": "Called by a pauser to unpause, returns to normal state."
      }
    }
  },
  "userdoc": {
    "methods": {}
  }
}